{
	"contracts/BOG.sol": {
		"Token": {
			"abi": [
				{
					"inputs": [
						{
							"internalType": "uint256",
							"name": "initialSupply",
							"type": "uint256"
						},
						{
							"internalType": "address",
							"name": "_priceFeed",
							"type": "address"
						}
					],
					"stateMutability": "nonpayable",
					"type": "constructor"
				},
				{
					"inputs": [],
					"name": "ECDSAInvalidSignature",
					"type": "error"
				},
				{
					"inputs": [
						{
							"internalType": "uint256",
							"name": "length",
							"type": "uint256"
						}
					],
					"name": "ECDSAInvalidSignatureLength",
					"type": "error"
				},
				{
					"inputs": [
						{
							"internalType": "bytes32",
							"name": "s",
							"type": "bytes32"
						}
					],
					"name": "ECDSAInvalidSignatureS",
					"type": "error"
				},
				{
					"anonymous": false,
					"inputs": [
						{
							"indexed": true,
							"internalType": "address",
							"name": "owner",
							"type": "address"
						},
						{
							"indexed": true,
							"internalType": "address",
							"name": "spender",
							"type": "address"
						},
						{
							"indexed": false,
							"internalType": "uint256",
							"name": "value",
							"type": "uint256"
						}
					],
					"name": "Approval",
					"type": "event"
				},
				{
					"anonymous": false,
					"inputs": [
						{
							"indexed": true,
							"internalType": "address",
							"name": "previousOwner",
							"type": "address"
						},
						{
							"indexed": true,
							"internalType": "address",
							"name": "newOwner",
							"type": "address"
						}
					],
					"name": "OwnershipTransferred",
					"type": "event"
				},
				{
					"anonymous": false,
					"inputs": [
						{
							"indexed": true,
							"internalType": "address",
							"name": "from",
							"type": "address"
						},
						{
							"indexed": true,
							"internalType": "address",
							"name": "to",
							"type": "address"
						},
						{
							"indexed": false,
							"internalType": "uint256",
							"name": "value",
							"type": "uint256"
						}
					],
					"name": "Transfer",
					"type": "event"
				},
				{
					"inputs": [],
					"name": "DOMAIN_SEPARATOR",
					"outputs": [
						{
							"internalType": "bytes32",
							"name": "",
							"type": "bytes32"
						}
					],
					"stateMutability": "view",
					"type": "function"
				},
				{
					"inputs": [],
					"name": "PERMIT_TYPEHASH",
					"outputs": [
						{
							"internalType": "bytes32",
							"name": "",
							"type": "bytes32"
						}
					],
					"stateMutability": "view",
					"type": "function"
				},
				{
					"inputs": [
						{
							"internalType": "address",
							"name": "owner",
							"type": "address"
						},
						{
							"internalType": "address",
							"name": "spender",
							"type": "address"
						}
					],
					"name": "allowance",
					"outputs": [
						{
							"internalType": "uint256",
							"name": "",
							"type": "uint256"
						}
					],
					"stateMutability": "view",
					"type": "function"
				},
				{
					"inputs": [
						{
							"internalType": "address",
							"name": "spender",
							"type": "address"
						},
						{
							"internalType": "uint256",
							"name": "amount",
							"type": "uint256"
						}
					],
					"name": "approve",
					"outputs": [
						{
							"internalType": "bool",
							"name": "",
							"type": "bool"
						}
					],
					"stateMutability": "nonpayable",
					"type": "function"
				},
				{
					"inputs": [
						{
							"internalType": "address",
							"name": "account",
							"type": "address"
						}
					],
					"name": "balanceOf",
					"outputs": [
						{
							"internalType": "uint256",
							"name": "",
							"type": "uint256"
						}
					],
					"stateMutability": "view",
					"type": "function"
				},
				{
					"inputs": [
						{
							"internalType": "uint256",
							"name": "amount",
							"type": "uint256"
						}
					],
					"name": "burn",
					"outputs": [],
					"stateMutability": "nonpayable",
					"type": "function"
				},
				{
					"inputs": [],
					"name": "decimals",
					"outputs": [
						{
							"internalType": "uint8",
							"name": "",
							"type": "uint8"
						}
					],
					"stateMutability": "view",
					"type": "function"
				},
				{
					"inputs": [
						{
							"internalType": "address",
							"name": "spender",
							"type": "address"
						},
						{
							"internalType": "uint256",
							"name": "subtractedValue",
							"type": "uint256"
						}
					],
					"name": "decreaseAllowance",
					"outputs": [
						{
							"internalType": "bool",
							"name": "",
							"type": "bool"
						}
					],
					"stateMutability": "nonpayable",
					"type": "function"
				},
				{
					"inputs": [],
					"name": "getLatestPrice",
					"outputs": [
						{
							"internalType": "int256",
							"name": "",
							"type": "int256"
						}
					],
					"stateMutability": "view",
					"type": "function"
				},
				{
					"inputs": [
						{
							"internalType": "address",
							"name": "spender",
							"type": "address"
						},
						{
							"internalType": "uint256",
							"name": "addedValue",
							"type": "uint256"
						}
					],
					"name": "increaseAllowance",
					"outputs": [
						{
							"internalType": "bool",
							"name": "",
							"type": "bool"
						}
					],
					"stateMutability": "nonpayable",
					"type": "function"
				},
				{
					"inputs": [
						{
							"internalType": "uint256",
							"name": "amount",
							"type": "uint256"
						}
					],
					"name": "mint",
					"outputs": [],
					"stateMutability": "nonpayable",
					"type": "function"
				},
				{
					"inputs": [],
					"name": "mintDaily",
					"outputs": [],
					"stateMutability": "nonpayable",
					"type": "function"
				},
				{
					"inputs": [],
					"name": "name",
					"outputs": [
						{
							"internalType": "string",
							"name": "",
							"type": "string"
						}
					],
					"stateMutability": "view",
					"type": "function"
				},
				{
					"inputs": [
						{
							"internalType": "address",
							"name": "",
							"type": "address"
						}
					],
					"name": "nonces",
					"outputs": [
						{
							"internalType": "uint256",
							"name": "",
							"type": "uint256"
						}
					],
					"stateMutability": "view",
					"type": "function"
				},
				{
					"inputs": [],
					"name": "owner",
					"outputs": [
						{
							"internalType": "address",
							"name": "",
							"type": "address"
						}
					],
					"stateMutability": "view",
					"type": "function"
				},
				{
					"inputs": [
						{
							"internalType": "address",
							"name": "owner",
							"type": "address"
						},
						{
							"internalType": "address",
							"name": "spender",
							"type": "address"
						},
						{
							"internalType": "uint256",
							"name": "value",
							"type": "uint256"
						},
						{
							"internalType": "uint256",
							"name": "deadline",
							"type": "uint256"
						},
						{
							"internalType": "uint8",
							"name": "v",
							"type": "uint8"
						},
						{
							"internalType": "bytes32",
							"name": "r",
							"type": "bytes32"
						},
						{
							"internalType": "bytes32",
							"name": "s",
							"type": "bytes32"
						}
					],
					"name": "permit",
					"outputs": [],
					"stateMutability": "nonpayable",
					"type": "function"
				},
				{
					"inputs": [],
					"name": "priceInUSD",
					"outputs": [
						{
							"internalType": "uint256",
							"name": "",
							"type": "uint256"
						}
					],
					"stateMutability": "view",
					"type": "function"
				},
				{
					"inputs": [
						{
							"internalType": "uint256",
							"name": "gasLimit",
							"type": "uint256"
						}
					],
					"name": "setGasLimit",
					"outputs": [],
					"stateMutability": "view",
					"type": "function"
				},
				{
					"inputs": [
						{
							"internalType": "uint256",
							"name": "newPriceInUSD",
							"type": "uint256"
						}
					],
					"name": "setPriceInUSD",
					"outputs": [],
					"stateMutability": "nonpayable",
					"type": "function"
				},
				{
					"inputs": [],
					"name": "symbol",
					"outputs": [
						{
							"internalType": "string",
							"name": "",
							"type": "string"
						}
					],
					"stateMutability": "view",
					"type": "function"
				},
				{
					"inputs": [],
					"name": "totalSupply",
					"outputs": [
						{
							"internalType": "uint256",
							"name": "",
							"type": "uint256"
						}
					],
					"stateMutability": "view",
					"type": "function"
				},
				{
					"inputs": [
						{
							"internalType": "address",
							"name": "recipient",
							"type": "address"
						},
						{
							"internalType": "uint256",
							"name": "amount",
							"type": "uint256"
						}
					],
					"name": "transfer",
					"outputs": [
						{
							"internalType": "bool",
							"name": "",
							"type": "bool"
						}
					],
					"stateMutability": "nonpayable",
					"type": "function"
				},
				{
					"inputs": [
						{
							"internalType": "address",
							"name": "sender",
							"type": "address"
						},
						{
							"internalType": "address",
							"name": "recipient",
							"type": "address"
						},
						{
							"internalType": "uint256",
							"name": "amount",
							"type": "uint256"
						}
					],
					"name": "transferFrom",
					"outputs": [
						{
							"internalType": "bool",
							"name": "",
							"type": "bool"
						}
					],
					"stateMutability": "nonpayable",
					"type": "function"
				},
				{
					"inputs": [
						{
							"internalType": "address",
							"name": "newOwner",
							"type": "address"
						}
					],
					"name": "transferOwnership",
					"outputs": [],
					"stateMutability": "nonpayable",
					"type": "function"
				}
			],
			"devdoc": {
				"errors": {
					"ECDSAInvalidSignature()": [
						{
							"details": "The signature derives the `address(0)`."
						}
					],
					"ECDSAInvalidSignatureLength(uint256)": [
						{
							"details": "The signature has an invalid length."
						}
					],
					"ECDSAInvalidSignatureS(bytes32)": [
						{
							"details": "The signature has an S value that is in the upper half order."
						}
					]
				},
				"kind": "dev",
				"methods": {},
				"version": 1
			},
			"evm": {
				"assembly": "    /* \"contracts/BOG.sol\":1839:1865  string public name = \"BOG\" */\n  0xc0\n    /* \"contracts/BOG.sol\":1766:8467  contract Token is IBEP20, Ownable {... */\n  0x40\n    /* \"contracts/BOG.sol\":1839:1865  string public name = \"BOG\" */\n  mstore\n  0x03\n    /* \"contracts/BOG.sol\":1766:8467  contract Token is IBEP20, Ownable {... */\n  0x80\n    /* \"contracts/BOG.sol\":1839:1865  string public name = \"BOG\" */\n  swap1\n  dup2\n  mstore\n  mstore(0xa0, shl(0xe8, 0x424f47))\n  0x01\n  swap1\n  tag_1\n  swap1\n  dup3\n  tag_2\n  jump\t// in\ntag_1:\n  pop\n    /* \"contracts/BOG.sol\":1872:1900  string public symbol = \"BOG\" */\n  0x40\n  dup1\n  mload\n  dup1\n  dup3\n  add\n  swap1\n  swap2\n  mstore\n  0x03\n  dup2\n  mstore\n  shl(0xe8, 0x424f47)\n  0x20\n  dup3\n  add\n  mstore\n  0x02\n  swap1\n  tag_3\n  swap1\n  dup3\n  tag_2\n  jump\t// in\ntag_3:\n  pop\n    /* \"contracts/BOG.sol\":1907:1933  uint8 public decimals = 18 */\n  0x03\n  dup1\n  sload\n  not(0xff)\n  and\n    /* \"contracts/BOG.sol\":1931:1933  18 */\n  0x12\n    /* \"contracts/BOG.sol\":1907:1933  uint8 public decimals = 18 */\n  or\n  swap1\n  sstore\n    /* \"contracts/BOG.sol\":2003:2018  0.01 * 10 ** 18 */\n  0x2386f26fc10000\n    /* \"contracts/BOG.sol\":1975:2018  uint256 public priceInUSD = 0.01 * 10 ** 18 */\n  0x05\n  sstore\n    /* \"contracts/BOG.sol\":2498:3094  constructor(uint256 initialSupply, address _priceFeed) {... */\n  callvalue\n  dup1\n  iszero\n  tag_4\n  jumpi\n  revert(0x00, 0x00)\ntag_4:\n  pop\n  mload(0x40)\n  sub(codesize, bytecodeSize)\n  dup1\n  bytecodeSize\n  dup4\n  codecopy\n  dup2\n  add\n  0x40\n  dup2\n  swap1\n  mstore\n  tag_5\n  swap2\n  tag_6\n  jump\t// in\ntag_5:\n    /* \"contracts/BOG.sol\":432:438  _owner */\n  0x00\n    /* \"contracts/BOG.sol\":432:451  _owner = msg.sender */\n  dup1\n  sload\n  not(sub(shl(0xa0, 0x01), 0x01))\n  and\n    /* \"contracts/BOG.sol\":441:451  msg.sender */\n  caller\n    /* \"contracts/BOG.sol\":432:451  _owner = msg.sender */\n  swap1\n  dup2\n  or\n  dup3\n  sstore\n    /* \"contracts/BOG.sol\":467:507  OwnershipTransferred(address(0), _owner) */\n  mload(0x40)\n    /* \"contracts/BOG.sol\":441:451  msg.sender */\n  swap1\n  swap2\n    /* \"contracts/BOG.sol\":432:438  _owner */\n  swap1\n    /* \"contracts/BOG.sol\":467:507  OwnershipTransferred(address(0), _owner) */\n  0x8be0079c531659141344cd1fd0a4f28419497f9722a3daafe3b4186f6b6457e0\n  swap1\n    /* \"contracts/BOG.sol\":432:438  _owner */\n  dup3\n  swap1\n    /* \"contracts/BOG.sol\":467:507  OwnershipTransferred(address(0), _owner) */\n  log3\n    /* \"contracts/BOG.sol\":2815:2837  keccak256(bytes(name)) */\n  mload(0x40)\n    /* \"contracts/BOG.sol\":2582:2595  block.chainid */\n  chainid\n  swap1\n    /* \"contracts/BOG.sol\":2701:2796  keccak256(\"EIP712Domain(string name,string version,uint256 chainId,address verifyingContract)\") */\n  0x8b73c3c69bb8fe3d512ecc4cf759cc79239f7b179b0ffacaa9a75d522b39400f\n  swap1\n    /* \"contracts/BOG.sol\":2815:2837  keccak256(bytes(name)) */\n  tag_11\n  swap1\n    /* \"contracts/BOG.sol\":2831:2835  name */\n  0x01\n  swap1\n    /* \"contracts/BOG.sol\":2815:2837  keccak256(bytes(name)) */\n  tag_12\n  jump\t// in\ntag_11:\n  0x40\n  dup1\n  mload\n  swap2\n  dup3\n  swap1\n  sub\n  dup3\n  keccak256\n    /* \"contracts/BOG.sol\":2866:2876  bytes(\"1\") */\n  dup3\n  dup3\n  add\n  dup3\n  mstore\n  0x01\n  dup4\n  mstore\n  shl(0xf8, 0x31)\n  0x20\n  swap4\n  dup5\n  add\n  mstore\n    /* \"contracts/BOG.sol\":2672:2950  abi.encode(... */\n  dup2\n  mload\n  swap3\n  dup4\n  add\n    /* \"#utility.yul\":4074:4099   */\n  swap4\n  swap1\n  swap4\n  mstore\n    /* \"#utility.yul\":4115:4133   */\n  dup2\n  add\n    /* \"#utility.yul\":4108:4142   */\n  swap2\n  swap1\n  swap2\n  mstore\n    /* \"contracts/BOG.sol\":2856:2877  keccak256(bytes(\"1\")) */\n  0xc89efdaa54c0f20c7adf612882df0950f5a951637e0307cdcb4c672f298b8bc6\n    /* \"#utility.yul\":4158:4176   */\n  0x60\n  dup3\n  add\n    /* \"#utility.yul\":4151:4185   */\n  mstore\n    /* \"#utility.yul\":4201:4219   */\n  0x80\n  dup2\n  add\n    /* \"#utility.yul\":4194:4228   */\n  dup3\n  swap1\n  mstore\n    /* \"contracts/BOG.sol\":2930:2934  this */\n  address\n    /* \"#utility.yul\":4244:4263   */\n  0xa0\n  dup3\n  add\n    /* \"#utility.yul\":4237:4298   */\n  mstore\n    /* \"#utility.yul\":4046:4065   */\n  0xc0\n  add\n    /* \"contracts/BOG.sol\":2672:2950  abi.encode(... */\n  0x40\n  dup1\n  mload\n  not(0x1f)\n  dup2\n  dup5\n  sub\n  add\n  dup2\n  mstore\n  swap2\n  swap1\n  mstore\n    /* \"contracts/BOG.sol\":2648:2961  keccak256(... */\n  dup1\n  mload\n    /* \"contracts/BOG.sol\":2672:2950  abi.encode(... */\n  0x20\n    /* \"contracts/BOG.sol\":2648:2961  keccak256(... */\n  swap1\n  swap2\n  add\n  keccak256\n    /* \"contracts/BOG.sol\":2629:2645  DOMAIN_SEPARATOR */\n  0x0a\n    /* \"contracts/BOG.sol\":2629:2961  DOMAIN_SEPARATOR = keccak256(... */\n  swap1\n  dup2\n  sstore\n    /* \"contracts/BOG.sol\":3020:3028  decimals */\n  sload(0x03)\n    /* \"contracts/BOG.sol\":2972:3030  _mint(msg.sender, initialSupply * 10 ** uint256(decimals)) */\n  tag_15\n  swap2\n    /* \"contracts/BOG.sol\":2978:2988  msg.sender */\n  caller\n  swap2\n    /* \"contracts/BOG.sol\":3006:3029  10 ** uint256(decimals) */\n  tag_16\n  swap2\n    /* \"contracts/BOG.sol\":3020:3028  decimals */\n  0xff\n  swap1\n  swap2\n  and\n  swap1\n    /* \"contracts/BOG.sol\":3006:3029  10 ** uint256(decimals) */\n  tag_17\n  jump\t// in\ntag_16:\n    /* \"contracts/BOG.sol\":2990:3029  initialSupply * 10 ** uint256(decimals) */\n  tag_18\n  swap1\n    /* \"contracts/BOG.sol\":2990:3003  initialSupply */\n  dup7\n    /* \"contracts/BOG.sol\":2990:3029  initialSupply * 10 ** uint256(decimals) */\n  tag_19\n  jump\t// in\ntag_18:\n    /* \"contracts/BOG.sol\":2972:2977  _mint */\n  tag_20\n    /* \"contracts/BOG.sol\":2972:3030  _mint(msg.sender, initialSupply * 10 ** uint256(decimals)) */\n  jump\t// in\ntag_15:\n  pop\n    /* \"contracts/BOG.sol\":3041:3050  priceFeed */\n  0x06\n    /* \"contracts/BOG.sol\":3041:3086  priceFeed = AggregatorV3Interface(_priceFeed) */\n  dup1\n  sload\n  not(sub(shl(0xa0, 0x01), 0x01))\n  and\n  sub(shl(0xa0, 0x01), 0x01)\n  swap3\n  swap1\n  swap3\n  and\n  swap2\n  swap1\n  swap2\n  or\n  swap1\n  sstore\n  pop\n    /* \"contracts/BOG.sol\":1766:8467  contract Token is IBEP20, Ownable {... */\n  jump(tag_39)\n    /* \"contracts/BOG.sol\":6737:7003  function _mint(address to, uint256 value) internal {... */\ntag_20:\n  sub(shl(0xa0, 0x01), 0x01)\n    /* \"contracts/BOG.sol\":6807:6823  to != address(0) */\n  dup3\n  and\n    /* \"contracts/BOG.sol\":6799:6852  require(to != address(0), \"Mint to the zero address\") */\n  tag_23\n  jumpi\n  mload(0x40)\n  shl(0xe5, 0x461bcd)\n  dup2\n  mstore\n    /* \"#utility.yul\":6239:6241   */\n  0x20\n    /* \"contracts/BOG.sol\":6799:6852  require(to != address(0), \"Mint to the zero address\") */\n  0x04\n  dup3\n  add\n    /* \"#utility.yul\":6221:6242   */\n  mstore\n    /* \"#utility.yul\":6278:6280   */\n  0x18\n    /* \"#utility.yul\":6258:6276   */\n  0x24\n  dup3\n  add\n    /* \"#utility.yul\":6251:6281   */\n  mstore\n    /* \"#utility.yul\":6317:6343   */\n  0x4d696e7420746f20746865207a65726f20616464726573730000000000000000\n    /* \"#utility.yul\":6297:6315   */\n  0x44\n  dup3\n  add\n    /* \"#utility.yul\":6290:6344   */\n  mstore\n    /* \"#utility.yul\":6361:6379   */\n  0x64\n  add\n    /* \"contracts/BOG.sol\":6799:6852  require(to != address(0), \"Mint to the zero address\") */\n  mload(0x40)\n  dup1\n  swap2\n  sub\n  swap1\n  revert\ntag_23:\n    /* \"contracts/BOG.sol\":6895:6900  value */\n  dup1\n    /* \"contracts/BOG.sol\":6879:6891  _totalSupply */\n  0x04\n  0x00\n    /* \"contracts/BOG.sol\":6879:6900  _totalSupply += value */\n  dup3\n  dup3\n  sload\n  tag_26\n  swap2\n  swap1\n  tag_27\n  jump\t// in\ntag_26:\n  swap1\n  swap2\n  sstore\n  pop\n  pop\n  sub(shl(0xa0, 0x01), 0x01)\n    /* \"contracts/BOG.sol\":6911:6924  _balances[to] */\n  dup3\n  and\n  0x00\n  swap1\n  dup2\n  mstore\n    /* \"contracts/BOG.sol\":6911:6920  _balances */\n  0x07\n    /* \"contracts/BOG.sol\":6911:6924  _balances[to] */\n  0x20\n  mstore\n  0x40\n  dup2\n  keccak256\n    /* \"contracts/BOG.sol\":6911:6933  _balances[to] += value */\n  dup1\n  sload\n    /* \"contracts/BOG.sol\":6928:6933  value */\n  dup4\n  swap3\n    /* \"contracts/BOG.sol\":6911:6924  _balances[to] */\n  swap1\n    /* \"contracts/BOG.sol\":6911:6933  _balances[to] += value */\n  tag_28\n  swap1\n    /* \"contracts/BOG.sol\":6928:6933  value */\n  dup5\n  swap1\n    /* \"contracts/BOG.sol\":6911:6933  _balances[to] += value */\n  tag_27\n  jump\t// in\ntag_28:\n  swap1\n  swap2\n  sstore\n  pop\n  pop\n    /* \"contracts/BOG.sol\":6949:6980  Transfer(address(0), to, value) */\n  mload(0x40)\n    /* \"#utility.yul\":6666:6691   */\n  dup2\n  dup2\n  mstore\n  sub(shl(0xa0, 0x01), 0x01)\n    /* \"contracts/BOG.sol\":6949:6980  Transfer(address(0), to, value) */\n  dup4\n  and\n  swap1\n    /* \"contracts/BOG.sol\":6966:6967  0 */\n  0x00\n  swap1\n    /* \"contracts/BOG.sol\":6949:6980  Transfer(address(0), to, value) */\n  0xddf252ad1be2c89b69c2b068fc378daa952ba7f163c4a11628f55a4df523b3ef\n  swap1\n    /* \"#utility.yul\":6654:6656   */\n  0x20\n    /* \"#utility.yul\":6639:6657   */\n  add\n    /* \"contracts/BOG.sol\":6949:6980  Transfer(address(0), to, value) */\n  mload(0x40)\n  dup1\n  swap2\n  sub\n  swap1\n  log3\n    /* \"contracts/BOG.sol\":6737:7003  function _mint(address to, uint256 value) internal {... */\n  pop\n  pop\n  jump\t// out\n    /* \"#utility.yul\":14:141   */\ntag_31:\n    /* \"#utility.yul\":75:85   */\n  0x4e487b71\n    /* \"#utility.yul\":70:73   */\n  0xe0\n    /* \"#utility.yul\":66:86   */\n  shl\n    /* \"#utility.yul\":63:64   */\n  0x00\n    /* \"#utility.yul\":56:87   */\n  mstore\n    /* \"#utility.yul\":106:110   */\n  0x41\n    /* \"#utility.yul\":103:104   */\n  0x04\n    /* \"#utility.yul\":96:111   */\n  mstore\n    /* \"#utility.yul\":130:134   */\n  0x24\n    /* \"#utility.yul\":127:128   */\n  0x00\n    /* \"#utility.yul\":120:135   */\n  revert\n    /* \"#utility.yul\":146:526   */\ntag_32:\n    /* \"#utility.yul\":225:226   */\n  0x01\n    /* \"#utility.yul\":221:233   */\n  dup2\n  dup2\n  shr\n  swap1\n    /* \"#utility.yul\":268:280   */\n  dup3\n  and\n  dup1\n    /* \"#utility.yul\":289:350   */\n  tag_42\n  jumpi\n    /* \"#utility.yul\":343:347   */\n  0x7f\n    /* \"#utility.yul\":335:341   */\n  dup3\n    /* \"#utility.yul\":331:348   */\n  and\n    /* \"#utility.yul\":321:348   */\n  swap2\n  pop\n    /* \"#utility.yul\":289:350   */\ntag_42:\n    /* \"#utility.yul\":396:398   */\n  0x20\n    /* \"#utility.yul\":388:394   */\n  dup3\n    /* \"#utility.yul\":385:399   */\n  lt\n    /* \"#utility.yul\":365:383   */\n  dup2\n    /* \"#utility.yul\":362:400   */\n  sub\n    /* \"#utility.yul\":359:520   */\n  tag_43\n  jumpi\n    /* \"#utility.yul\":442:452   */\n  0x4e487b71\n    /* \"#utility.yul\":437:440   */\n  0xe0\n    /* \"#utility.yul\":433:453   */\n  shl\n    /* \"#utility.yul\":430:431   */\n  0x00\n    /* \"#utility.yul\":423:454   */\n  mstore\n    /* \"#utility.yul\":477:481   */\n  0x22\n    /* \"#utility.yul\":474:475   */\n  0x04\n    /* \"#utility.yul\":467:482   */\n  mstore\n    /* \"#utility.yul\":505:509   */\n  0x24\n    /* \"#utility.yul\":502:503   */\n  0x00\n    /* \"#utility.yul\":495:510   */\n  revert\n    /* \"#utility.yul\":359:520   */\ntag_43:\n  pop\n    /* \"#utility.yul\":146:526   */\n  swap2\n  swap1\n  pop\n  jump\t// out\n    /* \"#utility.yul\":657:1175   */\ntag_34:\n    /* \"#utility.yul\":759:761   */\n  0x1f\n    /* \"#utility.yul\":754:757   */\n  dup3\n    /* \"#utility.yul\":751:762   */\n  gt\n    /* \"#utility.yul\":748:1169   */\n  iszero\n  tag_46\n  jumpi\n    /* \"#utility.yul\":795:800   */\n  dup1\n    /* \"#utility.yul\":792:793   */\n  0x00\n    /* \"#utility.yul\":785:801   */\n  mstore\n    /* \"#utility.yul\":839:843   */\n  0x20\n    /* \"#utility.yul\":836:837   */\n  0x00\n    /* \"#utility.yul\":826:844   */\n  keccak256\n    /* \"#utility.yul\":909:911   */\n  0x1f\n    /* \"#utility.yul\":897:907   */\n  dup5\n    /* \"#utility.yul\":893:912   */\n  add\n    /* \"#utility.yul\":890:891   */\n  0x05\n    /* \"#utility.yul\":886:913   */\n  shr\n    /* \"#utility.yul\":880:884   */\n  dup2\n    /* \"#utility.yul\":876:914   */\n  add\n    /* \"#utility.yul\":945:949   */\n  0x20\n    /* \"#utility.yul\":933:943   */\n  dup6\n    /* \"#utility.yul\":930:950   */\n  lt\n    /* \"#utility.yul\":927:974   */\n  iszero\n  tag_47\n  jumpi\n  pop\n    /* \"#utility.yul\":968:972   */\n  dup1\n    /* \"#utility.yul\":927:974   */\ntag_47:\n    /* \"#utility.yul\":1023:1025   */\n  0x1f\n    /* \"#utility.yul\":1018:1021   */\n  dup5\n    /* \"#utility.yul\":1014:1026   */\n  add\n    /* \"#utility.yul\":1011:1012   */\n  0x05\n    /* \"#utility.yul\":1007:1027   */\n  shr\n    /* \"#utility.yul\":1001:1005   */\n  dup3\n    /* \"#utility.yul\":997:1028   */\n  add\n    /* \"#utility.yul\":987:1028   */\n  swap2\n  pop\n    /* \"#utility.yul\":1078:1159   */\ntag_48:\n    /* \"#utility.yul\":1096:1098   */\n  dup2\n    /* \"#utility.yul\":1089:1094   */\n  dup2\n    /* \"#utility.yul\":1086:1099   */\n  lt\n    /* \"#utility.yul\":1078:1159   */\n  iszero\n  tag_50\n  jumpi\n    /* \"#utility.yul\":1155:1156   */\n  0x00\n    /* \"#utility.yul\":1141:1157   */\n  dup2\n  sstore\n    /* \"#utility.yul\":1122:1123   */\n  0x01\n    /* \"#utility.yul\":1111:1124   */\n  add\n    /* \"#utility.yul\":1078:1159   */\n  jump(tag_48)\ntag_50:\n    /* \"#utility.yul\":1082:1085   */\n  pop\n  pop\n    /* \"#utility.yul\":748:1169   */\ntag_46:\n    /* \"#utility.yul\":657:1175   */\n  pop\n  pop\n  pop\n  jump\t// out\n    /* \"#utility.yul\":1351:2650   */\ntag_2:\n    /* \"#utility.yul\":1471:1481   */\n  dup2\n  mload\n  sub(shl(0x40, 0x01), 0x01)\n    /* \"#utility.yul\":1493:1523   */\n  dup2\n  gt\n    /* \"#utility.yul\":1490:1546   */\n  iszero\n  tag_54\n  jumpi\n    /* \"#utility.yul\":1526:1544   */\n  tag_54\n  tag_31\n  jump\t// in\ntag_54:\n    /* \"#utility.yul\":1555:1652   */\n  tag_55\n    /* \"#utility.yul\":1645:1651   */\n  dup2\n    /* \"#utility.yul\":1605:1643   */\n  tag_56\n    /* \"#utility.yul\":1637:1641   */\n  dup5\n    /* \"#utility.yul\":1631:1642   */\n  sload\n    /* \"#utility.yul\":1605:1643   */\n  tag_32\n  jump\t// in\ntag_56:\n    /* \"#utility.yul\":1599:1603   */\n  dup5\n    /* \"#utility.yul\":1555:1652   */\n  tag_34\n  jump\t// in\ntag_55:\n    /* \"#utility.yul\":1701:1705   */\n  0x20\n    /* \"#utility.yul\":1732:1734   */\n  0x1f\n    /* \"#utility.yul\":1721:1735   */\n  dup3\n  gt\n    /* \"#utility.yul\":1749:1750   */\n  0x01\n    /* \"#utility.yul\":1744:2393   */\n  dup2\n  eq\n  tag_58\n  jumpi\n    /* \"#utility.yul\":2437:2438   */\n  0x00\n    /* \"#utility.yul\":2454:2460   */\n  dup4\n    /* \"#utility.yul\":2451:2540   */\n  iszero\n  tag_59\n  jumpi\n  pop\n    /* \"#utility.yul\":2506:2525   */\n  dup5\n  dup3\n  add\n    /* \"#utility.yul\":2500:2526   */\n  mload\n    /* \"#utility.yul\":2451:2540   */\ntag_59:\n  not(0x00)\n    /* \"#utility.yul\":1308:1309   */\n  0x03\n    /* \"#utility.yul\":1304:1315   */\n  dup6\n  swap1\n  shl\n    /* \"#utility.yul\":1300:1324   */\n  shr\n    /* \"#utility.yul\":1296:1325   */\n  not\n    /* \"#utility.yul\":1286:1326   */\n  and\n    /* \"#utility.yul\":1332:1333   */\n  0x01\n    /* \"#utility.yul\":1328:1339   */\n  dup5\n  swap1\n  shl\n    /* \"#utility.yul\":1283:1340   */\n  or\n    /* \"#utility.yul\":2553:2634   */\n  dup5\n  sstore\n    /* \"#utility.yul\":1714:2644   */\n  jump(tag_50)\n    /* \"#utility.yul\":1744:2393   */\ntag_58:\n    /* \"#utility.yul\":604:605   */\n  0x00\n    /* \"#utility.yul\":597:611   */\n  dup5\n  dup2\n  mstore\n    /* \"#utility.yul\":641:645   */\n  0x20\n    /* \"#utility.yul\":628:646   */\n  dup2\n  keccak256\n  not(0x1f)\n    /* \"#utility.yul\":1780:1800   */\n  dup6\n  and\n  swap2\n    /* \"#utility.yul\":1898:2120   */\ntag_62:\n    /* \"#utility.yul\":1912:1919   */\n  dup3\n    /* \"#utility.yul\":1909:1910   */\n  dup2\n    /* \"#utility.yul\":1906:1920   */\n  lt\n    /* \"#utility.yul\":1898:2120   */\n  iszero\n  tag_64\n  jumpi\n    /* \"#utility.yul\":1994:2013   */\n  dup8\n  dup6\n  add\n    /* \"#utility.yul\":1988:2014   */\n  mload\n    /* \"#utility.yul\":1973:2015   */\n  dup3\n  sstore\n    /* \"#utility.yul\":2101:2105   */\n  0x20\n    /* \"#utility.yul\":2086:2106   */\n  swap5\n  dup6\n  add\n  swap5\n    /* \"#utility.yul\":2054:2055   */\n  0x01\n    /* \"#utility.yul\":2042:2056   */\n  swap1\n  swap3\n  add\n  swap2\n    /* \"#utility.yul\":1928:1940   */\n  add\n    /* \"#utility.yul\":1898:2120   */\n  jump(tag_62)\ntag_64:\n    /* \"#utility.yul\":1902:1905   */\n  pop\n    /* \"#utility.yul\":2148:2154   */\n  dup5\n    /* \"#utility.yul\":2139:2146   */\n  dup3\n    /* \"#utility.yul\":2136:2155   */\n  lt\n    /* \"#utility.yul\":2133:2334   */\n  iszero\n  tag_65\n  jumpi\n    /* \"#utility.yul\":2209:2228   */\n  dup7\n  dup5\n  add\n    /* \"#utility.yul\":2203:2229   */\n  mload\n  not(0x00)\n    /* \"#utility.yul\":2292:2293   */\n  0x03\n    /* \"#utility.yul\":2288:2302   */\n  dup8\n  swap1\n  shl\n    /* \"#utility.yul\":2304:2307   */\n  0xf8\n    /* \"#utility.yul\":2284:2308   */\n  and\n    /* \"#utility.yul\":2280:2317   */\n  shr\n    /* \"#utility.yul\":2276:2318   */\n  not\n    /* \"#utility.yul\":2261:2319   */\n  and\n    /* \"#utility.yul\":2246:2320   */\n  dup2\n  sstore\n    /* \"#utility.yul\":2133:2334   */\ntag_65:\n  pop\n  pop\n  pop\n  pop\n    /* \"#utility.yul\":2380:2381   */\n  0x01\n    /* \"#utility.yul\":2364:2378   */\n  swap1\n  dup2\n  shl\n    /* \"#utility.yul\":2360:2382   */\n  add\n    /* \"#utility.yul\":2347:2383   */\n  swap1\n  sstore\n  pop\n    /* \"#utility.yul\":1351:2650   */\n  jump\t// out\n    /* \"#utility.yul\":2655:3006   */\ntag_6:\n    /* \"#utility.yul\":2734:2740   */\n  0x00\n    /* \"#utility.yul\":2742:2748   */\n  0x00\n    /* \"#utility.yul\":2795:2797   */\n  0x40\n    /* \"#utility.yul\":2783:2792   */\n  dup4\n    /* \"#utility.yul\":2774:2781   */\n  dup6\n    /* \"#utility.yul\":2770:2793   */\n  sub\n    /* \"#utility.yul\":2766:2798   */\n  slt\n    /* \"#utility.yul\":2763:2815   */\n  iszero\n  tag_67\n  jumpi\n    /* \"#utility.yul\":2811:2812   */\n  0x00\n    /* \"#utility.yul\":2808:2809   */\n  0x00\n    /* \"#utility.yul\":2801:2813   */\n  revert\n    /* \"#utility.yul\":2763:2815   */\ntag_67:\n    /* \"#utility.yul\":2834:2850   */\n  dup3\n  mload\n    /* \"#utility.yul\":2893:2895   */\n  0x20\n    /* \"#utility.yul\":2878:2896   */\n  dup5\n  add\n    /* \"#utility.yul\":2872:2897   */\n  mload\n    /* \"#utility.yul\":2834:2850   */\n  swap1\n  swap3\n  pop\n  sub(shl(0xa0, 0x01), 0x01)\n    /* \"#utility.yul\":2926:2957   */\n  dup2\n  and\n    /* \"#utility.yul\":2916:2958   */\n  dup2\n  eq\n    /* \"#utility.yul\":2906:2976   */\n  tag_68\n  jumpi\n    /* \"#utility.yul\":2972:2973   */\n  0x00\n    /* \"#utility.yul\":2969:2970   */\n  0x00\n    /* \"#utility.yul\":2962:2974   */\n  revert\n    /* \"#utility.yul\":2906:2976   */\ntag_68:\n    /* \"#utility.yul\":2995:3000   */\n  dup1\n    /* \"#utility.yul\":2985:3000   */\n  swap2\n  pop\n  pop\n    /* \"#utility.yul\":2655:3006   */\n  swap3\n  pop\n  swap3\n  swap1\n  pop\n  jump\t// out\n    /* \"#utility.yul\":3011:3810   */\ntag_12:\n    /* \"#utility.yul\":3141:3144   */\n  0x00\n    /* \"#utility.yul\":3170:3171   */\n  0x00\n    /* \"#utility.yul\":3203:3209   */\n  dup4\n    /* \"#utility.yul\":3197:3210   */\n  sload\n    /* \"#utility.yul\":3233:3269   */\n  tag_70\n    /* \"#utility.yul\":3259:3268   */\n  dup2\n    /* \"#utility.yul\":3233:3269   */\n  tag_32\n  jump\t// in\ntag_70:\n    /* \"#utility.yul\":3300:3301   */\n  0x01\n    /* \"#utility.yul\":3285:3302   */\n  dup3\n  and\n    /* \"#utility.yul\":3311:3444   */\n  dup1\n  iszero\n  tag_72\n  jumpi\n    /* \"#utility.yul\":3458:3459   */\n  0x01\n    /* \"#utility.yul\":3453:3785   */\n  dup2\n  eq\n  tag_73\n  jumpi\n    /* \"#utility.yul\":3278:3785   */\n  jump(tag_71)\n    /* \"#utility.yul\":3311:3444   */\ntag_72:\n  not(0xff)\n    /* \"#utility.yul\":3344:3368   */\n  dup4\n  and\n    /* \"#utility.yul\":3332:3369   */\n  dup7\n  mstore\n    /* \"#utility.yul\":3417:3431   */\n  dup2\n  iszero\n    /* \"#utility.yul\":3410:3432   */\n  iszero\n    /* \"#utility.yul\":3398:3433   */\n  dup3\n  mul\n    /* \"#utility.yul\":3389:3434   */\n  dup7\n  add\n  swap4\n  pop\n    /* \"#utility.yul\":3311:3444   */\n  jump(tag_71)\n    /* \"#utility.yul\":3453:3785   */\ntag_73:\n    /* \"#utility.yul\":3484:3490   */\n  dup7\n    /* \"#utility.yul\":3481:3482   */\n  0x00\n    /* \"#utility.yul\":3474:3491   */\n  mstore\n    /* \"#utility.yul\":3532:3536   */\n  0x20\n    /* \"#utility.yul\":3529:3530   */\n  0x00\n    /* \"#utility.yul\":3519:3537   */\n  keccak256\n    /* \"#utility.yul\":3559:3560   */\n  0x00\n    /* \"#utility.yul\":3573:3739   */\ntag_74:\n    /* \"#utility.yul\":3587:3593   */\n  dup4\n    /* \"#utility.yul\":3584:3585   */\n  dup2\n    /* \"#utility.yul\":3581:3594   */\n  lt\n    /* \"#utility.yul\":3573:3739   */\n  iszero\n  tag_76\n  jumpi\n    /* \"#utility.yul\":3667:3681   */\n  dup2\n  sload\n    /* \"#utility.yul\":3654:3665   */\n  dup9\n  dup3\n  add\n    /* \"#utility.yul\":3647:3682   */\n  mstore\n    /* \"#utility.yul\":3723:3724   */\n  0x01\n    /* \"#utility.yul\":3710:3725   */\n  swap1\n  swap2\n  add\n  swap1\n    /* \"#utility.yul\":3609:3613   */\n  0x20\n    /* \"#utility.yul\":3602:3614   */\n  add\n    /* \"#utility.yul\":3573:3739   */\n  jump(tag_74)\ntag_76:\n    /* \"#utility.yul\":3577:3580   */\n  pop\n  pop\n    /* \"#utility.yul\":3768:3774   */\n  dup2\n    /* \"#utility.yul\":3763:3766   */\n  dup7\n    /* \"#utility.yul\":3759:3775   */\n  add\n    /* \"#utility.yul\":3752:3775   */\n  swap4\n  pop\n    /* \"#utility.yul\":3278:3785   */\ntag_71:\n  pop\n    /* \"#utility.yul\":3801:3804   */\n  swap2\n  swap6\n    /* \"#utility.yul\":3011:3810   */\n  swap5\n  pop\n  pop\n  pop\n  pop\n  pop\n  jump\t// out\n    /* \"#utility.yul\":4309:4436   */\ntag_36:\n    /* \"#utility.yul\":4370:4380   */\n  0x4e487b71\n    /* \"#utility.yul\":4365:4368   */\n  0xe0\n    /* \"#utility.yul\":4361:4381   */\n  shl\n    /* \"#utility.yul\":4358:4359   */\n  0x00\n    /* \"#utility.yul\":4351:4382   */\n  mstore\n    /* \"#utility.yul\":4401:4405   */\n  0x11\n    /* \"#utility.yul\":4398:4399   */\n  0x04\n    /* \"#utility.yul\":4391:4406   */\n  mstore\n    /* \"#utility.yul\":4425:4429   */\n  0x24\n    /* \"#utility.yul\":4422:4423   */\n  0x00\n    /* \"#utility.yul\":4415:4430   */\n  revert\n    /* \"#utility.yul\":4441:4816   */\ntag_37:\n    /* \"#utility.yul\":4529:4530   */\n  0x01\n    /* \"#utility.yul\":4547:4552   */\n  dup2\n    /* \"#utility.yul\":4561:4810   */\ntag_80:\n    /* \"#utility.yul\":4582:4583   */\n  0x01\n    /* \"#utility.yul\":4572:4580   */\n  dup5\n    /* \"#utility.yul\":4569:4584   */\n  gt\n    /* \"#utility.yul\":4561:4810   */\n  iszero\n  tag_82\n  jumpi\n    /* \"#utility.yul\":4632:4636   */\n  dup1\n    /* \"#utility.yul\":4627:4630   */\n  dup6\n    /* \"#utility.yul\":4623:4637   */\n  div\n    /* \"#utility.yul\":4617:4621   */\n  dup2\n    /* \"#utility.yul\":4614:4638   */\n  gt\n    /* \"#utility.yul\":4611:4661   */\n  iszero\n  tag_84\n  jumpi\n    /* \"#utility.yul\":4641:4659   */\n  tag_84\n  tag_36\n  jump\t// in\ntag_84:\n    /* \"#utility.yul\":4691:4692   */\n  0x01\n    /* \"#utility.yul\":4681:4689   */\n  dup5\n    /* \"#utility.yul\":4677:4693   */\n  and\n    /* \"#utility.yul\":4674:4723   */\n  iszero\n  tag_85\n  jumpi\n    /* \"#utility.yul\":4705:4721   */\n  swap1\n  dup2\n  mul\n  swap1\n    /* \"#utility.yul\":4674:4723   */\ntag_85:\n    /* \"#utility.yul\":4788:4789   */\n  0x01\n    /* \"#utility.yul\":4784:4800   */\n  swap4\n  swap1\n  swap4\n  shr\n  swap3\n    /* \"#utility.yul\":4744:4759   */\n  dup1\n  mul\n    /* \"#utility.yul\":4561:4810   */\n  jump(tag_80)\ntag_82:\n    /* \"#utility.yul\":4441:4816   */\n  swap4\n  pop\n  swap4\n  swap2\n  pop\n  pop\n  jump\t// out\n    /* \"#utility.yul\":4821:5723   */\ntag_38:\n    /* \"#utility.yul\":4870:4875   */\n  0x00\n    /* \"#utility.yul\":4900:4908   */\n  dup3\n    /* \"#utility.yul\":4890:4970   */\n  tag_87\n  jumpi\n  pop\n    /* \"#utility.yul\":4941:4942   */\n  0x01\n    /* \"#utility.yul\":4955:4960   */\n  jump(tag_86)\n    /* \"#utility.yul\":4890:4970   */\ntag_87:\n    /* \"#utility.yul\":4989:4993   */\n  dup2\n    /* \"#utility.yul\":4979:5055   */\n  tag_88\n  jumpi\n  pop\n    /* \"#utility.yul\":5026:5027   */\n  0x00\n    /* \"#utility.yul\":5040:5045   */\n  jump(tag_86)\n    /* \"#utility.yul\":4979:5055   */\ntag_88:\n    /* \"#utility.yul\":5071:5075   */\n  dup2\n    /* \"#utility.yul\":5089:5090   */\n  0x01\n    /* \"#utility.yul\":5084:5143   */\n  dup2\n  eq\n  tag_90\n  jumpi\n    /* \"#utility.yul\":5157:5158   */\n  0x02\n    /* \"#utility.yul\":5152:5326   */\n  dup2\n  eq\n  tag_91\n  jumpi\n    /* \"#utility.yul\":5064:5326   */\n  jump(tag_89)\n    /* \"#utility.yul\":5084:5143   */\ntag_90:\n    /* \"#utility.yul\":5114:5115   */\n  0x01\n    /* \"#utility.yul\":5105:5115   */\n  swap2\n  pop\n    /* \"#utility.yul\":5128:5133   */\n  pop\n  jump(tag_86)\n    /* \"#utility.yul\":5152:5326   */\ntag_91:\n    /* \"#utility.yul\":5189:5192   */\n  0xff\n    /* \"#utility.yul\":5179:5187   */\n  dup5\n    /* \"#utility.yul\":5176:5193   */\n  gt\n    /* \"#utility.yul\":5173:5216   */\n  iszero\n  tag_93\n  jumpi\n    /* \"#utility.yul\":5196:5214   */\n  tag_93\n  tag_36\n  jump\t// in\ntag_93:\n  pop\n  pop\n    /* \"#utility.yul\":5252:5253   */\n  0x01\n    /* \"#utility.yul\":5238:5254   */\n  dup3\n  shl\n    /* \"#utility.yul\":5311:5316   */\n  jump(tag_86)\n    /* \"#utility.yul\":5064:5326   */\ntag_89:\n  pop\n    /* \"#utility.yul\":5410:5412   */\n  0x20\n    /* \"#utility.yul\":5400:5408   */\n  dup4\n    /* \"#utility.yul\":5397:5413   */\n  lt\n    /* \"#utility.yul\":5391:5394   */\n  0x0133\n    /* \"#utility.yul\":5385:5389   */\n  dup4\n    /* \"#utility.yul\":5382:5395   */\n  lt\n    /* \"#utility.yul\":5378:5414   */\n  and\n    /* \"#utility.yul\":5372:5374   */\n  0x4e\n    /* \"#utility.yul\":5362:5370   */\n  dup5\n    /* \"#utility.yul\":5359:5375   */\n  lt\n    /* \"#utility.yul\":5354:5356   */\n  0x0b\n    /* \"#utility.yul\":5348:5352   */\n  dup5\n    /* \"#utility.yul\":5345:5357   */\n  lt\n    /* \"#utility.yul\":5341:5376   */\n  and\n    /* \"#utility.yul\":5338:5415   */\n  or\n    /* \"#utility.yul\":5335:5538   */\n  iszero\n  tag_94\n  jumpi\n  pop\n    /* \"#utility.yul\":5447:5466   */\n  dup2\n  dup2\n  exp\n    /* \"#utility.yul\":5523:5528   */\n  jump(tag_86)\n    /* \"#utility.yul\":5335:5538   */\ntag_94:\n    /* \"#utility.yul\":5570:5612   */\n  tag_95\n  not(0x00)\n    /* \"#utility.yul\":5595:5603   */\n  dup5\n    /* \"#utility.yul\":5589:5593   */\n  dup5\n    /* \"#utility.yul\":5570:5612   */\n  tag_37\n  jump\t// in\ntag_95:\n    /* \"#utility.yul\":5648:5654   */\n  dup1\n    /* \"#utility.yul\":5644:5645   */\n  0x00\n    /* \"#utility.yul\":5640:5646   */\n  not\n    /* \"#utility.yul\":5636:5655   */\n  div\n    /* \"#utility.yul\":5627:5634   */\n  dup3\n    /* \"#utility.yul\":5624:5656   */\n  gt\n    /* \"#utility.yul\":5621:5679   */\n  iszero\n  tag_97\n  jumpi\n    /* \"#utility.yul\":5659:5677   */\n  tag_97\n  tag_36\n  jump\t// in\ntag_97:\n    /* \"#utility.yul\":5697:5717   */\n  mul\n  swap1\n  pop\n    /* \"#utility.yul\":4821:5723   */\ntag_86:\n  swap3\n  swap2\n  pop\n  pop\n  jump\t// out\n    /* \"#utility.yul\":5728:5859   */\ntag_17:\n    /* \"#utility.yul\":5788:5793   */\n  0x00\n    /* \"#utility.yul\":5817:5853   */\n  tag_99\n    /* \"#utility.yul\":5844:5852   */\n  dup4\n    /* \"#utility.yul\":5838:5842   */\n  dup4\n    /* \"#utility.yul\":5817:5853   */\n  tag_38\n  jump\t// in\ntag_99:\n    /* \"#utility.yul\":5808:5853   */\n  swap4\n    /* \"#utility.yul\":5728:5859   */\n  swap3\n  pop\n  pop\n  pop\n  jump\t// out\n    /* \"#utility.yul\":5864:6032   */\ntag_19:\n    /* \"#utility.yul\":5937:5946   */\n  dup1\n  dup3\n  mul\n    /* \"#utility.yul\":5968:5977   */\n  dup2\n  iszero\n    /* \"#utility.yul\":5985:6000   */\n  dup3\n  dup3\n  div\n    /* \"#utility.yul\":5979:6001   */\n  dup5\n  eq\n    /* \"#utility.yul\":5965:6002   */\n  or\n    /* \"#utility.yul\":5955:6026   */\n  tag_86\n  jumpi\n    /* \"#utility.yul\":6006:6024   */\n  tag_86\n  tag_36\n  jump\t// in\n    /* \"#utility.yul\":6390:6515   */\ntag_27:\n    /* \"#utility.yul\":6455:6464   */\n  dup1\n  dup3\n  add\n    /* \"#utility.yul\":6476:6486   */\n  dup1\n  dup3\n  gt\n    /* \"#utility.yul\":6473:6509   */\n  iszero\n  tag_86\n  jumpi\n    /* \"#utility.yul\":6489:6507   */\n  tag_86\n  tag_36\n  jump\t// in\n    /* \"#utility.yul\":6520:6697   */\ntag_39:\n    /* \"contracts/BOG.sol\":1766:8467  contract Token is IBEP20, Ownable {... */\n  dataSize(sub_0)\n  dup1\n  dataOffset(sub_0)\n  0x00\n  codecopy\n  0x00\n  return\nstop\n\nsub_0: assembly {\n        /* \"contracts/BOG.sol\":1766:8467  contract Token is IBEP20, Ownable {... */\n      mstore(0x40, 0x80)\n      callvalue\n      dup1\n      iszero\n      tag_1\n      jumpi\n      revert(0x00, 0x00)\n    tag_1:\n      pop\n      jumpi(tag_2, lt(calldatasize, 0x04))\n      shr(0xe0, calldataload(0x00))\n      dup1\n      0x8da5cb5b\n      gt\n      tag_27\n      jumpi\n      dup1\n      0xd03a4045\n      gt\n      tag_28\n      jumpi\n      dup1\n      0xd03a4045\n      eq\n      tag_21\n      jumpi\n      dup1\n      0xd41edb7b\n      eq\n      tag_22\n      jumpi\n      dup1\n      0xd505accf\n      eq\n      tag_23\n      jumpi\n      dup1\n      0xdd62ed3e\n      eq\n      tag_24\n      jumpi\n      dup1\n      0xee7d72b4\n      eq\n      tag_25\n      jumpi\n      dup1\n      0xf2fde38b\n      eq\n      tag_26\n      jumpi\n      revert(0x00, 0x00)\n    tag_28:\n      dup1\n      0x8da5cb5b\n      eq\n      tag_15\n      jumpi\n      dup1\n      0x8e15f473\n      eq\n      tag_16\n      jumpi\n      dup1\n      0x95d89b41\n      eq\n      tag_17\n      jumpi\n      dup1\n      0xa0712d68\n      eq\n      tag_18\n      jumpi\n      dup1\n      0xa457c2d7\n      eq\n      tag_19\n      jumpi\n      dup1\n      0xa9059cbb\n      eq\n      tag_20\n      jumpi\n      revert(0x00, 0x00)\n    tag_27:\n      dup1\n      0x3644e515\n      gt\n      tag_29\n      jumpi\n      dup1\n      0x3644e515\n      eq\n      tag_9\n      jumpi\n      dup1\n      0x39509351\n      eq\n      tag_10\n      jumpi\n      dup1\n      0x42966c68\n      eq\n      tag_11\n      jumpi\n      dup1\n      0x70a08231\n      eq\n      tag_12\n      jumpi\n      dup1\n      0x785946f4\n      eq\n      tag_13\n      jumpi\n      dup1\n      0x7ecebe00\n      eq\n      tag_14\n      jumpi\n      revert(0x00, 0x00)\n    tag_29:\n      dup1\n      0x06fdde03\n      eq\n      tag_3\n      jumpi\n      dup1\n      0x095ea7b3\n      eq\n      tag_4\n      jumpi\n      dup1\n      0x18160ddd\n      eq\n      tag_5\n      jumpi\n      dup1\n      0x23b872dd\n      eq\n      tag_6\n      jumpi\n      dup1\n      0x30adf81f\n      eq\n      tag_7\n      jumpi\n      dup1\n      0x313ce567\n      eq\n      tag_8\n      jumpi\n    tag_2:\n      revert(0x00, 0x00)\n        /* \"contracts/BOG.sol\":1839:1865  string public name = \"BOG\" */\n    tag_3:\n      tag_30\n      tag_31\n      jump\t// in\n    tag_30:\n      mload(0x40)\n      tag_32\n      swap2\n      swap1\n      tag_33\n      jump\t// in\n    tag_32:\n      mload(0x40)\n      dup1\n      swap2\n      sub\n      swap1\n      return\n        /* \"contracts/BOG.sol\":3718:3892  function approve(address spender, uint256 amount) public override returns (bool) {... */\n    tag_4:\n      tag_34\n      tag_35\n      calldatasize\n      0x04\n      tag_36\n      jump\t// in\n    tag_35:\n      tag_37\n      jump\t// in\n    tag_34:\n      mload(0x40)\n        /* \"#utility.yul\":1085:1099   */\n      swap1\n      iszero\n        /* \"#utility.yul\":1078:1100   */\n      iszero\n        /* \"#utility.yul\":1060:1101   */\n      dup2\n      mstore\n        /* \"#utility.yul\":1048:1050   */\n      0x20\n        /* \"#utility.yul\":1033:1051   */\n      add\n        /* \"contracts/BOG.sol\":3718:3892  function approve(address spender, uint256 amount) public override returns (bool) {... */\n      tag_32\n        /* \"#utility.yul\":920:1107   */\n      jump\n        /* \"contracts/BOG.sol\":3102:3216  function totalSupply() public view override returns (uint256) {... */\n    tag_5:\n        /* \"contracts/BOG.sol\":3182:3194  _totalSupply */\n      sload(0x04)\n        /* \"contracts/BOG.sol\":3102:3216  function totalSupply() public view override returns (uint256) {... */\n    tag_40:\n      mload(0x40)\n        /* \"#utility.yul\":1258:1283   */\n      swap1\n      dup2\n      mstore\n        /* \"#utility.yul\":1246:1248   */\n      0x20\n        /* \"#utility.yul\":1231:1249   */\n      add\n        /* \"contracts/BOG.sol\":3102:3216  function totalSupply() public view override returns (uint256) {... */\n      tag_32\n        /* \"#utility.yul\":1112:1289   */\n      jump\n        /* \"contracts/BOG.sol\":3900:4192  function transferFrom(address sender, address recipient, uint256 amount) public override returns (bool) {... */\n    tag_6:\n      tag_34\n      tag_45\n      calldatasize\n      0x04\n      tag_46\n      jump\t// in\n    tag_45:\n      tag_47\n      jump\t// in\n        /* \"contracts/BOG.sol\":2314:2451  bytes32 public constant PERMIT_TYPEHASH = keccak256(\"Permit(address owner,address spender,uint256 value,uint256 nonce,uint256 deadline)\") */\n    tag_7:\n      tag_40\n        /* \"contracts/BOG.sol\":2356:2451  keccak256(\"Permit(address owner,address spender,uint256 value,uint256 nonce,uint256 deadline)\") */\n      0x6e71edae12b1b97f4d1f60370fef10105fa2faae0126114a169c64845d6126c9\n        /* \"contracts/BOG.sol\":2314:2451  bytes32 public constant PERMIT_TYPEHASH = keccak256(\"Permit(address owner,address spender,uint256 value,uint256 nonce,uint256 deadline)\") */\n      dup2\n      jump\n        /* \"contracts/BOG.sol\":1907:1933  uint8 public decimals = 18 */\n    tag_8:\n      sload(0x03)\n      tag_53\n      swap1\n      0xff\n      and\n      dup2\n      jump\n    tag_53:\n      mload(0x40)\n        /* \"#utility.yul\":2027:2031   */\n      0xff\n        /* \"#utility.yul\":2015:2032   */\n      swap1\n      swap2\n      and\n        /* \"#utility.yul\":1997:2033   */\n      dup2\n      mstore\n        /* \"#utility.yul\":1985:1987   */\n      0x20\n        /* \"#utility.yul\":1970:1988   */\n      add\n        /* \"contracts/BOG.sol\":1907:1933  uint8 public decimals = 18 */\n      tag_32\n        /* \"#utility.yul\":1855:2039   */\n      jump\n        /* \"contracts/BOG.sol\":2458:2489  bytes32 public DOMAIN_SEPARATOR */\n    tag_9:\n      tag_40\n      sload(0x0a)\n      dup2\n      jump\n        /* \"contracts/BOG.sol\":5057:5275  function increaseAllowance(address spender, uint256 addedValue) public returns (bool) {... */\n    tag_10:\n      tag_34\n      tag_61\n      calldatasize\n      0x04\n      tag_36\n      jump\t// in\n    tag_61:\n      tag_62\n      jump\t// in\n        /* \"contracts/BOG.sol\":5971:6067  function burn(uint256 amount) public {... */\n    tag_11:\n      tag_64\n      tag_65\n      calldatasize\n      0x04\n      tag_66\n      jump\t// in\n    tag_65:\n      tag_67\n      jump\t// in\n    tag_64:\n      stop\n        /* \"contracts/BOG.sol\":3224:3357  function balanceOf(address account) public view override returns (uint256) {... */\n    tag_12:\n      tag_40\n      tag_69\n      calldatasize\n      0x04\n      tag_70\n      jump\t// in\n    tag_69:\n      sub(shl(0xa0, 0x01), 0x01)\n        /* \"contracts/BOG.sol\":3317:3335  _balances[account] */\n      and\n        /* \"contracts/BOG.sol\":3290:3297  uint256 */\n      0x00\n        /* \"contracts/BOG.sol\":3317:3335  _balances[account] */\n      swap1\n      dup2\n      mstore\n        /* \"contracts/BOG.sol\":3317:3326  _balances */\n      0x07\n        /* \"contracts/BOG.sol\":3317:3335  _balances[account] */\n      0x20\n      mstore\n      0x40\n      swap1\n      keccak256\n      sload\n      swap1\n        /* \"contracts/BOG.sol\":3224:3357  function balanceOf(address account) public view override returns (uint256) {... */\n      jump\n        /* \"contracts/BOG.sol\":5676:5849  function mintDaily() public onlyOwner {... */\n    tag_13:\n      tag_64\n      tag_74\n      jump\t// in\n        /* \"contracts/BOG.sol\":2266:2307  mapping(address => uint256) public nonces */\n    tag_14:\n      tag_40\n      tag_76\n      calldatasize\n      0x04\n      tag_70\n      jump\t// in\n    tag_76:\n      mstore(0x20, 0x09)\n      0x00\n      swap1\n      dup2\n      mstore\n      0x40\n      swap1\n      keccak256\n      sload\n      dup2\n      jump\n        /* \"contracts/BOG.sol\":639:718  function owner() public view returns (address) {... */\n    tag_15:\n        /* \"contracts/BOG.sol\":677:684  address */\n      0x00\n        /* \"contracts/BOG.sol\":704:710  _owner */\n      sload\n        /* \"contracts/BOG.sol\":639:718  function owner() public view returns (address) {... */\n      mload(0x40)\n      sub(shl(0xa0, 0x01), 0x01)\n        /* \"contracts/BOG.sol\":704:710  _owner */\n      swap1\n      swap2\n      and\n        /* \"#utility.yul\":2612:2663   */\n      dup2\n      mstore\n        /* \"#utility.yul\":2600:2602   */\n      0x20\n        /* \"#utility.yul\":2585:2603   */\n      add\n        /* \"contracts/BOG.sol\":639:718  function owner() public view returns (address) {... */\n      tag_32\n        /* \"#utility.yul\":2466:2669   */\n      jump\n        /* \"contracts/BOG.sol\":7822:8042  function getLatestPrice() public view returns (int) {... */\n    tag_16:\n      tag_40\n      tag_84\n      jump\t// in\n        /* \"contracts/BOG.sol\":1872:1900  string public symbol = \"BOG\" */\n    tag_17:\n      tag_30\n      tag_88\n      jump\t// in\n        /* \"contracts/BOG.sol\":5857:5963  function mint(uint256 amount) public onlyOwner {... */\n    tag_18:\n      tag_64\n      tag_91\n      calldatasize\n      0x04\n      tag_66\n      jump\t// in\n    tag_91:\n      tag_92\n      jump\t// in\n        /* \"contracts/BOG.sol\":5283:5668  function decreaseAllowance(address spender, uint256 subtractedValue) public returns (bool) {... */\n    tag_19:\n      tag_34\n      tag_94\n      calldatasize\n      0x04\n      tag_36\n      jump\t// in\n    tag_94:\n      tag_95\n      jump\t// in\n        /* \"contracts/BOG.sol\":3365:3545  function transfer(address recipient, uint256 amount) public override returns (bool) {... */\n    tag_20:\n      tag_34\n      tag_98\n      calldatasize\n      0x04\n      tag_36\n      jump\t// in\n    tag_98:\n      tag_99\n      jump\t// in\n        /* \"contracts/BOG.sol\":8050:8172  function setPriceInUSD(uint256 newPriceInUSD) public onlyOwner {... */\n    tag_21:\n      tag_64\n      tag_102\n      calldatasize\n      0x04\n      tag_66\n      jump\t// in\n    tag_102:\n      tag_103\n      jump\t// in\n        /* \"contracts/BOG.sol\":1975:2018  uint256 public priceInUSD = 0.01 * 10 ** 18 */\n    tag_22:\n      tag_40\n      sload(0x05)\n      dup2\n      jump\n        /* \"contracts/BOG.sol\":4200:5049  function permit(... */\n    tag_23:\n      tag_64\n      tag_108\n      calldatasize\n      0x04\n      tag_109\n      jump\t// in\n    tag_108:\n      tag_110\n      jump\t// in\n        /* \"contracts/BOG.sol\":3553:3710  function allowance(address owner, address spender) public view override returns (uint256) {... */\n    tag_24:\n      tag_40\n      tag_112\n      calldatasize\n      0x04\n      tag_113\n      jump\t// in\n    tag_112:\n      sub(shl(0xa0, 0x01), 0x01)\n        /* \"contracts/BOG.sol\":3661:3679  _allowances[owner] */\n      swap2\n      dup3\n      and\n        /* \"contracts/BOG.sol\":3634:3641  uint256 */\n      0x00\n        /* \"contracts/BOG.sol\":3661:3679  _allowances[owner] */\n      swap1\n      dup2\n      mstore\n        /* \"contracts/BOG.sol\":3661:3672  _allowances */\n      0x08\n        /* \"contracts/BOG.sol\":3661:3679  _allowances[owner] */\n      0x20\n      swap1\n      dup2\n      mstore\n      0x40\n      dup1\n      dup4\n      keccak256\n        /* \"contracts/BOG.sol\":3661:3688  _allowances[owner][spender] */\n      swap4\n      swap1\n      swap5\n      and\n      dup3\n      mstore\n      swap2\n      swap1\n      swap2\n      mstore\n      keccak256\n      sload\n      swap1\n        /* \"contracts/BOG.sol\":3553:3710  function allowance(address owner, address spender) public view override returns (uint256) {... */\n      jump\n        /* \"contracts/BOG.sol\":8244:8464  function setGasLimit(uint256 gasLimit) view  public onlyOwner {... */\n    tag_25:\n      tag_64\n      tag_117\n      calldatasize\n      0x04\n      tag_66\n      jump\t// in\n    tag_117:\n      tag_118\n      jump\t// in\n        /* \"contracts/BOG.sol\":726:953  function transferOwnership(address newOwner) public onlyOwner {... */\n    tag_26:\n      tag_64\n      tag_120\n      calldatasize\n      0x04\n      tag_70\n      jump\t// in\n    tag_120:\n      tag_121\n      jump\t// in\n        /* \"contracts/BOG.sol\":1839:1865  string public name = \"BOG\" */\n    tag_31:\n      0x01\n      dup1\n      sload\n      tag_122\n      swap1\n      tag_123\n      jump\t// in\n    tag_122:\n      dup1\n      0x1f\n      add\n      0x20\n      dup1\n      swap2\n      div\n      mul\n      0x20\n      add\n      mload(0x40)\n      swap1\n      dup2\n      add\n      0x40\n      mstore\n      dup1\n      swap3\n      swap2\n      swap1\n      dup2\n      dup2\n      mstore\n      0x20\n      add\n      dup3\n      dup1\n      sload\n      tag_124\n      swap1\n      tag_123\n      jump\t// in\n    tag_124:\n      dup1\n      iszero\n      tag_125\n      jumpi\n      dup1\n      0x1f\n      lt\n      tag_126\n      jumpi\n      0x0100\n      dup1\n      dup4\n      sload\n      div\n      mul\n      dup4\n      mstore\n      swap2\n      0x20\n      add\n      swap2\n      jump(tag_125)\n    tag_126:\n      dup3\n      add\n      swap2\n      swap1\n      0x00\n      mstore\n      keccak256(0x00, 0x20)\n      swap1\n    tag_127:\n      dup2\n      sload\n      dup2\n      mstore\n      swap1\n      0x01\n      add\n      swap1\n      0x20\n      add\n      dup1\n      dup4\n      gt\n      tag_127\n      jumpi\n      dup3\n      swap1\n      sub\n      0x1f\n      and\n      dup3\n      add\n      swap2\n    tag_125:\n      pop\n      pop\n      pop\n      pop\n      pop\n      dup2\n      jump\t// out\n        /* \"contracts/BOG.sol\":3718:3892  function approve(address spender, uint256 amount) public override returns (bool) {... */\n    tag_37:\n        /* \"contracts/BOG.sol\":3793:3797  bool */\n      0x00\n        /* \"contracts/BOG.sol\":3810:3847  _approve(msg.sender, spender, amount) */\n      tag_129\n        /* \"contracts/BOG.sol\":3819:3829  msg.sender */\n      caller\n        /* \"contracts/BOG.sol\":3831:3838  spender */\n      dup5\n        /* \"contracts/BOG.sol\":3840:3846  amount */\n      dup5\n        /* \"contracts/BOG.sol\":3810:3818  _approve */\n      tag_130\n        /* \"contracts/BOG.sol\":3810:3847  _approve(msg.sender, spender, amount) */\n      jump\t// in\n    tag_129:\n      pop\n        /* \"contracts/BOG.sol\":3880:3884  true */\n      0x01\n        /* \"contracts/BOG.sol\":3718:3892  function approve(address spender, uint256 amount) public override returns (bool) {... */\n    tag_128:\n      swap3\n      swap2\n      pop\n      pop\n      jump\t// out\n        /* \"contracts/BOG.sol\":3900:4192  function transferFrom(address sender, address recipient, uint256 amount) public override returns (bool) {... */\n    tag_47:\n        /* \"contracts/BOG.sol\":3998:4002  bool */\n      0x00\n        /* \"contracts/BOG.sol\":4015:4051  _transfer(sender, recipient, amount) */\n      tag_133\n        /* \"contracts/BOG.sol\":4025:4031  sender */\n      dup5\n        /* \"contracts/BOG.sol\":4033:4042  recipient */\n      dup5\n        /* \"contracts/BOG.sol\":4044:4050  amount */\n      dup5\n        /* \"contracts/BOG.sol\":4015:4024  _transfer */\n      tag_134\n        /* \"contracts/BOG.sol\":4015:4051  _transfer(sender, recipient, amount) */\n      jump\t// in\n    tag_133:\n      sub(shl(0xa0, 0x01), 0x01)\n        /* \"contracts/BOG.sol\":4106:4125  _allowances[sender] */\n      dup5\n      and\n      0x00\n      swap1\n      dup2\n      mstore\n        /* \"contracts/BOG.sol\":4106:4117  _allowances */\n      0x08\n        /* \"contracts/BOG.sol\":4106:4125  _allowances[sender] */\n      0x20\n      swap1\n      dup2\n      mstore\n      0x40\n      dup1\n      dup4\n      keccak256\n        /* \"contracts/BOG.sol\":4094:4104  msg.sender */\n      caller\n        /* \"contracts/BOG.sol\":4106:4137  _allowances[sender][msg.sender] */\n      dup1\n      dup6\n      mstore\n      swap3\n      mstore\n      swap1\n      swap2\n      keccak256\n      sload\n        /* \"contracts/BOG.sol\":4077:4147  _approve(sender, msg.sender, _allowances[sender][msg.sender] - amount) */\n      tag_135\n      swap2\n        /* \"contracts/BOG.sol\":4086:4092  sender */\n      dup7\n      swap2\n        /* \"contracts/BOG.sol\":4106:4146  _allowances[sender][msg.sender] - amount */\n      tag_136\n      swap1\n        /* \"contracts/BOG.sol\":4140:4146  amount */\n      dup7\n      swap1\n        /* \"contracts/BOG.sol\":4106:4146  _allowances[sender][msg.sender] - amount */\n      tag_137\n      jump\t// in\n    tag_136:\n        /* \"contracts/BOG.sol\":4077:4085  _approve */\n      tag_130\n        /* \"contracts/BOG.sol\":4077:4147  _approve(sender, msg.sender, _allowances[sender][msg.sender] - amount) */\n      jump\t// in\n    tag_135:\n      pop\n        /* \"contracts/BOG.sol\":4180:4184  true */\n      0x01\n        /* \"contracts/BOG.sol\":3900:4192  function transferFrom(address sender, address recipient, uint256 amount) public override returns (bool) {... */\n      swap4\n      swap3\n      pop\n      pop\n      pop\n      jump\t// out\n        /* \"contracts/BOG.sol\":5057:5275  function increaseAllowance(address spender, uint256 addedValue) public returns (bool) {... */\n    tag_62:\n        /* \"contracts/BOG.sol\":5163:5173  msg.sender */\n      caller\n        /* \"contracts/BOG.sol\":5137:5141  bool */\n      0x00\n        /* \"contracts/BOG.sol\":5184:5207  _allowances[msg.sender] */\n      dup2\n      dup2\n      mstore\n        /* \"contracts/BOG.sol\":5184:5195  _allowances */\n      0x08\n        /* \"contracts/BOG.sol\":5184:5207  _allowances[msg.sender] */\n      0x20\n      swap1\n      dup2\n      mstore\n      0x40\n      dup1\n      dup4\n      keccak256\n      sub(shl(0xa0, 0x01), 0x01)\n        /* \"contracts/BOG.sol\":5184:5216  _allowances[msg.sender][spender] */\n      dup8\n      and\n      dup5\n      mstore\n      swap1\n      swap2\n      mstore\n      dup2\n      keccak256\n      sload\n        /* \"contracts/BOG.sol\":5137:5141  bool */\n      swap1\n      swap2\n        /* \"contracts/BOG.sol\":5154:5230  _approve(msg.sender, spender, _allowances[msg.sender][spender] + addedValue) */\n      tag_129\n      swap2\n        /* \"contracts/BOG.sol\":5175:5182  spender */\n      dup6\n      swap1\n        /* \"contracts/BOG.sol\":5184:5229  _allowances[msg.sender][spender] + addedValue */\n      tag_136\n      swap1\n        /* \"contracts/BOG.sol\":5219:5229  addedValue */\n      dup7\n      swap1\n        /* \"contracts/BOG.sol\":5184:5229  _allowances[msg.sender][spender] + addedValue */\n      tag_141\n      jump\t// in\n        /* \"contracts/BOG.sol\":5971:6067  function burn(uint256 amount) public {... */\n    tag_67:\n        /* \"contracts/BOG.sol\":6019:6044  _burn(msg.sender, amount) */\n      tag_143\n        /* \"contracts/BOG.sol\":6025:6035  msg.sender */\n      caller\n        /* \"contracts/BOG.sol\":6037:6043  amount */\n      dup3\n        /* \"contracts/BOG.sol\":6019:6024  _burn */\n      tag_144\n        /* \"contracts/BOG.sol\":6019:6044  _burn(msg.sender, amount) */\n      jump\t// in\n    tag_143:\n        /* \"contracts/BOG.sol\":5971:6067  function burn(uint256 amount) public {... */\n      pop\n      jump\t// out\n        /* \"contracts/BOG.sol\":5676:5849  function mintDaily() public onlyOwner {... */\n    tag_74:\n        /* \"contracts/BOG.sol\":577:583  _owner */\n      and(sub(shl(0xa0, 0x01), 0x01), sload(0x00))\n        /* \"contracts/BOG.sol\":563:573  msg.sender */\n      caller\n        /* \"contracts/BOG.sol\":563:583  msg.sender == _owner */\n      eq\n        /* \"contracts/BOG.sol\":555:611  require(msg.sender == _owner, \"Caller is not the owner\") */\n      tag_147\n      jumpi\n      mload(0x40)\n      shl(0xe5, 0x461bcd)\n      dup2\n      mstore\n      0x04\n      add\n      tag_148\n      swap1\n      tag_149\n      jump\t// in\n    tag_148:\n      mload(0x40)\n      dup1\n      swap2\n      sub\n      swap1\n      revert\n    tag_147:\n        /* \"contracts/BOG.sol\":5772:5780  decimals */\n      sload(0x03)\n        /* \"contracts/BOG.sol\":5725:5748  uint256 dailyMintAmount */\n      0x00\n      swap1\n        /* \"contracts/BOG.sol\":5758:5781  10 ** uint256(decimals) */\n      tag_151\n      swap1\n        /* \"contracts/BOG.sol\":5772:5780  decimals */\n      0xff\n      and\n        /* \"contracts/BOG.sol\":5758:5760  10 */\n      0x0a\n        /* \"contracts/BOG.sol\":5758:5781  10 ** uint256(decimals) */\n      tag_152\n      jump\t// in\n    tag_151:\n        /* \"contracts/BOG.sol\":5751:5781  3000 * 10 ** uint256(decimals) */\n      tag_153\n      swap1\n        /* \"contracts/BOG.sol\":5751:5755  3000 */\n      0x0bb8\n        /* \"contracts/BOG.sol\":5751:5781  3000 * 10 ** uint256(decimals) */\n      tag_154\n      jump\t// in\n    tag_153:\n        /* \"contracts/BOG.sol\":5725:5781  uint256 dailyMintAmount = 3000 * 10 ** uint256(decimals) */\n      swap1\n      pop\n        /* \"contracts/BOG.sol\":5792:5826  _mint(msg.sender, dailyMintAmount) */\n      tag_143\n        /* \"contracts/BOG.sol\":5798:5808  msg.sender */\n      caller\n        /* \"contracts/BOG.sol\":5810:5825  dailyMintAmount */\n      dup3\n        /* \"contracts/BOG.sol\":5792:5797  _mint */\n      tag_156\n        /* \"contracts/BOG.sol\":5792:5826  _mint(msg.sender, dailyMintAmount) */\n      jump\t// in\n        /* \"contracts/BOG.sol\":7822:8042  function getLatestPrice() public view returns (int) {... */\n    tag_84:\n        /* \"contracts/BOG.sol\":7869:7872  int */\n      0x00\n        /* \"contracts/BOG.sol\":7916:7925  int price */\n      0x00\n        /* \"contracts/BOG.sol\":7970:7979  priceFeed */\n      0x06\n      0x00\n      swap1\n      sload\n      swap1\n      0x0100\n      exp\n      swap1\n      div\n      sub(shl(0xa0, 0x01), 0x01)\n      and\n      sub(shl(0xa0, 0x01), 0x01)\n        /* \"contracts/BOG.sol\":7970:7995  priceFeed.latestRoundData */\n      and\n      0xfeaf968c\n        /* \"contracts/BOG.sol\":7970:7997  priceFeed.latestRoundData() */\n      mload(0x40)\n      dup2\n      0xffffffff\n      and\n      0xe0\n      shl\n      dup2\n      mstore\n      0x04\n      add\n      0xa0\n      mload(0x40)\n      dup1\n      dup4\n      sub\n      dup2\n      dup7\n      gas\n      staticcall\n      iszero\n      dup1\n      iszero\n      tag_160\n      jumpi\n      returndatacopy(0x00, 0x00, returndatasize)\n      revert(0x00, returndatasize)\n    tag_160:\n      pop\n      pop\n      pop\n      pop\n      mload(0x40)\n      returndatasize\n      not(0x1f)\n      0x1f\n      dup3\n      add\n      and\n      dup3\n      add\n      dup1\n      0x40\n      mstore\n      pop\n      dup2\n      add\n      swap1\n      tag_161\n      swap2\n      swap1\n      tag_162\n      jump\t// in\n    tag_161:\n      pop\n        /* \"contracts/BOG.sol\":7885:7997  (... */\n      swap2\n      swap6\n        /* \"contracts/BOG.sol\":7822:8042  function getLatestPrice() public view returns (int) {... */\n      swap5\n      pop\n      pop\n      pop\n      pop\n      pop\n      jump\t// out\n        /* \"contracts/BOG.sol\":1872:1900  string public symbol = \"BOG\" */\n    tag_88:\n      0x02\n      dup1\n      sload\n      tag_122\n      swap1\n      tag_123\n      jump\t// in\n        /* \"contracts/BOG.sol\":5857:5963  function mint(uint256 amount) public onlyOwner {... */\n    tag_92:\n        /* \"contracts/BOG.sol\":577:583  _owner */\n      and(sub(shl(0xa0, 0x01), 0x01), sload(0x00))\n        /* \"contracts/BOG.sol\":563:573  msg.sender */\n      caller\n        /* \"contracts/BOG.sol\":563:583  msg.sender == _owner */\n      eq\n        /* \"contracts/BOG.sol\":555:611  require(msg.sender == _owner, \"Caller is not the owner\") */\n      tag_169\n      jumpi\n      mload(0x40)\n      shl(0xe5, 0x461bcd)\n      dup2\n      mstore\n      0x04\n      add\n      tag_148\n      swap1\n      tag_149\n      jump\t// in\n    tag_169:\n        /* \"contracts/BOG.sol\":5915:5940  _mint(msg.sender, amount) */\n      tag_143\n        /* \"contracts/BOG.sol\":5921:5931  msg.sender */\n      caller\n        /* \"contracts/BOG.sol\":5933:5939  amount */\n      dup3\n        /* \"contracts/BOG.sol\":5915:5920  _mint */\n      tag_156\n        /* \"contracts/BOG.sol\":5915:5940  _mint(msg.sender, amount) */\n      jump\t// in\n        /* \"contracts/BOG.sol\":5283:5668  function decreaseAllowance(address spender, uint256 subtractedValue) public returns (bool) {... */\n    tag_95:\n        /* \"contracts/BOG.sol\":5424:5434  msg.sender */\n      caller\n        /* \"contracts/BOG.sol\":5368:5372  bool */\n      0x00\n        /* \"contracts/BOG.sol\":5412:5435  _allowances[msg.sender] */\n      swap1\n      dup2\n      mstore\n        /* \"contracts/BOG.sol\":5412:5423  _allowances */\n      0x08\n        /* \"contracts/BOG.sol\":5412:5435  _allowances[msg.sender] */\n      0x20\n      swap1\n      dup2\n      mstore\n      0x40\n      dup1\n      dup4\n      keccak256\n      sub(shl(0xa0, 0x01), 0x01)\n        /* \"contracts/BOG.sol\":5412:5444  _allowances[msg.sender][spender] */\n      dup7\n      and\n      dup5\n      mstore\n      swap1\n      swap2\n      mstore\n      dup2\n      keccak256\n      sload\n        /* \"contracts/BOG.sol\":5463:5498  currentAllowance >= subtractedValue */\n      dup3\n      dup2\n      lt\n      iszero\n        /* \"contracts/BOG.sol\":5455:5533  require(currentAllowance >= subtractedValue, \"Decreased allowance below zero\") */\n      tag_174\n      jumpi\n      mload(0x40)\n      shl(0xe5, 0x461bcd)\n      dup2\n      mstore\n        /* \"#utility.yul\":7717:7719   */\n      0x20\n        /* \"contracts/BOG.sol\":5455:5533  require(currentAllowance >= subtractedValue, \"Decreased allowance below zero\") */\n      0x04\n      dup3\n      add\n        /* \"#utility.yul\":7699:7720   */\n      mstore\n        /* \"#utility.yul\":7756:7758   */\n      0x1e\n        /* \"#utility.yul\":7736:7754   */\n      0x24\n      dup3\n      add\n        /* \"#utility.yul\":7729:7759   */\n      mstore\n        /* \"#utility.yul\":7795:7827   */\n      0x44656372656173656420616c6c6f77616e63652062656c6f77207a65726f0000\n        /* \"#utility.yul\":7775:7793   */\n      0x44\n      dup3\n      add\n        /* \"#utility.yul\":7768:7828   */\n      mstore\n        /* \"#utility.yul\":7845:7863   */\n      0x64\n      add\n        /* \"contracts/BOG.sol\":5455:5533  require(currentAllowance >= subtractedValue, \"Decreased allowance below zero\") */\n      tag_148\n        /* \"#utility.yul\":7515:7869   */\n      jump\n        /* \"contracts/BOG.sol\":5455:5533  require(currentAllowance >= subtractedValue, \"Decreased allowance below zero\") */\n    tag_174:\n        /* \"contracts/BOG.sol\":5558:5623  _approve(msg.sender, spender, currentAllowance - subtractedValue) */\n      tag_135\n        /* \"contracts/BOG.sol\":5567:5577  msg.sender */\n      caller\n        /* \"contracts/BOG.sol\":5579:5586  spender */\n      dup6\n        /* \"contracts/BOG.sol\":5588:5622  currentAllowance - subtractedValue */\n      tag_136\n        /* \"contracts/BOG.sol\":5607:5622  subtractedValue */\n      dup7\n        /* \"contracts/BOG.sol\":5588:5604  currentAllowance */\n      dup6\n        /* \"contracts/BOG.sol\":5588:5622  currentAllowance - subtractedValue */\n      tag_137\n      jump\t// in\n        /* \"contracts/BOG.sol\":3365:3545  function transfer(address recipient, uint256 amount) public override returns (bool) {... */\n    tag_99:\n        /* \"contracts/BOG.sol\":3443:3447  bool */\n      0x00\n        /* \"contracts/BOG.sol\":3460:3500  _transfer(msg.sender, recipient, amount) */\n      tag_129\n        /* \"contracts/BOG.sol\":3470:3480  msg.sender */\n      caller\n        /* \"contracts/BOG.sol\":3482:3491  recipient */\n      dup5\n        /* \"contracts/BOG.sol\":3493:3499  amount */\n      dup5\n        /* \"contracts/BOG.sol\":3460:3469  _transfer */\n      tag_134\n        /* \"contracts/BOG.sol\":3460:3500  _transfer(msg.sender, recipient, amount) */\n      jump\t// in\n        /* \"contracts/BOG.sol\":8050:8172  function setPriceInUSD(uint256 newPriceInUSD) public onlyOwner {... */\n    tag_103:\n        /* \"contracts/BOG.sol\":577:583  _owner */\n      and(sub(shl(0xa0, 0x01), 0x01), sload(0x00))\n        /* \"contracts/BOG.sol\":563:573  msg.sender */\n      caller\n        /* \"contracts/BOG.sol\":563:583  msg.sender == _owner */\n      eq\n        /* \"contracts/BOG.sol\":555:611  require(msg.sender == _owner, \"Caller is not the owner\") */\n      tag_182\n      jumpi\n      mload(0x40)\n      shl(0xe5, 0x461bcd)\n      dup2\n      mstore\n      0x04\n      add\n      tag_148\n      swap1\n      tag_149\n      jump\t// in\n    tag_182:\n        /* \"contracts/BOG.sol\":8124:8134  priceInUSD */\n      0x05\n        /* \"contracts/BOG.sol\":8124:8150  priceInUSD = newPriceInUSD */\n      sstore\n        /* \"contracts/BOG.sol\":8050:8172  function setPriceInUSD(uint256 newPriceInUSD) public onlyOwner {... */\n      jump\t// out\n        /* \"contracts/BOG.sol\":4200:5049  function permit(... */\n    tag_110:\n        /* \"contracts/BOG.sol\":4431:4446  block.timestamp */\n      timestamp\n        /* \"contracts/BOG.sol\":4419:4427  deadline */\n      dup5\n        /* \"contracts/BOG.sol\":4419:4446  deadline >= block.timestamp */\n      lt\n      iszero\n        /* \"contracts/BOG.sol\":4411:4467  require(deadline >= block.timestamp, \"Expired deadline\") */\n      tag_186\n      jumpi\n      mload(0x40)\n      shl(0xe5, 0x461bcd)\n      dup2\n      mstore\n        /* \"#utility.yul\":8076:8078   */\n      0x20\n        /* \"contracts/BOG.sol\":4411:4467  require(deadline >= block.timestamp, \"Expired deadline\") */\n      0x04\n      dup3\n      add\n        /* \"#utility.yul\":8058:8079   */\n      mstore\n        /* \"#utility.yul\":8115:8117   */\n      0x10\n        /* \"#utility.yul\":8095:8113   */\n      0x24\n      dup3\n      add\n        /* \"#utility.yul\":8088:8118   */\n      mstore\n      shl(0x80, 0x4578706972656420646561646c696e65)\n        /* \"#utility.yul\":8134:8152   */\n      0x44\n      dup3\n      add\n        /* \"#utility.yul\":8127:8173   */\n      mstore\n        /* \"#utility.yul\":8190:8208   */\n      0x64\n      add\n        /* \"contracts/BOG.sol\":4411:4467  require(deadline >= block.timestamp, \"Expired deadline\") */\n      tag_148\n        /* \"#utility.yul\":7874:8214   */\n      jump\n        /* \"contracts/BOG.sol\":4411:4467  require(deadline >= block.timestamp, \"Expired deadline\") */\n    tag_186:\n      sub(shl(0xa0, 0x01), 0x01)\n        /* \"contracts/BOG.sol\":4676:4689  nonces[owner] */\n      dup8\n      and\n        /* \"contracts/BOG.sol\":4494:4512  bytes32 structHash */\n      0x00\n        /* \"contracts/BOG.sol\":4676:4689  nonces[owner] */\n      swap1\n      dup2\n      mstore\n        /* \"contracts/BOG.sol\":4676:4682  nonces */\n      0x09\n        /* \"contracts/BOG.sol\":4676:4689  nonces[owner] */\n      0x20\n      mstore\n      0x40\n      dup2\n      keccak256\n        /* \"contracts/BOG.sol\":4676:4691  nonces[owner]++ */\n      dup1\n      sload\n        /* \"contracts/BOG.sol\":2356:2451  keccak256(\"Permit(address owner,address spender,uint256 value,uint256 nonce,uint256 deadline)\") */\n      0x6e71edae12b1b97f4d1f60370fef10105fa2faae0126114a169c64845d6126c9\n      swap2\n        /* \"contracts/BOG.sol\":4602:4607  owner */\n      dup11\n      swap2\n        /* \"contracts/BOG.sol\":4626:4633  spender */\n      dup11\n      swap2\n        /* \"contracts/BOG.sol\":4652:4657  value */\n      dup11\n      swap2\n        /* \"contracts/BOG.sol\":4676:4691  nonces[owner]++ */\n      swap1\n        /* \"contracts/BOG.sol\":4494:4512  bytes32 structHash */\n      dup7\n        /* \"contracts/BOG.sol\":4676:4691  nonces[owner]++ */\n      tag_189\n      dup4\n      tag_190\n      jump\t// in\n    tag_189:\n      swap1\n      swap2\n      sstore\n      pop\n        /* \"contracts/BOG.sol\":4539:4733  abi.encode(... */\n      0x40\n      dup1\n      mload\n      0x20\n      dup2\n      add\n        /* \"#utility.yul\":8646:8671   */\n      swap7\n      swap1\n      swap7\n      mstore\n      sub(shl(0xa0, 0x01), 0x01)\n        /* \"#utility.yul\":8707:8739   */\n      swap5\n      dup6\n      and\n        /* \"#utility.yul\":8687:8705   */\n      swap1\n      dup7\n      add\n        /* \"#utility.yul\":8680:8740   */\n      mstore\n        /* \"#utility.yul\":8776:8808   */\n      swap3\n      swap1\n      swap2\n      and\n        /* \"#utility.yul\":8756:8774   */\n      0x60\n      dup5\n      add\n        /* \"#utility.yul\":8749:8809   */\n      mstore\n        /* \"#utility.yul\":8825:8843   */\n      0x80\n      dup4\n      add\n        /* \"#utility.yul\":8818:8852   */\n      mstore\n        /* \"#utility.yul\":8868:8887   */\n      0xa0\n      dup3\n      add\n        /* \"#utility.yul\":8861:8896   */\n      mstore\n        /* \"#utility.yul\":8912:8931   */\n      0xc0\n      dup2\n      add\n        /* \"#utility.yul\":8905:8940   */\n      dup7\n      swap1\n      mstore\n        /* \"#utility.yul\":8618:8637   */\n      0xe0\n      add\n        /* \"contracts/BOG.sol\":4539:4733  abi.encode(... */\n      mload(0x40)\n      0x20\n      dup2\n      dup4\n      sub\n      sub\n      dup2\n      mstore\n      swap1\n      0x40\n      mstore\n        /* \"contracts/BOG.sol\":4515:4744  keccak256(... */\n      dup1\n      mload\n      swap1\n      0x20\n      add\n      keccak256\n        /* \"contracts/BOG.sol\":4494:4744  bytes32 structHash = keccak256(... */\n      swap1\n      pop\n        /* \"contracts/BOG.sol\":4755:4767  bytes32 hash */\n      0x00\n        /* \"contracts/BOG.sol\":4823:4839  DOMAIN_SEPARATOR */\n      sload(0x0a)\n        /* \"contracts/BOG.sol\":4841:4851  structHash */\n      dup3\n        /* \"contracts/BOG.sol\":4794:4852  abi.encodePacked(\"\\x19\\x01\", DOMAIN_SEPARATOR, structHash) */\n      add(0x20, mload(0x40))\n      tag_193\n      swap3\n      swap2\n      swap1\n      shl(0xf0, 0x1901)\n        /* \"#utility.yul\":9209:9236   */\n      dup2\n      mstore\n        /* \"#utility.yul\":9261:9262   */\n      0x02\n        /* \"#utility.yul\":9252:9263   */\n      dup2\n      add\n        /* \"#utility.yul\":9245:9272   */\n      swap3\n      swap1\n      swap3\n      mstore\n        /* \"#utility.yul\":9297:9299   */\n      0x22\n        /* \"#utility.yul\":9288:9300   */\n      dup3\n      add\n        /* \"#utility.yul\":9281:9309   */\n      mstore\n        /* \"#utility.yul\":9334:9336   */\n      0x42\n        /* \"#utility.yul\":9325:9337   */\n      add\n      swap1\n        /* \"#utility.yul\":8951:9343   */\n      jump\n        /* \"contracts/BOG.sol\":4794:4852  abi.encodePacked(\"\\x19\\x01\", DOMAIN_SEPARATOR, structHash) */\n    tag_193:\n      0x40\n      dup1\n      mload\n      not(0x1f)\n      dup2\n      dup5\n      sub\n      add\n      dup2\n      mstore\n      swap2\n      swap1\n      mstore\n        /* \"contracts/BOG.sol\":4770:4863  keccak256(... */\n      dup1\n      mload\n        /* \"contracts/BOG.sol\":4794:4852  abi.encodePacked(\"\\x19\\x01\", DOMAIN_SEPARATOR, structHash) */\n      0x20\n        /* \"contracts/BOG.sol\":4770:4863  keccak256(... */\n      swap1\n      swap2\n      add\n      keccak256\n      swap1\n      pop\n        /* \"contracts/BOG.sol\":4874:4888  address signer */\n      0x00\n        /* \"contracts/BOG.sol\":4891:4912  hash.recover(v, r, s) */\n      tag_195\n        /* \"contracts/BOG.sol\":4770:4863  keccak256(... */\n      dup3\n        /* \"contracts/BOG.sol\":4904:4905  v */\n      dup8\n        /* \"contracts/BOG.sol\":4907:4908  r */\n      dup8\n        /* \"contracts/BOG.sol\":4910:4911  s */\n      dup8\n        /* \"contracts/BOG.sol\":4891:4903  hash.recover */\n      tag_196\n        /* \"contracts/BOG.sol\":4891:4912  hash.recover(v, r, s) */\n      jump\t// in\n    tag_195:\n        /* \"contracts/BOG.sol\":4874:4912  address signer = hash.recover(v, r, s) */\n      swap1\n      pop\n        /* \"contracts/BOG.sol\":4941:4946  owner */\n      dup10\n      sub(shl(0xa0, 0x01), 0x01)\n        /* \"contracts/BOG.sol\":4931:4946  signer == owner */\n      and\n        /* \"contracts/BOG.sol\":4931:4937  signer */\n      dup2\n      sub(shl(0xa0, 0x01), 0x01)\n        /* \"contracts/BOG.sol\":4931:4946  signer == owner */\n      and\n      eq\n        /* \"contracts/BOG.sol\":4923:4968  require(signer == owner, \"Invalid signature\") */\n      tag_197\n      jumpi\n      mload(0x40)\n      shl(0xe5, 0x461bcd)\n      dup2\n      mstore\n        /* \"#utility.yul\":9550:9552   */\n      0x20\n        /* \"contracts/BOG.sol\":4923:4968  require(signer == owner, \"Invalid signature\") */\n      0x04\n      dup3\n      add\n        /* \"#utility.yul\":9532:9553   */\n      mstore\n        /* \"#utility.yul\":9589:9591   */\n      0x11\n        /* \"#utility.yul\":9569:9587   */\n      0x24\n      dup3\n      add\n        /* \"#utility.yul\":9562:9592   */\n      mstore\n      shl(0x78, 0x496e76616c6964207369676e6174757265)\n        /* \"#utility.yul\":9608:9626   */\n      0x44\n      dup3\n      add\n        /* \"#utility.yul\":9601:9648   */\n      mstore\n        /* \"#utility.yul\":9665:9683   */\n      0x64\n      add\n        /* \"contracts/BOG.sol\":4923:4968  require(signer == owner, \"Invalid signature\") */\n      tag_148\n        /* \"#utility.yul\":9348:9689   */\n      jump\n        /* \"contracts/BOG.sol\":4923:4968  require(signer == owner, \"Invalid signature\") */\n    tag_197:\n        /* \"contracts/BOG.sol\":4995:5026  _approve(owner, spender, value) */\n      tag_200\n        /* \"contracts/BOG.sol\":5004:5009  owner */\n      dup11\n        /* \"contracts/BOG.sol\":5011:5018  spender */\n      dup11\n        /* \"contracts/BOG.sol\":5020:5025  value */\n      dup11\n        /* \"contracts/BOG.sol\":4995:5003  _approve */\n      tag_130\n        /* \"contracts/BOG.sol\":4995:5026  _approve(owner, spender, value) */\n      jump\t// in\n    tag_200:\n        /* \"contracts/BOG.sol\":4400:5049  {... */\n      pop\n      pop\n      pop\n        /* \"contracts/BOG.sol\":4200:5049  function permit(... */\n      pop\n      pop\n      pop\n      pop\n      pop\n      pop\n      pop\n      jump\t// out\n        /* \"contracts/BOG.sol\":8244:8464  function setGasLimit(uint256 gasLimit) view  public onlyOwner {... */\n    tag_118:\n        /* \"contracts/BOG.sol\":577:583  _owner */\n      and(sub(shl(0xa0, 0x01), 0x01), sload(0x00))\n        /* \"contracts/BOG.sol\":563:573  msg.sender */\n      caller\n        /* \"contracts/BOG.sol\":563:583  msg.sender == _owner */\n      eq\n        /* \"contracts/BOG.sol\":555:611  require(msg.sender == _owner, \"Caller is not the owner\") */\n      tag_203\n      jumpi\n      mload(0x40)\n      shl(0xe5, 0x461bcd)\n      dup2\n      mstore\n      0x04\n      add\n      tag_148\n      swap1\n      tag_149\n      jump\t// in\n    tag_203:\n        /* \"contracts/BOG.sol\":8336:8337  0 */\n      0x00\n        /* \"contracts/BOG.sol\":8325:8333  gasLimit */\n      dup2\n        /* \"contracts/BOG.sol\":8325:8337  gasLimit > 0 */\n      gt\n        /* \"contracts/BOG.sol\":8317:8377  require(gasLimit > 0, \"Gas limit must be greater than zero\") */\n      tag_143\n      jumpi\n      mload(0x40)\n      shl(0xe5, 0x461bcd)\n      dup2\n      mstore\n        /* \"#utility.yul\":9896:9898   */\n      0x20\n        /* \"contracts/BOG.sol\":8317:8377  require(gasLimit > 0, \"Gas limit must be greater than zero\") */\n      0x04\n      dup3\n      add\n        /* \"#utility.yul\":9878:9899   */\n      mstore\n        /* \"#utility.yul\":9935:9937   */\n      0x23\n        /* \"#utility.yul\":9915:9933   */\n      0x24\n      dup3\n      add\n        /* \"#utility.yul\":9908:9938   */\n      mstore\n        /* \"#utility.yul\":9974:10008   */\n      0x476173206c696d6974206d7573742062652067726561746572207468616e207a\n        /* \"#utility.yul\":9954:9972   */\n      0x44\n      dup3\n      add\n        /* \"#utility.yul\":9947:10009   */\n      mstore\n      shl(0xe8, 0x65726f)\n        /* \"#utility.yul\":10025:10043   */\n      0x64\n      dup3\n      add\n        /* \"#utility.yul\":10018:10051   */\n      mstore\n        /* \"#utility.yul\":10068:10087   */\n      0x84\n      add\n        /* \"contracts/BOG.sol\":8317:8377  require(gasLimit > 0, \"Gas limit must be greater than zero\") */\n      tag_148\n        /* \"#utility.yul\":9694:10093   */\n      jump\n        /* \"contracts/BOG.sol\":726:953  function transferOwnership(address newOwner) public onlyOwner {... */\n    tag_121:\n        /* \"contracts/BOG.sol\":577:583  _owner */\n      and(sub(shl(0xa0, 0x01), 0x01), sload(0x00))\n        /* \"contracts/BOG.sol\":563:573  msg.sender */\n      caller\n        /* \"contracts/BOG.sol\":563:583  msg.sender == _owner */\n      eq\n        /* \"contracts/BOG.sol\":555:611  require(msg.sender == _owner, \"Caller is not the owner\") */\n      tag_210\n      jumpi\n      mload(0x40)\n      shl(0xe5, 0x461bcd)\n      dup2\n      mstore\n      0x04\n      add\n      tag_148\n      swap1\n      tag_149\n      jump\t// in\n    tag_210:\n      sub(shl(0xa0, 0x01), 0x01)\n        /* \"contracts/BOG.sol\":807:829  newOwner != address(0) */\n      dup2\n      and\n        /* \"contracts/BOG.sol\":799:863  require(newOwner != address(0), \"New owner is the zero address\") */\n      tag_213\n      jumpi\n      mload(0x40)\n      shl(0xe5, 0x461bcd)\n      dup2\n      mstore\n        /* \"#utility.yul\":10300:10302   */\n      0x20\n        /* \"contracts/BOG.sol\":799:863  require(newOwner != address(0), \"New owner is the zero address\") */\n      0x04\n      dup3\n      add\n        /* \"#utility.yul\":10282:10303   */\n      mstore\n        /* \"#utility.yul\":10339:10341   */\n      0x1d\n        /* \"#utility.yul\":10319:10337   */\n      0x24\n      dup3\n      add\n        /* \"#utility.yul\":10312:10342   */\n      mstore\n        /* \"#utility.yul\":10378:10409   */\n      0x4e6577206f776e657220697320746865207a65726f2061646472657373000000\n        /* \"#utility.yul\":10358:10376   */\n      0x44\n      dup3\n      add\n        /* \"#utility.yul\":10351:10410   */\n      mstore\n        /* \"#utility.yul\":10427:10445   */\n      0x64\n      add\n        /* \"contracts/BOG.sol\":799:863  require(newOwner != address(0), \"New owner is the zero address\") */\n      tag_148\n        /* \"#utility.yul\":10098:10451   */\n      jump\n        /* \"contracts/BOG.sol\":799:863  require(newOwner != address(0), \"New owner is the zero address\") */\n    tag_213:\n        /* \"contracts/BOG.sol\":900:906  _owner */\n      0x00\n      dup1\n      sload\n        /* \"contracts/BOG.sol\":879:917  OwnershipTransferred(_owner, newOwner) */\n      mload(0x40)\n      sub(shl(0xa0, 0x01), 0x01)\n      dup1\n      dup6\n      and\n      swap4\n        /* \"contracts/BOG.sol\":900:906  _owner */\n      swap3\n      and\n      swap2\n        /* \"contracts/BOG.sol\":879:917  OwnershipTransferred(_owner, newOwner) */\n      0x8be0079c531659141344cd1fd0a4f28419497f9722a3daafe3b4186f6b6457e0\n      swap2\n      log3\n        /* \"contracts/BOG.sol\":928:934  _owner */\n      0x00\n        /* \"contracts/BOG.sol\":928:945  _owner = newOwner */\n      dup1\n      sload\n      not(sub(shl(0xa0, 0x01), 0x01))\n      and\n      sub(shl(0xa0, 0x01), 0x01)\n      swap3\n      swap1\n      swap3\n      and\n      swap2\n      swap1\n      swap2\n      or\n      swap1\n      sstore\n        /* \"contracts/BOG.sol\":726:953  function transferOwnership(address newOwner) public onlyOwner {... */\n      jump\t// out\n        /* \"contracts/BOG.sol\":7450:7814  function _approve(address owner, address spender, uint256 value) internal {... */\n    tag_130:\n      sub(shl(0xa0, 0x01), 0x01)\n        /* \"contracts/BOG.sol\":7543:7562  owner != address(0) */\n      dup4\n      and\n        /* \"contracts/BOG.sol\":7535:7596  require(owner != address(0), \"Approve from the zero address\") */\n      tag_217\n      jumpi\n      mload(0x40)\n      shl(0xe5, 0x461bcd)\n      dup2\n      mstore\n        /* \"#utility.yul\":10658:10660   */\n      0x20\n        /* \"contracts/BOG.sol\":7535:7596  require(owner != address(0), \"Approve from the zero address\") */\n      0x04\n      dup3\n      add\n        /* \"#utility.yul\":10640:10661   */\n      mstore\n        /* \"#utility.yul\":10697:10699   */\n      0x1d\n        /* \"#utility.yul\":10677:10695   */\n      0x24\n      dup3\n      add\n        /* \"#utility.yul\":10670:10700   */\n      mstore\n        /* \"#utility.yul\":10736:10767   */\n      0x417070726f76652066726f6d20746865207a65726f2061646472657373000000\n        /* \"#utility.yul\":10716:10734   */\n      0x44\n      dup3\n      add\n        /* \"#utility.yul\":10709:10768   */\n      mstore\n        /* \"#utility.yul\":10785:10803   */\n      0x64\n      add\n        /* \"contracts/BOG.sol\":7535:7596  require(owner != address(0), \"Approve from the zero address\") */\n      tag_148\n        /* \"#utility.yul\":10456:10809   */\n      jump\n        /* \"contracts/BOG.sol\":7535:7596  require(owner != address(0), \"Approve from the zero address\") */\n    tag_217:\n      sub(shl(0xa0, 0x01), 0x01)\n        /* \"contracts/BOG.sol\":7629:7650  spender != address(0) */\n      dup3\n      and\n        /* \"contracts/BOG.sol\":7621:7682  require(spender != address(0), \"Approve to the zero address\") */\n      tag_220\n      jumpi\n      mload(0x40)\n      shl(0xe5, 0x461bcd)\n      dup2\n      mstore\n        /* \"#utility.yul\":11016:11018   */\n      0x20\n        /* \"contracts/BOG.sol\":7621:7682  require(spender != address(0), \"Approve to the zero address\") */\n      0x04\n      dup3\n      add\n        /* \"#utility.yul\":10998:11019   */\n      mstore\n        /* \"#utility.yul\":11055:11057   */\n      0x1b\n        /* \"#utility.yul\":11035:11053   */\n      0x24\n      dup3\n      add\n        /* \"#utility.yul\":11028:11058   */\n      mstore\n        /* \"#utility.yul\":11094:11123   */\n      0x417070726f766520746f20746865207a65726f20616464726573730000000000\n        /* \"#utility.yul\":11074:11092   */\n      0x44\n      dup3\n      add\n        /* \"#utility.yul\":11067:11124   */\n      mstore\n        /* \"#utility.yul\":11141:11159   */\n      0x64\n      add\n        /* \"contracts/BOG.sol\":7621:7682  require(spender != address(0), \"Approve to the zero address\") */\n      tag_148\n        /* \"#utility.yul\":10814:11165   */\n      jump\n        /* \"contracts/BOG.sol\":7621:7682  require(spender != address(0), \"Approve to the zero address\") */\n    tag_220:\n      sub(shl(0xa0, 0x01), 0x01)\n        /* \"contracts/BOG.sol\":7709:7727  _allowances[owner] */\n      dup4\n      dup2\n      and\n      0x00\n      dup2\n      dup2\n      mstore\n        /* \"contracts/BOG.sol\":7709:7720  _allowances */\n      0x08\n        /* \"contracts/BOG.sol\":7709:7727  _allowances[owner] */\n      0x20\n      swap1\n      dup2\n      mstore\n      0x40\n      dup1\n      dup4\n      keccak256\n        /* \"contracts/BOG.sol\":7709:7736  _allowances[owner][spender] */\n      swap5\n      dup8\n      and\n      dup1\n      dup5\n      mstore\n      swap5\n      dup3\n      mstore\n      swap2\n      dup3\n      swap1\n      keccak256\n        /* \"contracts/BOG.sol\":7709:7744  _allowances[owner][spender] = value */\n      dup6\n      swap1\n      sstore\n        /* \"contracts/BOG.sol\":7760:7791  Approval(owner, spender, value) */\n      swap1\n      mload\n        /* \"#utility.yul\":1258:1283   */\n      dup5\n      dup2\n      mstore\n        /* \"contracts/BOG.sol\":7760:7791  Approval(owner, spender, value) */\n      0x8c5be1e5ebec7d5bd14f71427d1e84f3dd0314c0f7b2291e5b200ac8c7c3b925\n      swap2\n        /* \"#utility.yul\":1231:1249   */\n      add\n        /* \"contracts/BOG.sol\":7760:7791  Approval(owner, spender, value) */\n    tag_223:\n      mload(0x40)\n      dup1\n      swap2\n      sub\n      swap1\n      log3\n        /* \"contracts/BOG.sol\":7450:7814  function _approve(address owner, address spender, uint256 value) internal {... */\n      pop\n      pop\n      pop\n      jump\t// out\n        /* \"contracts/BOG.sol\":6127:6729  function _transfer(address sender, address recipient, uint256 amount) internal {... */\n    tag_134:\n      sub(shl(0xa0, 0x01), 0x01)\n        /* \"contracts/BOG.sol\":6225:6245  sender != address(0) */\n      dup4\n      and\n        /* \"contracts/BOG.sol\":6217:6280  require(sender != address(0), \"Transfer from the zero address\") */\n      tag_225\n      jumpi\n      mload(0x40)\n      shl(0xe5, 0x461bcd)\n      dup2\n      mstore\n        /* \"#utility.yul\":11372:11374   */\n      0x20\n        /* \"contracts/BOG.sol\":6217:6280  require(sender != address(0), \"Transfer from the zero address\") */\n      0x04\n      dup3\n      add\n        /* \"#utility.yul\":11354:11375   */\n      mstore\n        /* \"#utility.yul\":11411:11413   */\n      0x1e\n        /* \"#utility.yul\":11391:11409   */\n      0x24\n      dup3\n      add\n        /* \"#utility.yul\":11384:11414   */\n      mstore\n        /* \"#utility.yul\":11450:11482   */\n      0x5472616e736665722066726f6d20746865207a65726f20616464726573730000\n        /* \"#utility.yul\":11430:11448   */\n      0x44\n      dup3\n      add\n        /* \"#utility.yul\":11423:11483   */\n      mstore\n        /* \"#utility.yul\":11500:11518   */\n      0x64\n      add\n        /* \"contracts/BOG.sol\":6217:6280  require(sender != address(0), \"Transfer from the zero address\") */\n      tag_148\n        /* \"#utility.yul\":11170:11524   */\n      jump\n        /* \"contracts/BOG.sol\":6217:6280  require(sender != address(0), \"Transfer from the zero address\") */\n    tag_225:\n      sub(shl(0xa0, 0x01), 0x01)\n        /* \"contracts/BOG.sol\":6313:6336  recipient != address(0) */\n      dup3\n      and\n        /* \"contracts/BOG.sol\":6305:6369  require(recipient != address(0), \"Transfer to the zero address\") */\n      tag_228\n      jumpi\n      mload(0x40)\n      shl(0xe5, 0x461bcd)\n      dup2\n      mstore\n        /* \"#utility.yul\":11731:11733   */\n      0x20\n        /* \"contracts/BOG.sol\":6305:6369  require(recipient != address(0), \"Transfer to the zero address\") */\n      0x04\n      dup3\n      add\n        /* \"#utility.yul\":11713:11734   */\n      mstore\n        /* \"#utility.yul\":11770:11772   */\n      0x1c\n        /* \"#utility.yul\":11750:11768   */\n      0x24\n      dup3\n      add\n        /* \"#utility.yul\":11743:11773   */\n      mstore\n        /* \"#utility.yul\":11809:11839   */\n      0x5472616e7366657220746f20746865207a65726f206164647265737300000000\n        /* \"#utility.yul\":11789:11807   */\n      0x44\n      dup3\n      add\n        /* \"#utility.yul\":11782:11840   */\n      mstore\n        /* \"#utility.yul\":11857:11875   */\n      0x64\n      add\n        /* \"contracts/BOG.sol\":6305:6369  require(recipient != address(0), \"Transfer to the zero address\") */\n      tag_148\n        /* \"#utility.yul\":11529:11881   */\n      jump\n        /* \"contracts/BOG.sol\":6305:6369  require(recipient != address(0), \"Transfer to the zero address\") */\n    tag_228:\n      sub(shl(0xa0, 0x01), 0x01)\n        /* \"contracts/BOG.sol\":6420:6437  _balances[sender] */\n      dup4\n      and\n        /* \"contracts/BOG.sol\":6396:6417  uint256 senderBalance */\n      0x00\n        /* \"contracts/BOG.sol\":6420:6437  _balances[sender] */\n      swap1\n      dup2\n      mstore\n        /* \"contracts/BOG.sol\":6420:6429  _balances */\n      0x07\n        /* \"contracts/BOG.sol\":6420:6437  _balances[sender] */\n      0x20\n      mstore\n      0x40\n      swap1\n      keccak256\n      sload\n        /* \"contracts/BOG.sol\":6456:6479  senderBalance >= amount */\n      dup2\n      dup2\n      lt\n      iszero\n        /* \"contracts/BOG.sol\":6448:6515  require(senderBalance >= amount, \"Transfer amount exceeds balance\") */\n      tag_231\n      jumpi\n      mload(0x40)\n      shl(0xe5, 0x461bcd)\n      dup2\n      mstore\n        /* \"#utility.yul\":12088:12090   */\n      0x20\n        /* \"contracts/BOG.sol\":6448:6515  require(senderBalance >= amount, \"Transfer amount exceeds balance\") */\n      0x04\n      dup3\n      add\n        /* \"#utility.yul\":12070:12091   */\n      mstore\n        /* \"#utility.yul\":12127:12129   */\n      0x1f\n        /* \"#utility.yul\":12107:12125   */\n      0x24\n      dup3\n      add\n        /* \"#utility.yul\":12100:12130   */\n      mstore\n        /* \"#utility.yul\":12166:12199   */\n      0x5472616e7366657220616d6f756e7420657863656564732062616c616e636500\n        /* \"#utility.yul\":12146:12164   */\n      0x44\n      dup3\n      add\n        /* \"#utility.yul\":12139:12200   */\n      mstore\n        /* \"#utility.yul\":12217:12235   */\n      0x64\n      add\n        /* \"contracts/BOG.sol\":6448:6515  require(senderBalance >= amount, \"Transfer amount exceeds balance\") */\n      tag_148\n        /* \"#utility.yul\":11886:12241   */\n      jump\n        /* \"contracts/BOG.sol\":6448:6515  require(senderBalance >= amount, \"Transfer amount exceeds balance\") */\n    tag_231:\n        /* \"contracts/BOG.sol\":6590:6612  senderBalance - amount */\n      tag_234\n        /* \"contracts/BOG.sol\":6606:6612  amount */\n      dup3\n        /* \"contracts/BOG.sol\":6590:6603  senderBalance */\n      dup3\n        /* \"contracts/BOG.sol\":6590:6612  senderBalance - amount */\n      tag_137\n      jump\t// in\n    tag_234:\n      sub(shl(0xa0, 0x01), 0x01)\n        /* \"contracts/BOG.sol\":6570:6587  _balances[sender] */\n      dup1\n      dup7\n      and\n      0x00\n      swap1\n      dup2\n      mstore\n        /* \"contracts/BOG.sol\":6570:6579  _balances */\n      0x07\n        /* \"contracts/BOG.sol\":6570:6587  _balances[sender] */\n      0x20\n      mstore\n      0x40\n      dup1\n      dup3\n      keccak256\n        /* \"contracts/BOG.sol\":6570:6612  _balances[sender] = senderBalance - amount */\n      swap4\n      swap1\n      swap4\n      sstore\n        /* \"contracts/BOG.sol\":6623:6643  _balances[recipient] */\n      swap1\n      dup6\n      and\n      dup2\n      mstore\n      swap1\n      dup2\n      keccak256\n        /* \"contracts/BOG.sol\":6623:6653  _balances[recipient] += amount */\n      dup1\n      sload\n        /* \"contracts/BOG.sol\":6647:6653  amount */\n      dup5\n      swap3\n        /* \"contracts/BOG.sol\":6570:6587  _balances[sender] */\n      swap1\n        /* \"contracts/BOG.sol\":6623:6653  _balances[recipient] += amount */\n      tag_235\n      swap1\n        /* \"contracts/BOG.sol\":6647:6653  amount */\n      dup5\n      swap1\n        /* \"contracts/BOG.sol\":6623:6653  _balances[recipient] += amount */\n      tag_141\n      jump\t// in\n    tag_235:\n      swap3\n      pop\n      pop\n      dup2\n      swap1\n      sstore\n      pop\n        /* \"contracts/BOG.sol\":6688:6697  recipient */\n      dup3\n      sub(shl(0xa0, 0x01), 0x01)\n        /* \"contracts/BOG.sol\":6671:6706  Transfer(sender, recipient, amount) */\n      and\n        /* \"contracts/BOG.sol\":6680:6686  sender */\n      dup5\n      sub(shl(0xa0, 0x01), 0x01)\n        /* \"contracts/BOG.sol\":6671:6706  Transfer(sender, recipient, amount) */\n      and\n      0xddf252ad1be2c89b69c2b068fc378daa952ba7f163c4a11628f55a4df523b3ef\n        /* \"contracts/BOG.sol\":6699:6705  amount */\n      dup5\n        /* \"contracts/BOG.sol\":6671:6706  Transfer(sender, recipient, amount) */\n      mload(0x40)\n      tag_236\n      swap2\n        /* \"#utility.yul\":1258:1283   */\n      dup2\n      mstore\n        /* \"#utility.yul\":1246:1248   */\n      0x20\n        /* \"#utility.yul\":1231:1249   */\n      add\n      swap1\n        /* \"#utility.yul\":1112:1289   */\n      jump\n        /* \"contracts/BOG.sol\":6671:6706  Transfer(sender, recipient, amount) */\n    tag_236:\n      mload(0x40)\n      dup1\n      swap2\n      sub\n      swap1\n      log3\n        /* \"contracts/BOG.sol\":6206:6729  {... */\n      pop\n        /* \"contracts/BOG.sol\":6127:6729  function _transfer(address sender, address recipient, uint256 amount) internal {... */\n      pop\n      pop\n      pop\n      jump\t// out\n        /* \"contracts/BOG.sol\":7011:7442  function _burn(address from, uint256 value) internal {... */\n    tag_144:\n      sub(shl(0xa0, 0x01), 0x01)\n        /* \"contracts/BOG.sol\":7083:7101  from != address(0) */\n      dup3\n      and\n        /* \"contracts/BOG.sol\":7075:7132  require(from != address(0), \"Burn from the zero address\") */\n      tag_238\n      jumpi\n      mload(0x40)\n      shl(0xe5, 0x461bcd)\n      dup2\n      mstore\n        /* \"#utility.yul\":12448:12450   */\n      0x20\n        /* \"contracts/BOG.sol\":7075:7132  require(from != address(0), \"Burn from the zero address\") */\n      0x04\n      dup3\n      add\n        /* \"#utility.yul\":12430:12451   */\n      mstore\n        /* \"#utility.yul\":12487:12489   */\n      0x1a\n        /* \"#utility.yul\":12467:12485   */\n      0x24\n      dup3\n      add\n        /* \"#utility.yul\":12460:12490   */\n      mstore\n        /* \"#utility.yul\":12526:12554   */\n      0x4275726e2066726f6d20746865207a65726f2061646472657373000000000000\n        /* \"#utility.yul\":12506:12524   */\n      0x44\n      dup3\n      add\n        /* \"#utility.yul\":12499:12555   */\n      mstore\n        /* \"#utility.yul\":12572:12590   */\n      0x64\n      add\n        /* \"contracts/BOG.sol\":7075:7132  require(from != address(0), \"Burn from the zero address\") */\n      tag_148\n        /* \"#utility.yul\":12246:12596   */\n      jump\n        /* \"contracts/BOG.sol\":7075:7132  require(from != address(0), \"Burn from the zero address\") */\n    tag_238:\n      sub(shl(0xa0, 0x01), 0x01)\n        /* \"contracts/BOG.sol\":7184:7199  _balances[from] */\n      dup3\n      and\n        /* \"contracts/BOG.sol\":7159:7181  uint256 accountBalance */\n      0x00\n        /* \"contracts/BOG.sol\":7184:7199  _balances[from] */\n      swap1\n      dup2\n      mstore\n        /* \"contracts/BOG.sol\":7184:7193  _balances */\n      0x07\n        /* \"contracts/BOG.sol\":7184:7199  _balances[from] */\n      0x20\n      mstore\n      0x40\n      swap1\n      keccak256\n      sload\n        /* \"contracts/BOG.sol\":7218:7241  accountBalance >= value */\n      dup2\n      dup2\n      lt\n      iszero\n        /* \"contracts/BOG.sol\":7210:7273  require(accountBalance >= value, \"Burn amount exceeds balance\") */\n      tag_241\n      jumpi\n      mload(0x40)\n      shl(0xe5, 0x461bcd)\n      dup2\n      mstore\n        /* \"#utility.yul\":12803:12805   */\n      0x20\n        /* \"contracts/BOG.sol\":7210:7273  require(accountBalance >= value, \"Burn amount exceeds balance\") */\n      0x04\n      dup3\n      add\n        /* \"#utility.yul\":12785:12806   */\n      mstore\n        /* \"#utility.yul\":12842:12844   */\n      0x1b\n        /* \"#utility.yul\":12822:12840   */\n      0x24\n      dup3\n      add\n        /* \"#utility.yul\":12815:12845   */\n      mstore\n        /* \"#utility.yul\":12881:12910   */\n      0x4275726e20616d6f756e7420657863656564732062616c616e63650000000000\n        /* \"#utility.yul\":12861:12879   */\n      0x44\n      dup3\n      add\n        /* \"#utility.yul\":12854:12911   */\n      mstore\n        /* \"#utility.yul\":12928:12946   */\n      0x64\n      add\n        /* \"contracts/BOG.sol\":7210:7273  require(accountBalance >= value, \"Burn amount exceeds balance\") */\n      tag_148\n        /* \"#utility.yul\":12601:12952   */\n      jump\n        /* \"contracts/BOG.sol\":7210:7273  require(accountBalance >= value, \"Burn amount exceeds balance\") */\n    tag_241:\n        /* \"contracts/BOG.sol\":7316:7338  accountBalance - value */\n      tag_244\n        /* \"contracts/BOG.sol\":7333:7338  value */\n      dup3\n        /* \"contracts/BOG.sol\":7316:7330  accountBalance */\n      dup3\n        /* \"contracts/BOG.sol\":7316:7338  accountBalance - value */\n      tag_137\n      jump\t// in\n    tag_244:\n      sub(shl(0xa0, 0x01), 0x01)\n        /* \"contracts/BOG.sol\":7298:7313  _balances[from] */\n      dup5\n      and\n      0x00\n      swap1\n      dup2\n      mstore\n        /* \"contracts/BOG.sol\":7298:7307  _balances */\n      0x07\n        /* \"contracts/BOG.sol\":7298:7313  _balances[from] */\n      0x20\n      mstore\n      0x40\n      dup2\n      keccak256\n        /* \"contracts/BOG.sol\":7298:7338  _balances[from] = accountBalance - value */\n      swap2\n      swap1\n      swap2\n      sstore\n        /* \"contracts/BOG.sol\":7349:7361  _totalSupply */\n      0x04\n        /* \"contracts/BOG.sol\":7349:7370  _totalSupply -= value */\n      dup1\n      sload\n        /* \"contracts/BOG.sol\":7365:7370  value */\n      dup5\n      swap3\n        /* \"contracts/BOG.sol\":7298:7313  _balances[from] */\n      swap1\n        /* \"contracts/BOG.sol\":7349:7370  _totalSupply -= value */\n      tag_245\n      swap1\n        /* \"contracts/BOG.sol\":7365:7370  value */\n      dup5\n      swap1\n        /* \"contracts/BOG.sol\":7349:7370  _totalSupply -= value */\n      tag_137\n      jump\t// in\n    tag_245:\n      swap1\n      swap2\n      sstore\n      pop\n      pop\n        /* \"contracts/BOG.sol\":7386:7419  Transfer(from, address(0), value) */\n      mload(0x40)\n        /* \"#utility.yul\":1258:1283   */\n      dup3\n      dup2\n      mstore\n        /* \"contracts/BOG.sol\":7409:7410  0 */\n      0x00\n      swap1\n      sub(shl(0xa0, 0x01), 0x01)\n        /* \"contracts/BOG.sol\":7386:7419  Transfer(from, address(0), value) */\n      dup6\n      and\n      swap1\n      0xddf252ad1be2c89b69c2b068fc378daa952ba7f163c4a11628f55a4df523b3ef\n      swap1\n        /* \"#utility.yul\":1246:1248   */\n      0x20\n        /* \"#utility.yul\":1231:1249   */\n      add\n        /* \"contracts/BOG.sol\":7386:7419  Transfer(from, address(0), value) */\n      tag_223\n        /* \"#utility.yul\":1112:1289   */\n      jump\n        /* \"contracts/BOG.sol\":6737:7003  function _mint(address to, uint256 value) internal {... */\n    tag_156:\n      sub(shl(0xa0, 0x01), 0x01)\n        /* \"contracts/BOG.sol\":6807:6823  to != address(0) */\n      dup3\n      and\n        /* \"contracts/BOG.sol\":6799:6852  require(to != address(0), \"Mint to the zero address\") */\n      tag_248\n      jumpi\n      mload(0x40)\n      shl(0xe5, 0x461bcd)\n      dup2\n      mstore\n        /* \"#utility.yul\":13159:13161   */\n      0x20\n        /* \"contracts/BOG.sol\":6799:6852  require(to != address(0), \"Mint to the zero address\") */\n      0x04\n      dup3\n      add\n        /* \"#utility.yul\":13141:13162   */\n      mstore\n        /* \"#utility.yul\":13198:13200   */\n      0x18\n        /* \"#utility.yul\":13178:13196   */\n      0x24\n      dup3\n      add\n        /* \"#utility.yul\":13171:13201   */\n      mstore\n        /* \"#utility.yul\":13237:13263   */\n      0x4d696e7420746f20746865207a65726f20616464726573730000000000000000\n        /* \"#utility.yul\":13217:13235   */\n      0x44\n      dup3\n      add\n        /* \"#utility.yul\":13210:13264   */\n      mstore\n        /* \"#utility.yul\":13281:13299   */\n      0x64\n      add\n        /* \"contracts/BOG.sol\":6799:6852  require(to != address(0), \"Mint to the zero address\") */\n      tag_148\n        /* \"#utility.yul\":12957:13305   */\n      jump\n        /* \"contracts/BOG.sol\":6799:6852  require(to != address(0), \"Mint to the zero address\") */\n    tag_248:\n        /* \"contracts/BOG.sol\":6895:6900  value */\n      dup1\n        /* \"contracts/BOG.sol\":6879:6891  _totalSupply */\n      0x04\n      0x00\n        /* \"contracts/BOG.sol\":6879:6900  _totalSupply += value */\n      dup3\n      dup3\n      sload\n      tag_251\n      swap2\n      swap1\n      tag_141\n      jump\t// in\n    tag_251:\n      swap1\n      swap2\n      sstore\n      pop\n      pop\n      sub(shl(0xa0, 0x01), 0x01)\n        /* \"contracts/BOG.sol\":6911:6924  _balances[to] */\n      dup3\n      and\n      0x00\n      swap1\n      dup2\n      mstore\n        /* \"contracts/BOG.sol\":6911:6920  _balances */\n      0x07\n        /* \"contracts/BOG.sol\":6911:6924  _balances[to] */\n      0x20\n      mstore\n      0x40\n      dup2\n      keccak256\n        /* \"contracts/BOG.sol\":6911:6933  _balances[to] += value */\n      dup1\n      sload\n        /* \"contracts/BOG.sol\":6928:6933  value */\n      dup4\n      swap3\n        /* \"contracts/BOG.sol\":6911:6924  _balances[to] */\n      swap1\n        /* \"contracts/BOG.sol\":6911:6933  _balances[to] += value */\n      tag_252\n      swap1\n        /* \"contracts/BOG.sol\":6928:6933  value */\n      dup5\n      swap1\n        /* \"contracts/BOG.sol\":6911:6933  _balances[to] += value */\n      tag_141\n      jump\t// in\n    tag_252:\n      swap1\n      swap2\n      sstore\n      pop\n      pop\n        /* \"contracts/BOG.sol\":6949:6980  Transfer(address(0), to, value) */\n      mload(0x40)\n        /* \"#utility.yul\":1258:1283   */\n      dup2\n      dup2\n      mstore\n      sub(shl(0xa0, 0x01), 0x01)\n        /* \"contracts/BOG.sol\":6949:6980  Transfer(address(0), to, value) */\n      dup4\n      and\n      swap1\n        /* \"contracts/BOG.sol\":6966:6967  0 */\n      0x00\n      swap1\n        /* \"contracts/BOG.sol\":6949:6980  Transfer(address(0), to, value) */\n      0xddf252ad1be2c89b69c2b068fc378daa952ba7f163c4a11628f55a4df523b3ef\n      swap1\n        /* \"#utility.yul\":1246:1248   */\n      0x20\n        /* \"#utility.yul\":1231:1249   */\n      add\n        /* \"contracts/BOG.sol\":6949:6980  Transfer(address(0), to, value) */\n      mload(0x40)\n      dup1\n      swap2\n      sub\n      swap1\n      log3\n        /* \"contracts/BOG.sol\":6737:7003  function _mint(address to, uint256 value) internal {... */\n      pop\n      pop\n      jump\t// out\n        /* \"@openzeppelin/contracts/utils/cryptography/ECDSA.sol\":6803:7063  function recover(bytes32 hash, uint8 v, bytes32 r, bytes32 s) internal pure returns (address) {... */\n    tag_196:\n        /* \"@openzeppelin/contracts/utils/cryptography/ECDSA.sol\":6888:6895  address */\n      0x00\n        /* \"@openzeppelin/contracts/utils/cryptography/ECDSA.sol\":6908:6925  address recovered */\n      0x00\n        /* \"@openzeppelin/contracts/utils/cryptography/ECDSA.sol\":6927:6945  RecoverError error */\n      0x00\n        /* \"@openzeppelin/contracts/utils/cryptography/ECDSA.sol\":6947:6963  bytes32 errorArg */\n      0x00\n        /* \"@openzeppelin/contracts/utils/cryptography/ECDSA.sol\":6967:6992  tryRecover(hash, v, r, s) */\n      tag_255\n        /* \"@openzeppelin/contracts/utils/cryptography/ECDSA.sol\":6978:6982  hash */\n      dup9\n        /* \"@openzeppelin/contracts/utils/cryptography/ECDSA.sol\":6984:6985  v */\n      dup9\n        /* \"@openzeppelin/contracts/utils/cryptography/ECDSA.sol\":6987:6988  r */\n      dup9\n        /* \"@openzeppelin/contracts/utils/cryptography/ECDSA.sol\":6990:6991  s */\n      dup9\n        /* \"@openzeppelin/contracts/utils/cryptography/ECDSA.sol\":6967:6977  tryRecover */\n      tag_256\n        /* \"@openzeppelin/contracts/utils/cryptography/ECDSA.sol\":6967:6992  tryRecover(hash, v, r, s) */\n      jump\t// in\n    tag_255:\n        /* \"@openzeppelin/contracts/utils/cryptography/ECDSA.sol\":6907:6992  (address recovered, RecoverError error, bytes32 errorArg) = tryRecover(hash, v, r, s) */\n      swap3\n      pop\n      swap3\n      pop\n      swap3\n      pop\n        /* \"@openzeppelin/contracts/utils/cryptography/ECDSA.sol\":7002:7030  _throwError(error, errorArg) */\n      tag_257\n        /* \"@openzeppelin/contracts/utils/cryptography/ECDSA.sol\":7014:7019  error */\n      dup3\n        /* \"@openzeppelin/contracts/utils/cryptography/ECDSA.sol\":7021:7029  errorArg */\n      dup3\n        /* \"@openzeppelin/contracts/utils/cryptography/ECDSA.sol\":7002:7013  _throwError */\n      tag_258\n        /* \"@openzeppelin/contracts/utils/cryptography/ECDSA.sol\":7002:7030  _throwError(error, errorArg) */\n      jump\t// in\n    tag_257:\n      pop\n        /* \"@openzeppelin/contracts/utils/cryptography/ECDSA.sol\":7047:7056  recovered */\n      swap1\n      swap7\n        /* \"@openzeppelin/contracts/utils/cryptography/ECDSA.sol\":6803:7063  function recover(bytes32 hash, uint8 v, bytes32 r, bytes32 s) internal pure returns (address) {... */\n      swap6\n      pop\n      pop\n      pop\n      pop\n      pop\n      pop\n      jump\t// out\n        /* \"@openzeppelin/contracts/utils/cryptography/ECDSA.sol\":5140:6670  function tryRecover(... */\n    tag_256:\n        /* \"@openzeppelin/contracts/utils/cryptography/ECDSA.sol\":5266:5273  address */\n      0x00\n      dup1\n      dup1\n        /* \"@openzeppelin/contracts/utils/cryptography/ECDSA.sol\":6199:6265  0x7FFFFFFFFFFFFFFFFFFFFFFFFFFFFFFF5D576E7357A4501DDFE92F46681B20A0 */\n      0x7fffffffffffffffffffffffffffffff5d576e7357a4501ddfe92f46681b20a0\n        /* \"@openzeppelin/contracts/utils/cryptography/ECDSA.sol\":6186:6265  uint256(s) > 0x7FFFFFFFFFFFFFFFFFFFFFFFFFFFFFFF5D576E7357A4501DDFE92F46681B20A0 */\n      dup5\n      gt\n        /* \"@openzeppelin/contracts/utils/cryptography/ECDSA.sol\":6182:6346  if (uint256(s) > 0x7FFFFFFFFFFFFFFFFFFFFFFFFFFFFFFF5D576E7357A4501DDFE92F46681B20A0) {... */\n      iszero\n      tag_260\n      jumpi\n      pop\n        /* \"@openzeppelin/contracts/utils/cryptography/ECDSA.sol\":6297:6298  0 */\n      0x00\n      swap2\n      pop\n        /* \"@openzeppelin/contracts/utils/cryptography/ECDSA.sol\":6301:6331  RecoverError.InvalidSignatureS */\n      0x03\n      swap1\n      pop\n        /* \"@openzeppelin/contracts/utils/cryptography/ECDSA.sol\":6333:6334  s */\n      dup3\n        /* \"@openzeppelin/contracts/utils/cryptography/ECDSA.sol\":6281:6335  return (address(0), RecoverError.InvalidSignatureS, s) */\n      jump(tag_259)\n        /* \"@openzeppelin/contracts/utils/cryptography/ECDSA.sol\":6182:6346  if (uint256(s) > 0x7FFFFFFFFFFFFFFFFFFFFFFFFFFFFFFF5D576E7357A4501DDFE92F46681B20A0) {... */\n    tag_260:\n        /* \"@openzeppelin/contracts/utils/cryptography/ECDSA.sol\":6457:6481  ecrecover(hash, v, r, s) */\n      0x40\n      dup1\n      mload\n        /* \"@openzeppelin/contracts/utils/cryptography/ECDSA.sol\":6440:6454  address signer */\n      0x00\n        /* \"@openzeppelin/contracts/utils/cryptography/ECDSA.sol\":6457:6481  ecrecover(hash, v, r, s) */\n      dup1\n      dup3\n      mstore\n      0x20\n      dup3\n      add\n      dup1\n      dup5\n      mstore\n        /* \"#utility.yul\":13537:13562   */\n      dup11\n      swap1\n      mstore\n        /* \"#utility.yul\":13610:13614   */\n      0xff\n        /* \"#utility.yul\":13598:13615   */\n      dup10\n      and\n        /* \"#utility.yul\":13578:13596   */\n      swap3\n      dup3\n      add\n        /* \"#utility.yul\":13571:13616   */\n      swap3\n      swap1\n      swap3\n      mstore\n        /* \"#utility.yul\":13632:13650   */\n      0x60\n      dup2\n      add\n        /* \"#utility.yul\":13625:13659   */\n      dup8\n      swap1\n      mstore\n        /* \"#utility.yul\":13675:13693   */\n      0x80\n      dup2\n      add\n        /* \"#utility.yul\":13668:13702   */\n      dup7\n      swap1\n      mstore\n        /* \"@openzeppelin/contracts/utils/cryptography/ECDSA.sol\":6457:6481  ecrecover(hash, v, r, s) */\n      0x01\n      swap1\n        /* \"#utility.yul\":13509:13528   */\n      0xa0\n      add\n        /* \"@openzeppelin/contracts/utils/cryptography/ECDSA.sol\":6457:6481  ecrecover(hash, v, r, s) */\n      0x20\n      mload(0x40)\n      0x20\n      dup2\n      sub\n      swap1\n      dup1\n      dup5\n      sub\n      swap1\n      dup6\n      gas\n      staticcall\n      iszero\n      dup1\n      iszero\n      tag_264\n      jumpi\n      returndatacopy(0x00, 0x00, returndatasize)\n      revert(0x00, returndatasize)\n    tag_264:\n      pop\n      pop\n      mload(add(not(0x1f), mload(0x40)))\n      swap2\n      pop\n      pop\n      sub(shl(0xa0, 0x01), 0x01)\n        /* \"@openzeppelin/contracts/utils/cryptography/ECDSA.sol\":6495:6515  signer == address(0) */\n      dup2\n      and\n        /* \"@openzeppelin/contracts/utils/cryptography/ECDSA.sol\":6491:6604  if (signer == address(0)) {... */\n      tag_265\n      jumpi\n      pop\n        /* \"@openzeppelin/contracts/utils/cryptography/ECDSA.sol\":6547:6548  0 */\n      0x00\n      swap3\n      pop\n        /* \"@openzeppelin/contracts/utils/cryptography/ECDSA.sol\":6551:6580  RecoverError.InvalidSignature */\n      0x01\n      swap2\n      pop\n        /* \"@openzeppelin/contracts/utils/cryptography/ECDSA.sol\":6547:6548  0 */\n      dup3\n      swap1\n      pop\n        /* \"@openzeppelin/contracts/utils/cryptography/ECDSA.sol\":6531:6593  return (address(0), RecoverError.InvalidSignature, bytes32(0)) */\n      jump(tag_259)\n        /* \"@openzeppelin/contracts/utils/cryptography/ECDSA.sol\":6491:6604  if (signer == address(0)) {... */\n    tag_265:\n        /* \"@openzeppelin/contracts/utils/cryptography/ECDSA.sol\":6622:6628  signer */\n      swap3\n      pop\n        /* \"@openzeppelin/contracts/utils/cryptography/ECDSA.sol\":6630:6650  RecoverError.NoError */\n      0x00\n      swap2\n      pop\n      dup2\n      swap1\n      pop\n        /* \"@openzeppelin/contracts/utils/cryptography/ECDSA.sol\":5140:6670  function tryRecover(... */\n    tag_259:\n      swap5\n      pop\n      swap5\n      pop\n      swap5\n      swap2\n      pop\n      pop\n      jump\t// out\n        /* \"@openzeppelin/contracts/utils/cryptography/ECDSA.sol\":7196:7728  function _throwError(RecoverError error, bytes32 errorArg) private pure {... */\n    tag_258:\n        /* \"@openzeppelin/contracts/utils/cryptography/ECDSA.sol\":7291:7311  RecoverError.NoError */\n      0x00\n        /* \"@openzeppelin/contracts/utils/cryptography/ECDSA.sol\":7282:7287  error */\n      dup3\n        /* \"@openzeppelin/contracts/utils/cryptography/ECDSA.sol\":7282:7311  error == RecoverError.NoError */\n      0x03\n      dup2\n      gt\n      iszero\n      tag_271\n      jumpi\n      tag_271\n      tag_269\n      jump\t// in\n    tag_271:\n      sub\n        /* \"@openzeppelin/contracts/utils/cryptography/ECDSA.sol\":7278:7722  if (error == RecoverError.NoError) {... */\n      tag_272\n      jumpi\n        /* \"@openzeppelin/contracts/utils/cryptography/ECDSA.sol\":7196:7728  function _throwError(RecoverError error, bytes32 errorArg) private pure {... */\n      pop\n      pop\n      jump\t// out\n        /* \"@openzeppelin/contracts/utils/cryptography/ECDSA.sol\":7278:7722  if (error == RecoverError.NoError) {... */\n    tag_272:\n        /* \"@openzeppelin/contracts/utils/cryptography/ECDSA.sol\":7387:7416  RecoverError.InvalidSignature */\n      0x01\n        /* \"@openzeppelin/contracts/utils/cryptography/ECDSA.sol\":7378:7383  error */\n      dup3\n        /* \"@openzeppelin/contracts/utils/cryptography/ECDSA.sol\":7378:7416  error == RecoverError.InvalidSignature */\n      0x03\n      dup2\n      gt\n      iszero\n      tag_277\n      jumpi\n      tag_277\n      tag_269\n      jump\t// in\n    tag_277:\n      sub\n        /* \"@openzeppelin/contracts/utils/cryptography/ECDSA.sol\":7374:7722  if (error == RecoverError.InvalidSignature) {... */\n      tag_278\n      jumpi\n        /* \"@openzeppelin/contracts/utils/cryptography/ECDSA.sol\":7439:7462  ECDSAInvalidSignature() */\n      mload(0x40)\n      shl(0xe0, 0xf645eedf)\n      dup2\n      mstore\n      0x04\n      add\n      mload(0x40)\n      dup1\n      swap2\n      sub\n      swap1\n      revert\n        /* \"@openzeppelin/contracts/utils/cryptography/ECDSA.sol\":7374:7722  if (error == RecoverError.InvalidSignature) {... */\n    tag_278:\n        /* \"@openzeppelin/contracts/utils/cryptography/ECDSA.sol\":7492:7527  RecoverError.InvalidSignatureLength */\n      0x02\n        /* \"@openzeppelin/contracts/utils/cryptography/ECDSA.sol\":7483:7488  error */\n      dup3\n        /* \"@openzeppelin/contracts/utils/cryptography/ECDSA.sol\":7483:7527  error == RecoverError.InvalidSignatureLength */\n      0x03\n      dup2\n      gt\n      iszero\n      tag_283\n      jumpi\n      tag_283\n      tag_269\n      jump\t// in\n    tag_283:\n      sub\n        /* \"@openzeppelin/contracts/utils/cryptography/ECDSA.sol\":7479:7722  if (error == RecoverError.InvalidSignatureLength) {... */\n      tag_284\n      jumpi\n        /* \"@openzeppelin/contracts/utils/cryptography/ECDSA.sol\":7550:7596  ECDSAInvalidSignatureLength(uint256(errorArg)) */\n      mload(0x40)\n      shl(0xe0, 0xfce698f7)\n      dup2\n      mstore\n      0x04\n      dup2\n      add\n        /* \"#utility.yul\":1258:1283   */\n      dup3\n      swap1\n      mstore\n        /* \"#utility.yul\":1231:1249   */\n      0x24\n      add\n        /* \"@openzeppelin/contracts/utils/cryptography/ECDSA.sol\":7550:7596  ECDSAInvalidSignatureLength(uint256(errorArg)) */\n      tag_148\n        /* \"#utility.yul\":1112:1289   */\n      jump\n        /* \"@openzeppelin/contracts/utils/cryptography/ECDSA.sol\":7479:7722  if (error == RecoverError.InvalidSignatureLength) {... */\n    tag_284:\n        /* \"@openzeppelin/contracts/utils/cryptography/ECDSA.sol\":7626:7656  RecoverError.InvalidSignatureS */\n      0x03\n        /* \"@openzeppelin/contracts/utils/cryptography/ECDSA.sol\":7617:7622  error */\n      dup3\n        /* \"@openzeppelin/contracts/utils/cryptography/ECDSA.sol\":7617:7656  error == RecoverError.InvalidSignatureS */\n      0x03\n      dup2\n      gt\n      iszero\n      tag_290\n      jumpi\n      tag_290\n      tag_269\n      jump\t// in\n    tag_290:\n      sub\n        /* \"@openzeppelin/contracts/utils/cryptography/ECDSA.sol\":7613:7722  if (error == RecoverError.InvalidSignatureS) {... */\n      tag_291\n      jumpi\n        /* \"@openzeppelin/contracts/utils/cryptography/ECDSA.sol\":7679:7711  ECDSAInvalidSignatureS(errorArg) */\n      mload(0x40)\n      shl(0xe2, 0x35e2f383)\n      dup2\n      mstore\n      0x04\n      dup2\n      add\n        /* \"#utility.yul\":1258:1283   */\n      dup3\n      swap1\n      mstore\n        /* \"#utility.yul\":1231:1249   */\n      0x24\n      add\n        /* \"@openzeppelin/contracts/utils/cryptography/ECDSA.sol\":7679:7711  ECDSAInvalidSignatureS(errorArg) */\n      tag_148\n        /* \"#utility.yul\":1112:1289   */\n      jump\n        /* \"@openzeppelin/contracts/utils/cryptography/ECDSA.sol\":7613:7722  if (error == RecoverError.InvalidSignatureS) {... */\n    tag_291:\n        /* \"@openzeppelin/contracts/utils/cryptography/ECDSA.sol\":7196:7728  function _throwError(RecoverError error, bytes32 errorArg) private pure {... */\n      pop\n      pop\n      jump\t// out\n        /* \"#utility.yul\":14:432   */\n    tag_33:\n        /* \"#utility.yul\":163:165   */\n      0x20\n        /* \"#utility.yul\":152:161   */\n      dup2\n        /* \"#utility.yul\":145:166   */\n      mstore\n        /* \"#utility.yul\":126:130   */\n      0x00\n        /* \"#utility.yul\":195:201   */\n      dup3\n        /* \"#utility.yul\":189:202   */\n      mload\n        /* \"#utility.yul\":238:244   */\n      dup1\n        /* \"#utility.yul\":233:235   */\n      0x20\n        /* \"#utility.yul\":222:231   */\n      dup5\n        /* \"#utility.yul\":218:236   */\n      add\n        /* \"#utility.yul\":211:245   */\n      mstore\n        /* \"#utility.yul\":297:303   */\n      dup1\n        /* \"#utility.yul\":292:294   */\n      0x20\n        /* \"#utility.yul\":284:290   */\n      dup6\n        /* \"#utility.yul\":280:295   */\n      add\n        /* \"#utility.yul\":275:277   */\n      0x40\n        /* \"#utility.yul\":264:273   */\n      dup6\n        /* \"#utility.yul\":260:278   */\n      add\n        /* \"#utility.yul\":254:304   */\n      mcopy\n        /* \"#utility.yul\":353:354   */\n      0x00\n        /* \"#utility.yul\":348:350   */\n      0x40\n        /* \"#utility.yul\":339:345   */\n      dup3\n        /* \"#utility.yul\":328:337   */\n      dup6\n        /* \"#utility.yul\":324:346   */\n      add\n        /* \"#utility.yul\":320:351   */\n      add\n        /* \"#utility.yul\":313:355   */\n      mstore\n        /* \"#utility.yul\":423:425   */\n      0x40\n        /* \"#utility.yul\":416:418   */\n      0x1f\n        /* \"#utility.yul\":412:419   */\n      not\n        /* \"#utility.yul\":407:409   */\n      0x1f\n        /* \"#utility.yul\":399:405   */\n      dup4\n        /* \"#utility.yul\":395:410   */\n      add\n        /* \"#utility.yul\":391:420   */\n      and\n        /* \"#utility.yul\":380:389   */\n      dup5\n        /* \"#utility.yul\":376:421   */\n      add\n        /* \"#utility.yul\":372:426   */\n      add\n        /* \"#utility.yul\":364:426   */\n      swap2\n      pop\n      pop\n        /* \"#utility.yul\":14:432   */\n      swap3\n      swap2\n      pop\n      pop\n      jump\t// out\n        /* \"#utility.yul\":437:610   */\n    tag_293:\n        /* \"#utility.yul\":505:525   */\n      dup1\n      calldataload\n      sub(shl(0xa0, 0x01), 0x01)\n        /* \"#utility.yul\":554:585   */\n      dup2\n      and\n        /* \"#utility.yul\":544:586   */\n      dup2\n      eq\n        /* \"#utility.yul\":534:604   */\n      tag_301\n      jumpi\n        /* \"#utility.yul\":600:601   */\n      0x00\n        /* \"#utility.yul\":597:598   */\n      0x00\n        /* \"#utility.yul\":590:602   */\n      revert\n        /* \"#utility.yul\":534:604   */\n    tag_301:\n        /* \"#utility.yul\":437:610   */\n      swap2\n      swap1\n      pop\n      jump\t// out\n        /* \"#utility.yul\":615:915   */\n    tag_36:\n        /* \"#utility.yul\":683:689   */\n      0x00\n        /* \"#utility.yul\":691:697   */\n      0x00\n        /* \"#utility.yul\":744:746   */\n      0x40\n        /* \"#utility.yul\":732:741   */\n      dup4\n        /* \"#utility.yul\":723:730   */\n      dup6\n        /* \"#utility.yul\":719:742   */\n      sub\n        /* \"#utility.yul\":715:747   */\n      slt\n        /* \"#utility.yul\":712:764   */\n      iszero\n      tag_303\n      jumpi\n        /* \"#utility.yul\":760:761   */\n      0x00\n        /* \"#utility.yul\":757:758   */\n      0x00\n        /* \"#utility.yul\":750:762   */\n      revert\n        /* \"#utility.yul\":712:764   */\n    tag_303:\n        /* \"#utility.yul\":783:812   */\n      tag_304\n        /* \"#utility.yul\":802:811   */\n      dup4\n        /* \"#utility.yul\":783:812   */\n      tag_293\n      jump\t// in\n    tag_304:\n        /* \"#utility.yul\":773:812   */\n      swap5\n        /* \"#utility.yul\":881:883   */\n      0x20\n        /* \"#utility.yul\":866:884   */\n      swap4\n      swap1\n      swap4\n      add\n        /* \"#utility.yul\":853:885   */\n      calldataload\n      swap4\n      pop\n      pop\n      pop\n        /* \"#utility.yul\":615:915   */\n      jump\t// out\n        /* \"#utility.yul\":1294:1668   */\n    tag_46:\n        /* \"#utility.yul\":1371:1377   */\n      0x00\n        /* \"#utility.yul\":1379:1385   */\n      0x00\n        /* \"#utility.yul\":1387:1393   */\n      0x00\n        /* \"#utility.yul\":1440:1442   */\n      0x60\n        /* \"#utility.yul\":1428:1437   */\n      dup5\n        /* \"#utility.yul\":1419:1426   */\n      dup7\n        /* \"#utility.yul\":1415:1438   */\n      sub\n        /* \"#utility.yul\":1411:1443   */\n      slt\n        /* \"#utility.yul\":1408:1460   */\n      iszero\n      tag_308\n      jumpi\n        /* \"#utility.yul\":1456:1457   */\n      0x00\n        /* \"#utility.yul\":1453:1454   */\n      0x00\n        /* \"#utility.yul\":1446:1458   */\n      revert\n        /* \"#utility.yul\":1408:1460   */\n    tag_308:\n        /* \"#utility.yul\":1479:1508   */\n      tag_309\n        /* \"#utility.yul\":1498:1507   */\n      dup5\n        /* \"#utility.yul\":1479:1508   */\n      tag_293\n      jump\t// in\n    tag_309:\n        /* \"#utility.yul\":1469:1508   */\n      swap3\n      pop\n        /* \"#utility.yul\":1527:1565   */\n      tag_310\n        /* \"#utility.yul\":1561:1563   */\n      0x20\n        /* \"#utility.yul\":1550:1559   */\n      dup6\n        /* \"#utility.yul\":1546:1564   */\n      add\n        /* \"#utility.yul\":1527:1565   */\n      tag_293\n      jump\t// in\n    tag_310:\n        /* \"#utility.yul\":1294:1668   */\n      swap3\n      swap6\n        /* \"#utility.yul\":1517:1565   */\n      swap3\n      swap5\n      pop\n      pop\n      pop\n        /* \"#utility.yul\":1634:1636   */\n      0x40\n        /* \"#utility.yul\":1619:1637   */\n      swap2\n      swap1\n      swap2\n      add\n        /* \"#utility.yul\":1606:1638   */\n      calldataload\n      swap1\n        /* \"#utility.yul\":1294:1668   */\n      jump\t// out\n        /* \"#utility.yul\":2044:2270   */\n    tag_66:\n        /* \"#utility.yul\":2103:2109   */\n      0x00\n        /* \"#utility.yul\":2156:2158   */\n      0x20\n        /* \"#utility.yul\":2144:2153   */\n      dup3\n        /* \"#utility.yul\":2135:2142   */\n      dup5\n        /* \"#utility.yul\":2131:2154   */\n      sub\n        /* \"#utility.yul\":2127:2159   */\n      slt\n        /* \"#utility.yul\":2124:2176   */\n      iszero\n      tag_314\n      jumpi\n        /* \"#utility.yul\":2172:2173   */\n      0x00\n        /* \"#utility.yul\":2169:2170   */\n      0x00\n        /* \"#utility.yul\":2162:2174   */\n      revert\n        /* \"#utility.yul\":2124:2176   */\n    tag_314:\n      pop\n        /* \"#utility.yul\":2217:2240   */\n      calldataload\n      swap2\n        /* \"#utility.yul\":2044:2270   */\n      swap1\n      pop\n      jump\t// out\n        /* \"#utility.yul\":2275:2461   */\n    tag_70:\n        /* \"#utility.yul\":2334:2340   */\n      0x00\n        /* \"#utility.yul\":2387:2389   */\n      0x20\n        /* \"#utility.yul\":2375:2384   */\n      dup3\n        /* \"#utility.yul\":2366:2373   */\n      dup5\n        /* \"#utility.yul\":2362:2385   */\n      sub\n        /* \"#utility.yul\":2358:2390   */\n      slt\n        /* \"#utility.yul\":2355:2407   */\n      iszero\n      tag_316\n      jumpi\n        /* \"#utility.yul\":2403:2404   */\n      0x00\n        /* \"#utility.yul\":2400:2401   */\n      0x00\n        /* \"#utility.yul\":2393:2405   */\n      revert\n        /* \"#utility.yul\":2355:2407   */\n    tag_316:\n        /* \"#utility.yul\":2426:2455   */\n      tag_317\n        /* \"#utility.yul\":2445:2454   */\n      dup3\n        /* \"#utility.yul\":2426:2455   */\n      tag_293\n      jump\t// in\n    tag_317:\n        /* \"#utility.yul\":2416:2455   */\n      swap4\n        /* \"#utility.yul\":2275:2461   */\n      swap3\n      pop\n      pop\n      pop\n      jump\t// out\n        /* \"#utility.yul\":2854:3757   */\n    tag_109:\n        /* \"#utility.yul\":2965:2971   */\n      0x00\n        /* \"#utility.yul\":2973:2979   */\n      0x00\n        /* \"#utility.yul\":2981:2987   */\n      0x00\n        /* \"#utility.yul\":2989:2995   */\n      0x00\n        /* \"#utility.yul\":2997:3003   */\n      0x00\n        /* \"#utility.yul\":3005:3011   */\n      0x00\n        /* \"#utility.yul\":3013:3019   */\n      0x00\n        /* \"#utility.yul\":3066:3069   */\n      0xe0\n        /* \"#utility.yul\":3054:3063   */\n      dup9\n        /* \"#utility.yul\":3045:3052   */\n      dup11\n        /* \"#utility.yul\":3041:3064   */\n      sub\n        /* \"#utility.yul\":3037:3070   */\n      slt\n        /* \"#utility.yul\":3034:3087   */\n      iszero\n      tag_321\n      jumpi\n        /* \"#utility.yul\":3083:3084   */\n      0x00\n        /* \"#utility.yul\":3080:3081   */\n      0x00\n        /* \"#utility.yul\":3073:3085   */\n      revert\n        /* \"#utility.yul\":3034:3087   */\n    tag_321:\n        /* \"#utility.yul\":3106:3135   */\n      tag_322\n        /* \"#utility.yul\":3125:3134   */\n      dup9\n        /* \"#utility.yul\":3106:3135   */\n      tag_293\n      jump\t// in\n    tag_322:\n        /* \"#utility.yul\":3096:3135   */\n      swap7\n      pop\n        /* \"#utility.yul\":3154:3192   */\n      tag_323\n        /* \"#utility.yul\":3188:3190   */\n      0x20\n        /* \"#utility.yul\":3177:3186   */\n      dup10\n        /* \"#utility.yul\":3173:3191   */\n      add\n        /* \"#utility.yul\":3154:3192   */\n      tag_293\n      jump\t// in\n    tag_323:\n        /* \"#utility.yul\":3144:3192   */\n      swap6\n      pop\n        /* \"#utility.yul\":3261:3263   */\n      0x40\n        /* \"#utility.yul\":3246:3264   */\n      dup9\n      add\n        /* \"#utility.yul\":3233:3265   */\n      calldataload\n      swap5\n      pop\n        /* \"#utility.yul\":3362:3364   */\n      0x60\n        /* \"#utility.yul\":3347:3365   */\n      dup9\n      add\n        /* \"#utility.yul\":3334:3366   */\n      calldataload\n      swap4\n      pop\n        /* \"#utility.yul\":3444:3447   */\n      0x80\n        /* \"#utility.yul\":3429:3448   */\n      dup9\n      add\n        /* \"#utility.yul\":3416:3449   */\n      calldataload\n        /* \"#utility.yul\":3493:3497   */\n      0xff\n        /* \"#utility.yul\":3480:3498   */\n      dup2\n      and\n        /* \"#utility.yul\":3468:3499   */\n      dup2\n      eq\n        /* \"#utility.yul\":3458:3517   */\n      tag_324\n      jumpi\n        /* \"#utility.yul\":3513:3514   */\n      0x00\n        /* \"#utility.yul\":3510:3511   */\n      0x00\n        /* \"#utility.yul\":3503:3515   */\n      revert\n        /* \"#utility.yul\":3458:3517   */\n    tag_324:\n        /* \"#utility.yul\":2854:3757   */\n      swap7\n      swap10\n      swap6\n      swap9\n      pop\n      swap4\n      swap7\n      swap3\n      swap6\n        /* \"#utility.yul\":3536:3543   */\n      swap5\n        /* \"#utility.yul\":3616:3619   */\n      0xa0\n        /* \"#utility.yul\":3601:3620   */\n      dup5\n      add\n        /* \"#utility.yul\":3588:3621   */\n      calldataload\n      swap5\n      pop\n        /* \"#utility.yul\":3720:3723   */\n      0xc0\n        /* \"#utility.yul\":3705:3724   */\n      swap1\n      swap4\n      add\n        /* \"#utility.yul\":3692:3725   */\n      calldataload\n      swap3\n        /* \"#utility.yul\":2854:3757   */\n      swap2\n      pop\n      pop\n      jump\t// out\n        /* \"#utility.yul\":3762:4022   */\n    tag_113:\n        /* \"#utility.yul\":3830:3836   */\n      0x00\n        /* \"#utility.yul\":3838:3844   */\n      0x00\n        /* \"#utility.yul\":3891:3893   */\n      0x40\n        /* \"#utility.yul\":3879:3888   */\n      dup4\n        /* \"#utility.yul\":3870:3877   */\n      dup6\n        /* \"#utility.yul\":3866:3889   */\n      sub\n        /* \"#utility.yul\":3862:3894   */\n      slt\n        /* \"#utility.yul\":3859:3911   */\n      iszero\n      tag_326\n      jumpi\n        /* \"#utility.yul\":3907:3908   */\n      0x00\n        /* \"#utility.yul\":3904:3905   */\n      0x00\n        /* \"#utility.yul\":3897:3909   */\n      revert\n        /* \"#utility.yul\":3859:3911   */\n    tag_326:\n        /* \"#utility.yul\":3930:3959   */\n      tag_327\n        /* \"#utility.yul\":3949:3958   */\n      dup4\n        /* \"#utility.yul\":3930:3959   */\n      tag_293\n      jump\t// in\n    tag_327:\n        /* \"#utility.yul\":3920:3959   */\n      swap2\n      pop\n        /* \"#utility.yul\":3978:4016   */\n      tag_328\n        /* \"#utility.yul\":4012:4014   */\n      0x20\n        /* \"#utility.yul\":4001:4010   */\n      dup5\n        /* \"#utility.yul\":3997:4015   */\n      add\n        /* \"#utility.yul\":3978:4016   */\n      tag_293\n      jump\t// in\n    tag_328:\n        /* \"#utility.yul\":3968:4016   */\n      swap1\n      pop\n        /* \"#utility.yul\":3762:4022   */\n      swap3\n      pop\n      swap3\n      swap1\n      pop\n      jump\t// out\n        /* \"#utility.yul\":4027:4407   */\n    tag_123:\n        /* \"#utility.yul\":4106:4107   */\n      0x01\n        /* \"#utility.yul\":4102:4114   */\n      dup2\n      dup2\n      shr\n      swap1\n        /* \"#utility.yul\":4149:4161   */\n      dup3\n      and\n      dup1\n        /* \"#utility.yul\":4170:4231   */\n      tag_330\n      jumpi\n        /* \"#utility.yul\":4224:4228   */\n      0x7f\n        /* \"#utility.yul\":4216:4222   */\n      dup3\n        /* \"#utility.yul\":4212:4229   */\n      and\n        /* \"#utility.yul\":4202:4229   */\n      swap2\n      pop\n        /* \"#utility.yul\":4170:4231   */\n    tag_330:\n        /* \"#utility.yul\":4277:4279   */\n      0x20\n        /* \"#utility.yul\":4269:4275   */\n      dup3\n        /* \"#utility.yul\":4266:4280   */\n      lt\n        /* \"#utility.yul\":4246:4264   */\n      dup2\n        /* \"#utility.yul\":4243:4281   */\n      sub\n        /* \"#utility.yul\":4240:4401   */\n      tag_331\n      jumpi\n        /* \"#utility.yul\":4323:4333   */\n      0x4e487b71\n        /* \"#utility.yul\":4318:4321   */\n      0xe0\n        /* \"#utility.yul\":4314:4334   */\n      shl\n        /* \"#utility.yul\":4311:4312   */\n      0x00\n        /* \"#utility.yul\":4304:4335   */\n      mstore\n        /* \"#utility.yul\":4358:4362   */\n      0x22\n        /* \"#utility.yul\":4355:4356   */\n      0x04\n        /* \"#utility.yul\":4348:4363   */\n      mstore\n        /* \"#utility.yul\":4386:4390   */\n      0x24\n        /* \"#utility.yul\":4383:4384   */\n      0x00\n        /* \"#utility.yul\":4376:4391   */\n      revert\n        /* \"#utility.yul\":4240:4401   */\n    tag_331:\n      pop\n        /* \"#utility.yul\":4027:4407   */\n      swap2\n      swap1\n      pop\n      jump\t// out\n        /* \"#utility.yul\":4412:4539   */\n    tag_294:\n        /* \"#utility.yul\":4473:4483   */\n      0x4e487b71\n        /* \"#utility.yul\":4468:4471   */\n      0xe0\n        /* \"#utility.yul\":4464:4484   */\n      shl\n        /* \"#utility.yul\":4461:4462   */\n      0x00\n        /* \"#utility.yul\":4454:4485   */\n      mstore\n        /* \"#utility.yul\":4504:4508   */\n      0x11\n        /* \"#utility.yul\":4501:4502   */\n      0x04\n        /* \"#utility.yul\":4494:4509   */\n      mstore\n        /* \"#utility.yul\":4528:4532   */\n      0x24\n        /* \"#utility.yul\":4525:4526   */\n      0x00\n        /* \"#utility.yul\":4518:4533   */\n      revert\n        /* \"#utility.yul\":4544:4672   */\n    tag_137:\n        /* \"#utility.yul\":4611:4620   */\n      dup2\n      dup2\n      sub\n        /* \"#utility.yul\":4632:4643   */\n      dup2\n      dup2\n      gt\n        /* \"#utility.yul\":4629:4666   */\n      iszero\n      tag_128\n      jumpi\n        /* \"#utility.yul\":4646:4664   */\n      tag_128\n      tag_294\n      jump\t// in\n        /* \"#utility.yul\":4677:4802   */\n    tag_141:\n        /* \"#utility.yul\":4742:4751   */\n      dup1\n      dup3\n      add\n        /* \"#utility.yul\":4763:4773   */\n      dup1\n      dup3\n      gt\n        /* \"#utility.yul\":4760:4796   */\n      iszero\n      tag_128\n      jumpi\n        /* \"#utility.yul\":4776:4794   */\n      tag_128\n      tag_294\n      jump\t// in\n        /* \"#utility.yul\":4807:5154   */\n    tag_149:\n        /* \"#utility.yul\":5009:5011   */\n      0x20\n        /* \"#utility.yul\":4991:5012   */\n      dup1\n      dup3\n      mstore\n        /* \"#utility.yul\":5048:5050   */\n      0x17\n        /* \"#utility.yul\":5028:5046   */\n      swap1\n      dup3\n      add\n        /* \"#utility.yul\":5021:5051   */\n      mstore\n        /* \"#utility.yul\":5087:5112   */\n      0x43616c6c6572206973206e6f7420746865206f776e6572000000000000000000\n        /* \"#utility.yul\":5082:5084   */\n      0x40\n        /* \"#utility.yul\":5067:5085   */\n      dup3\n      add\n        /* \"#utility.yul\":5060:5113   */\n      mstore\n        /* \"#utility.yul\":5145:5147   */\n      0x60\n        /* \"#utility.yul\":5130:5148   */\n      add\n      swap1\n        /* \"#utility.yul\":4807:5154   */\n      jump\t// out\n        /* \"#utility.yul\":5159:5534   */\n    tag_295:\n        /* \"#utility.yul\":5247:5248   */\n      0x01\n        /* \"#utility.yul\":5265:5270   */\n      dup2\n        /* \"#utility.yul\":5279:5528   */\n    tag_341:\n        /* \"#utility.yul\":5300:5301   */\n      0x01\n        /* \"#utility.yul\":5290:5298   */\n      dup5\n        /* \"#utility.yul\":5287:5302   */\n      gt\n        /* \"#utility.yul\":5279:5528   */\n      iszero\n      tag_343\n      jumpi\n        /* \"#utility.yul\":5350:5354   */\n      dup1\n        /* \"#utility.yul\":5345:5348   */\n      dup6\n        /* \"#utility.yul\":5341:5355   */\n      div\n        /* \"#utility.yul\":5335:5339   */\n      dup2\n        /* \"#utility.yul\":5332:5356   */\n      gt\n        /* \"#utility.yul\":5329:5379   */\n      iszero\n      tag_345\n      jumpi\n        /* \"#utility.yul\":5359:5377   */\n      tag_345\n      tag_294\n      jump\t// in\n    tag_345:\n        /* \"#utility.yul\":5409:5410   */\n      0x01\n        /* \"#utility.yul\":5399:5407   */\n      dup5\n        /* \"#utility.yul\":5395:5411   */\n      and\n        /* \"#utility.yul\":5392:5441   */\n      iszero\n      tag_346\n      jumpi\n        /* \"#utility.yul\":5423:5439   */\n      swap1\n      dup2\n      mul\n      swap1\n        /* \"#utility.yul\":5392:5441   */\n    tag_346:\n        /* \"#utility.yul\":5506:5507   */\n      0x01\n        /* \"#utility.yul\":5502:5518   */\n      swap4\n      swap1\n      swap4\n      shr\n      swap3\n        /* \"#utility.yul\":5462:5477   */\n      dup1\n      mul\n        /* \"#utility.yul\":5279:5528   */\n      jump(tag_341)\n    tag_343:\n        /* \"#utility.yul\":5159:5534   */\n      swap4\n      pop\n      swap4\n      swap2\n      pop\n      pop\n      jump\t// out\n        /* \"#utility.yul\":5539:6441   */\n    tag_296:\n        /* \"#utility.yul\":5588:5593   */\n      0x00\n        /* \"#utility.yul\":5618:5626   */\n      dup3\n        /* \"#utility.yul\":5608:5688   */\n      tag_348\n      jumpi\n      pop\n        /* \"#utility.yul\":5659:5660   */\n      0x01\n        /* \"#utility.yul\":5673:5678   */\n      jump(tag_128)\n        /* \"#utility.yul\":5608:5688   */\n    tag_348:\n        /* \"#utility.yul\":5707:5711   */\n      dup2\n        /* \"#utility.yul\":5697:5773   */\n      tag_349\n      jumpi\n      pop\n        /* \"#utility.yul\":5744:5745   */\n      0x00\n        /* \"#utility.yul\":5758:5763   */\n      jump(tag_128)\n        /* \"#utility.yul\":5697:5773   */\n    tag_349:\n        /* \"#utility.yul\":5789:5793   */\n      dup2\n        /* \"#utility.yul\":5807:5808   */\n      0x01\n        /* \"#utility.yul\":5802:5861   */\n      dup2\n      eq\n      tag_351\n      jumpi\n        /* \"#utility.yul\":5875:5876   */\n      0x02\n        /* \"#utility.yul\":5870:6044   */\n      dup2\n      eq\n      tag_352\n      jumpi\n        /* \"#utility.yul\":5782:6044   */\n      jump(tag_350)\n        /* \"#utility.yul\":5802:5861   */\n    tag_351:\n        /* \"#utility.yul\":5832:5833   */\n      0x01\n        /* \"#utility.yul\":5823:5833   */\n      swap2\n      pop\n        /* \"#utility.yul\":5846:5851   */\n      pop\n      jump(tag_128)\n        /* \"#utility.yul\":5870:6044   */\n    tag_352:\n        /* \"#utility.yul\":5907:5910   */\n      0xff\n        /* \"#utility.yul\":5897:5905   */\n      dup5\n        /* \"#utility.yul\":5894:5911   */\n      gt\n        /* \"#utility.yul\":5891:5934   */\n      iszero\n      tag_354\n      jumpi\n        /* \"#utility.yul\":5914:5932   */\n      tag_354\n      tag_294\n      jump\t// in\n    tag_354:\n      pop\n      pop\n        /* \"#utility.yul\":5970:5971   */\n      0x01\n        /* \"#utility.yul\":5956:5972   */\n      dup3\n      shl\n        /* \"#utility.yul\":6029:6034   */\n      jump(tag_128)\n        /* \"#utility.yul\":5782:6044   */\n    tag_350:\n      pop\n        /* \"#utility.yul\":6128:6130   */\n      0x20\n        /* \"#utility.yul\":6118:6126   */\n      dup4\n        /* \"#utility.yul\":6115:6131   */\n      lt\n        /* \"#utility.yul\":6109:6112   */\n      0x0133\n        /* \"#utility.yul\":6103:6107   */\n      dup4\n        /* \"#utility.yul\":6100:6113   */\n      lt\n        /* \"#utility.yul\":6096:6132   */\n      and\n        /* \"#utility.yul\":6090:6092   */\n      0x4e\n        /* \"#utility.yul\":6080:6088   */\n      dup5\n        /* \"#utility.yul\":6077:6093   */\n      lt\n        /* \"#utility.yul\":6072:6074   */\n      0x0b\n        /* \"#utility.yul\":6066:6070   */\n      dup5\n        /* \"#utility.yul\":6063:6075   */\n      lt\n        /* \"#utility.yul\":6059:6094   */\n      and\n        /* \"#utility.yul\":6056:6133   */\n      or\n        /* \"#utility.yul\":6053:6256   */\n      iszero\n      tag_355\n      jumpi\n      pop\n        /* \"#utility.yul\":6165:6184   */\n      dup2\n      dup2\n      exp\n        /* \"#utility.yul\":6241:6246   */\n      jump(tag_128)\n        /* \"#utility.yul\":6053:6256   */\n    tag_355:\n        /* \"#utility.yul\":6288:6330   */\n      tag_356\n      not(0x00)\n        /* \"#utility.yul\":6313:6321   */\n      dup5\n        /* \"#utility.yul\":6307:6311   */\n      dup5\n        /* \"#utility.yul\":6288:6330   */\n      tag_295\n      jump\t// in\n    tag_356:\n        /* \"#utility.yul\":6366:6372   */\n      dup1\n        /* \"#utility.yul\":6362:6363   */\n      0x00\n        /* \"#utility.yul\":6358:6364   */\n      not\n        /* \"#utility.yul\":6354:6373   */\n      div\n        /* \"#utility.yul\":6345:6352   */\n      dup3\n        /* \"#utility.yul\":6342:6374   */\n      gt\n        /* \"#utility.yul\":6339:6397   */\n      iszero\n      tag_358\n      jumpi\n        /* \"#utility.yul\":6377:6395   */\n      tag_358\n      tag_294\n      jump\t// in\n    tag_358:\n        /* \"#utility.yul\":6415:6435   */\n      mul\n      swap4\n        /* \"#utility.yul\":5539:6441   */\n      swap3\n      pop\n      pop\n      pop\n      jump\t// out\n        /* \"#utility.yul\":6446:6577   */\n    tag_152:\n        /* \"#utility.yul\":6506:6511   */\n      0x00\n        /* \"#utility.yul\":6535:6571   */\n      tag_317\n        /* \"#utility.yul\":6562:6570   */\n      dup4\n        /* \"#utility.yul\":6556:6560   */\n      dup4\n        /* \"#utility.yul\":6535:6571   */\n      tag_296\n      jump\t// in\n        /* \"#utility.yul\":6582:6750   */\n    tag_154:\n        /* \"#utility.yul\":6655:6664   */\n      dup1\n      dup3\n      mul\n        /* \"#utility.yul\":6686:6695   */\n      dup2\n      iszero\n        /* \"#utility.yul\":6703:6718   */\n      dup3\n      dup3\n      div\n        /* \"#utility.yul\":6697:6719   */\n      dup5\n      eq\n        /* \"#utility.yul\":6683:6720   */\n      or\n        /* \"#utility.yul\":6673:6744   */\n      tag_128\n      jumpi\n        /* \"#utility.yul\":6724:6742   */\n      tag_128\n      tag_294\n      jump\t// in\n        /* \"#utility.yul\":6755:6934   */\n    tag_297:\n        /* \"#utility.yul\":6833:6846   */\n      dup1\n      mload\n        /* \"#utility.yul\":6886:6908   */\n      0xffffffffffffffffffff\n        /* \"#utility.yul\":6875:6909   */\n      dup2\n      and\n        /* \"#utility.yul\":6865:6910   */\n      dup2\n      eq\n        /* \"#utility.yul\":6855:6928   */\n      tag_301\n      jumpi\n        /* \"#utility.yul\":6924:6925   */\n      0x00\n        /* \"#utility.yul\":6921:6922   */\n      0x00\n        /* \"#utility.yul\":6914:6926   */\n      revert\n        /* \"#utility.yul\":6939:7510   */\n    tag_162:\n        /* \"#utility.yul\":7042:7048   */\n      0x00\n        /* \"#utility.yul\":7050:7056   */\n      0x00\n        /* \"#utility.yul\":7058:7064   */\n      0x00\n        /* \"#utility.yul\":7066:7072   */\n      0x00\n        /* \"#utility.yul\":7074:7080   */\n      0x00\n        /* \"#utility.yul\":7127:7130   */\n      0xa0\n        /* \"#utility.yul\":7115:7124   */\n      dup7\n        /* \"#utility.yul\":7106:7113   */\n      dup9\n        /* \"#utility.yul\":7102:7125   */\n      sub\n        /* \"#utility.yul\":7098:7131   */\n      slt\n        /* \"#utility.yul\":7095:7148   */\n      iszero\n      tag_367\n      jumpi\n        /* \"#utility.yul\":7144:7145   */\n      0x00\n        /* \"#utility.yul\":7141:7142   */\n      0x00\n        /* \"#utility.yul\":7134:7146   */\n      revert\n        /* \"#utility.yul\":7095:7148   */\n    tag_367:\n        /* \"#utility.yul\":7167:7206   */\n      tag_368\n        /* \"#utility.yul\":7196:7205   */\n      dup7\n        /* \"#utility.yul\":7167:7206   */\n      tag_297\n      jump\t// in\n    tag_368:\n        /* \"#utility.yul\":7246:7248   */\n      0x20\n        /* \"#utility.yul\":7231:7249   */\n      dup8\n      add\n        /* \"#utility.yul\":7225:7250   */\n      mload\n        /* \"#utility.yul\":7312:7314   */\n      0x40\n        /* \"#utility.yul\":7297:7315   */\n      dup9\n      add\n        /* \"#utility.yul\":7291:7316   */\n      mload\n        /* \"#utility.yul\":7406:7408   */\n      0x60\n        /* \"#utility.yul\":7391:7409   */\n      dup10\n      add\n        /* \"#utility.yul\":7385:7410   */\n      mload\n        /* \"#utility.yul\":7157:7206   */\n      swap3\n      swap8\n      pop\n        /* \"#utility.yul\":7225:7250   */\n      swap1\n      swap6\n      pop\n        /* \"#utility.yul\":7291:7316   */\n      swap4\n      pop\n        /* \"#utility.yul\":7385:7410   */\n      swap2\n      pop\n        /* \"#utility.yul\":7455:7504   */\n      tag_369\n        /* \"#utility.yul\":7499:7502   */\n      0x80\n        /* \"#utility.yul\":7484:7503   */\n      dup8\n      add\n        /* \"#utility.yul\":7455:7504   */\n      tag_297\n      jump\t// in\n    tag_369:\n        /* \"#utility.yul\":7445:7504   */\n      swap1\n      pop\n        /* \"#utility.yul\":6939:7510   */\n      swap3\n      swap6\n      pop\n      swap3\n      swap6\n      swap1\n      swap4\n      pop\n      jump\t// out\n        /* \"#utility.yul\":8219:8354   */\n    tag_190:\n        /* \"#utility.yul\":8258:8261   */\n      0x00\n        /* \"#utility.yul\":8279:8296   */\n      0x01\n      dup3\n      add\n        /* \"#utility.yul\":8276:8319   */\n      tag_374\n      jumpi\n        /* \"#utility.yul\":8299:8317   */\n      tag_374\n      tag_294\n      jump\t// in\n    tag_374:\n      pop\n        /* \"#utility.yul\":8346:8347   */\n      0x01\n        /* \"#utility.yul\":8335:8348   */\n      add\n      swap1\n        /* \"#utility.yul\":8219:8354   */\n      jump\t// out\n        /* \"#utility.yul\":13713:13840   */\n    tag_269:\n        /* \"#utility.yul\":13774:13784   */\n      0x4e487b71\n        /* \"#utility.yul\":13769:13772   */\n      0xe0\n        /* \"#utility.yul\":13765:13785   */\n      shl\n        /* \"#utility.yul\":13762:13763   */\n      0x00\n        /* \"#utility.yul\":13755:13786   */\n      mstore\n        /* \"#utility.yul\":13805:13809   */\n      0x21\n        /* \"#utility.yul\":13802:13803   */\n      0x04\n        /* \"#utility.yul\":13795:13810   */\n      mstore\n        /* \"#utility.yul\":13829:13833   */\n      0x24\n        /* \"#utility.yul\":13826:13827   */\n      0x00\n        /* \"#utility.yul\":13819:13834   */\n      revert\n\n    auxdata: 0xa26469706673582212201b380172889bf6646475826167a456827a65ebc22be86d4ebaa9e74cd6a331f664736f6c634300081b0033\n}\n",
				"bytecode": {
					"linkReferences": {},
					"object": "60c06040526003608090815262424f4760e81b60a0526001906100229082610344565b50604080518082019091526003815262424f4760e81b602082015260029061004a9082610344565b506003805460ff19166012179055662386f26fc1000060055534801561006e575f5ffd5b506040516119e83803806119e883398101604081905261008d916103fe565b5f80546001600160a01b0319163390811782556040519091907f8be0079c531659141344cd1fd0a4f28419497f9722a3daafe3b4186f6b6457e0908290a360405146907f8b73c3c69bb8fe3d512ecc4cf759cc79239f7b179b0ffacaa9a75d522b39400f906100fe90600190610438565b60408051918290038220828201825260018352603160f81b6020938401528151928301939093528101919091527fc89efdaa54c0f20c7adf612882df0950f5a951637e0307cdcb4c672f298b8bc66060820152608081018290523060a082015260c00160408051601f198184030181529190528051602090910120600a9081556003546101a59133916101969160ff909116906105a2565b6101a090866105b4565b6101cc565b50600680546001600160a01b0319166001600160a01b0392909216919091179055506105de565b6001600160a01b0382166102265760405162461bcd60e51b815260206004820152601860248201527f4d696e7420746f20746865207a65726f20616464726573730000000000000000604482015260640160405180910390fd5b8060045f82825461023791906105cb565b90915550506001600160a01b0382165f90815260076020526040812080548392906102639084906105cb565b90915550506040518181526001600160a01b038316905f907fddf252ad1be2c89b69c2b068fc378daa952ba7f163c4a11628f55a4df523b3ef9060200160405180910390a35050565b634e487b7160e01b5f52604160045260245ffd5b600181811c908216806102d457607f821691505b6020821081036102f257634e487b7160e01b5f52602260045260245ffd5b50919050565b601f82111561033f57805f5260205f20601f840160051c8101602085101561031d5750805b601f840160051c820191505b8181101561033c575f8155600101610329565b50505b505050565b81516001600160401b0381111561035d5761035d6102ac565b6103718161036b84546102c0565b846102f8565b6020601f8211600181146103a3575f831561038c5750848201515b5f19600385901b1c1916600184901b17845561033c565b5f84815260208120601f198516915b828110156103d257878501518255602094850194600190920191016103b2565b50848210156103ef57868401515f19600387901b60f8161c191681555b50505050600190811b01905550565b5f5f6040838503121561040f575f5ffd5b825160208401519092506001600160a01b038116811461042d575f5ffd5b809150509250929050565b5f5f8354610445816102c0565b60018216801561045c57600181146104715761049e565b60ff198316865281151582028601935061049e565b865f5260205f205f5b838110156104965781548882015260019091019060200161047a565b505081860193505b509195945050505050565b634e487b7160e01b5f52601160045260245ffd5b6001815b60018411156104f8578085048111156104dc576104dc6104a9565b60018416156104ea57908102905b60019390931c9280026104c1565b935093915050565b5f8261050e5750600161059c565b8161051a57505f61059c565b8160018114610530576002811461053a57610556565b600191505061059c565b60ff84111561054b5761054b6104a9565b50506001821b61059c565b5060208310610133831016604e8410600b8410161715610579575081810a61059c565b6105855f1984846104bd565b805f1904821115610598576105986104a9565b0290505b92915050565b5f6105ad8383610500565b9392505050565b808202811582820484141761059c5761059c6104a9565b8082018082111561059c5761059c6104a9565b6113fd806105eb5f395ff3fe608060405234801561000f575f5ffd5b5060043610610153575f3560e01c80638da5cb5b116100bf578063d03a404511610079578063d03a4045146102e6578063d41edb7b146102f9578063d505accf14610302578063dd62ed3e14610315578063ee7d72b41461034d578063f2fde38b14610360575f5ffd5b80638da5cb5b146102835780638e15f4731461029d57806395d89b41146102a5578063a0712d68146102ad578063a457c2d7146102c0578063a9059cbb146102d3575f5ffd5b80633644e515116101105780633644e51514610203578063395093511461020c57806342966c681461021f57806370a0823114610234578063785946f41461025c5780637ecebe0014610264575f5ffd5b806306fdde0314610157578063095ea7b31461017557806318160ddd1461019857806323b872dd146101aa57806330adf81f146101bd578063313ce567146101e4575b5f5ffd5b61015f610373565b60405161016c9190610fff565b60405180910390f35b61018861018336600461104f565b6103ff565b604051901515815260200161016c565b6004545b60405190815260200161016c565b6101886101b8366004611077565b610415565b61019c7f6e71edae12b1b97f4d1f60370fef10105fa2faae0126114a169c64845d6126c981565b6003546101f19060ff1681565b60405160ff909116815260200161016c565b61019c600a5481565b61018861021a36600461104f565b610465565b61023261022d3660046110b1565b61049b565b005b61019c6102423660046110c8565b6001600160a01b03165f9081526007602052604090205490565b6102326104a8565b61019c6102723660046110c8565b60096020525f908152604090205481565b5f546040516001600160a01b03909116815260200161016c565b61019c610505565b61015f610586565b6102326102bb3660046110b1565b610593565b6101886102ce36600461104f565b6105c6565b6101886102e136600461104f565b610648565b6102326102f43660046110b1565b610654565b61019c60055481565b6102326103103660046110e8565b610682565b61019c610323366004611155565b6001600160a01b039182165f90815260086020908152604080832093909416825291909152205490565b61023261035b3660046110b1565b610826565b61023261036e3660046110c8565b6108aa565b6001805461038090611186565b80601f01602080910402602001604051908101604052809291908181526020018280546103ac90611186565b80156103f75780601f106103ce576101008083540402835291602001916103f7565b820191905f5260205f20905b8154815290600101906020018083116103da57829003601f168201915b505050505081565b5f61040b338484610982565b5060015b92915050565b5f610421848484610a8f565b6001600160a01b0384165f9081526008602090815260408083203380855292529091205461045b9186916104569086906111d2565b610982565b5060019392505050565b335f8181526008602090815260408083206001600160a01b0387168452909152812054909161040b9185906104569086906111e5565b6104a53382610c3c565b50565b5f546001600160a01b031633146104da5760405162461bcd60e51b81526004016104d1906111f8565b60405180910390fd5b6003545f906104ed9060ff16600a611312565b6104f990610bb861131d565b90506104a53382610d73565b5f5f60065f9054906101000a90046001600160a01b03166001600160a01b031663feaf968c6040518163ffffffff1660e01b815260040160a060405180830381865afa158015610557573d5f5f3e3d5ffd5b505050506040513d601f19601f8201168201806040525081019061057b919061134d565b509195945050505050565b6002805461038090611186565b5f546001600160a01b031633146105bc5760405162461bcd60e51b81526004016104d1906111f8565b6104a53382610d73565b335f9081526008602090815260408083206001600160a01b0386168452909152812054828110156106395760405162461bcd60e51b815260206004820152601e60248201527f44656372656173656420616c6c6f77616e63652062656c6f77207a65726f000060448201526064016104d1565b61045b338561045686856111d2565b5f61040b338484610a8f565b5f546001600160a01b0316331461067d5760405162461bcd60e51b81526004016104d1906111f8565b600555565b428410156106c55760405162461bcd60e51b815260206004820152601060248201526f4578706972656420646561646c696e6560801b60448201526064016104d1565b6001600160a01b0387165f90815260096020526040812080547f6e71edae12b1b97f4d1f60370fef10105fa2faae0126114a169c64845d6126c9918a918a918a9190866107118361139b565b909155506040805160208101969096526001600160a01b0394851690860152929091166060840152608083015260a082015260c0810186905260e0016040516020818303038152906040528051906020012090505f600a548260405160200161079192919061190160f01b81526002810192909252602282015260420190565b60408051601f19818403018152919052805160209091012090505f6107b882878787610e4f565b9050896001600160a01b0316816001600160a01b03161461080f5760405162461bcd60e51b8152602060048201526011602482015270496e76616c6964207369676e617475726560781b60448201526064016104d1565b61081a8a8a8a610982565b50505050505050505050565b5f546001600160a01b0316331461084f5760405162461bcd60e51b81526004016104d1906111f8565b5f81116104a55760405162461bcd60e51b815260206004820152602360248201527f476173206c696d6974206d7573742062652067726561746572207468616e207a60448201526265726f60e81b60648201526084016104d1565b5f546001600160a01b031633146108d35760405162461bcd60e51b81526004016104d1906111f8565b6001600160a01b0381166109295760405162461bcd60e51b815260206004820152601d60248201527f4e6577206f776e657220697320746865207a65726f206164647265737300000060448201526064016104d1565b5f80546040516001600160a01b03808516939216917f8be0079c531659141344cd1fd0a4f28419497f9722a3daafe3b4186f6b6457e091a35f80546001600160a01b0319166001600160a01b0392909216919091179055565b6001600160a01b0383166109d85760405162461bcd60e51b815260206004820152601d60248201527f417070726f76652066726f6d20746865207a65726f206164647265737300000060448201526064016104d1565b6001600160a01b038216610a2e5760405162461bcd60e51b815260206004820152601b60248201527f417070726f766520746f20746865207a65726f2061646472657373000000000060448201526064016104d1565b6001600160a01b038381165f8181526008602090815260408083209487168084529482529182902085905590518481527f8c5be1e5ebec7d5bd14f71427d1e84f3dd0314c0f7b2291e5b200ac8c7c3b92591015b60405180910390a3505050565b6001600160a01b038316610ae55760405162461bcd60e51b815260206004820152601e60248201527f5472616e736665722066726f6d20746865207a65726f2061646472657373000060448201526064016104d1565b6001600160a01b038216610b3b5760405162461bcd60e51b815260206004820152601c60248201527f5472616e7366657220746f20746865207a65726f20616464726573730000000060448201526064016104d1565b6001600160a01b0383165f9081526007602052604090205481811015610ba35760405162461bcd60e51b815260206004820152601f60248201527f5472616e7366657220616d6f756e7420657863656564732062616c616e63650060448201526064016104d1565b610bad82826111d2565b6001600160a01b038086165f908152600760205260408082209390935590851681529081208054849290610be29084906111e5565b92505081905550826001600160a01b0316846001600160a01b03167fddf252ad1be2c89b69c2b068fc378daa952ba7f163c4a11628f55a4df523b3ef84604051610c2e91815260200190565b60405180910390a350505050565b6001600160a01b038216610c925760405162461bcd60e51b815260206004820152601a60248201527f4275726e2066726f6d20746865207a65726f206164647265737300000000000060448201526064016104d1565b6001600160a01b0382165f9081526007602052604090205481811015610cfa5760405162461bcd60e51b815260206004820152601b60248201527f4275726e20616d6f756e7420657863656564732062616c616e6365000000000060448201526064016104d1565b610d0482826111d2565b6001600160a01b0384165f9081526007602052604081209190915560048054849290610d319084906111d2565b90915550506040518281525f906001600160a01b038516907fddf252ad1be2c89b69c2b068fc378daa952ba7f163c4a11628f55a4df523b3ef90602001610a82565b6001600160a01b038216610dc95760405162461bcd60e51b815260206004820152601860248201527f4d696e7420746f20746865207a65726f2061646472657373000000000000000060448201526064016104d1565b8060045f828254610dda91906111e5565b90915550506001600160a01b0382165f9081526007602052604081208054839290610e069084906111e5565b90915550506040518181526001600160a01b038316905f907fddf252ad1be2c89b69c2b068fc378daa952ba7f163c4a11628f55a4df523b3ef9060200160405180910390a35050565b5f5f5f5f610e5f88888888610e7b565b925092509250610e6f8282610f43565b50909695505050505050565b5f80807f7fffffffffffffffffffffffffffffff5d576e7357a4501ddfe92f46681b20a0841115610eb457505f91506003905082610f39565b604080515f808252602082018084528a905260ff891692820192909252606081018790526080810186905260019060a0016020604051602081039080840390855afa158015610f05573d5f5f3e3d5ffd5b5050604051601f1901519150506001600160a01b038116610f3057505f925060019150829050610f39565b92505f91508190505b9450945094915050565b5f826003811115610f5657610f566113b3565b03610f5f575050565b6001826003811115610f7357610f736113b3565b03610f915760405163f645eedf60e01b815260040160405180910390fd5b6002826003811115610fa557610fa56113b3565b03610fc65760405163fce698f760e01b8152600481018290526024016104d1565b6003826003811115610fda57610fda6113b3565b03610ffb576040516335e2f38360e21b8152600481018290526024016104d1565b5050565b602081525f82518060208401528060208501604085015e5f604082850101526040601f19601f83011684010191505092915050565b80356001600160a01b038116811461104a575f5ffd5b919050565b5f5f60408385031215611060575f5ffd5b61106983611034565b946020939093013593505050565b5f5f5f60608486031215611089575f5ffd5b61109284611034565b92506110a060208501611034565b929592945050506040919091013590565b5f602082840312156110c1575f5ffd5b5035919050565b5f602082840312156110d8575f5ffd5b6110e182611034565b9392505050565b5f5f5f5f5f5f5f60e0888a0312156110fe575f5ffd5b61110788611034565b965061111560208901611034565b95506040880135945060608801359350608088013560ff81168114611138575f5ffd5b9699959850939692959460a0840135945060c09093013592915050565b5f5f60408385031215611166575f5ffd5b61116f83611034565b915061117d60208401611034565b90509250929050565b600181811c9082168061119a57607f821691505b6020821081036111b857634e487b7160e01b5f52602260045260245ffd5b50919050565b634e487b7160e01b5f52601160045260245ffd5b8181038181111561040f5761040f6111be565b8082018082111561040f5761040f6111be565b60208082526017908201527f43616c6c6572206973206e6f7420746865206f776e6572000000000000000000604082015260600190565b6001815b600184111561126a5780850481111561124e5761124e6111be565b600184161561125c57908102905b60019390931c928002611233565b935093915050565b5f826112805750600161040f565b8161128c57505f61040f565b81600181146112a257600281146112ac576112c8565b600191505061040f565b60ff8411156112bd576112bd6111be565b50506001821b61040f565b5060208310610133831016604e8410600b84101617156112eb575081810a61040f565b6112f75f19848461122f565b805f190482111561130a5761130a6111be565b029392505050565b5f6110e18383611272565b808202811582820484141761040f5761040f6111be565b805169ffffffffffffffffffff8116811461104a575f5ffd5b5f5f5f5f5f60a08688031215611361575f5ffd5b61136a86611334565b6020870151604088015160608901519297509095509350915061138f60808701611334565b90509295509295909350565b5f600182016113ac576113ac6111be565b5060010190565b634e487b7160e01b5f52602160045260245ffdfea26469706673582212201b380172889bf6646475826167a456827a65ebc22be86d4ebaa9e74cd6a331f664736f6c634300081b0033",
					"opcodes": "PUSH1 0xC0 PUSH1 0x40 MSTORE PUSH1 0x3 PUSH1 0x80 SWAP1 DUP2 MSTORE PUSH3 0x424F47 PUSH1 0xE8 SHL PUSH1 0xA0 MSTORE PUSH1 0x1 SWAP1 PUSH2 0x22 SWAP1 DUP3 PUSH2 0x344 JUMP JUMPDEST POP PUSH1 0x40 DUP1 MLOAD DUP1 DUP3 ADD SWAP1 SWAP2 MSTORE PUSH1 0x3 DUP2 MSTORE PUSH3 0x424F47 PUSH1 0xE8 SHL PUSH1 0x20 DUP3 ADD MSTORE PUSH1 0x2 SWAP1 PUSH2 0x4A SWAP1 DUP3 PUSH2 0x344 JUMP JUMPDEST POP PUSH1 0x3 DUP1 SLOAD PUSH1 0xFF NOT AND PUSH1 0x12 OR SWAP1 SSTORE PUSH7 0x2386F26FC10000 PUSH1 0x5 SSTORE CALLVALUE DUP1 ISZERO PUSH2 0x6E JUMPI PUSH0 PUSH0 REVERT JUMPDEST POP PUSH1 0x40 MLOAD PUSH2 0x19E8 CODESIZE SUB DUP1 PUSH2 0x19E8 DUP4 CODECOPY DUP2 ADD PUSH1 0x40 DUP2 SWAP1 MSTORE PUSH2 0x8D SWAP2 PUSH2 0x3FE JUMP JUMPDEST PUSH0 DUP1 SLOAD PUSH1 0x1 PUSH1 0x1 PUSH1 0xA0 SHL SUB NOT AND CALLER SWAP1 DUP2 OR DUP3 SSTORE PUSH1 0x40 MLOAD SWAP1 SWAP2 SWAP1 PUSH32 0x8BE0079C531659141344CD1FD0A4F28419497F9722A3DAAFE3B4186F6B6457E0 SWAP1 DUP3 SWAP1 LOG3 PUSH1 0x40 MLOAD CHAINID SWAP1 PUSH32 0x8B73C3C69BB8FE3D512ECC4CF759CC79239F7B179B0FFACAA9A75D522B39400F SWAP1 PUSH2 0xFE SWAP1 PUSH1 0x1 SWAP1 PUSH2 0x438 JUMP JUMPDEST PUSH1 0x40 DUP1 MLOAD SWAP2 DUP3 SWAP1 SUB DUP3 KECCAK256 DUP3 DUP3 ADD DUP3 MSTORE PUSH1 0x1 DUP4 MSTORE PUSH1 0x31 PUSH1 0xF8 SHL PUSH1 0x20 SWAP4 DUP5 ADD MSTORE DUP2 MLOAD SWAP3 DUP4 ADD SWAP4 SWAP1 SWAP4 MSTORE DUP2 ADD SWAP2 SWAP1 SWAP2 MSTORE PUSH32 0xC89EFDAA54C0F20C7ADF612882DF0950F5A951637E0307CDCB4C672F298B8BC6 PUSH1 0x60 DUP3 ADD MSTORE PUSH1 0x80 DUP2 ADD DUP3 SWAP1 MSTORE ADDRESS PUSH1 0xA0 DUP3 ADD MSTORE PUSH1 0xC0 ADD PUSH1 0x40 DUP1 MLOAD PUSH1 0x1F NOT DUP2 DUP5 SUB ADD DUP2 MSTORE SWAP2 SWAP1 MSTORE DUP1 MLOAD PUSH1 0x20 SWAP1 SWAP2 ADD KECCAK256 PUSH1 0xA SWAP1 DUP2 SSTORE PUSH1 0x3 SLOAD PUSH2 0x1A5 SWAP2 CALLER SWAP2 PUSH2 0x196 SWAP2 PUSH1 0xFF SWAP1 SWAP2 AND SWAP1 PUSH2 0x5A2 JUMP JUMPDEST PUSH2 0x1A0 SWAP1 DUP7 PUSH2 0x5B4 JUMP JUMPDEST PUSH2 0x1CC JUMP JUMPDEST POP PUSH1 0x6 DUP1 SLOAD PUSH1 0x1 PUSH1 0x1 PUSH1 0xA0 SHL SUB NOT AND PUSH1 0x1 PUSH1 0x1 PUSH1 0xA0 SHL SUB SWAP3 SWAP1 SWAP3 AND SWAP2 SWAP1 SWAP2 OR SWAP1 SSTORE POP PUSH2 0x5DE JUMP JUMPDEST PUSH1 0x1 PUSH1 0x1 PUSH1 0xA0 SHL SUB DUP3 AND PUSH2 0x226 JUMPI PUSH1 0x40 MLOAD PUSH3 0x461BCD PUSH1 0xE5 SHL DUP2 MSTORE PUSH1 0x20 PUSH1 0x4 DUP3 ADD MSTORE PUSH1 0x18 PUSH1 0x24 DUP3 ADD MSTORE PUSH32 0x4D696E7420746F20746865207A65726F20616464726573730000000000000000 PUSH1 0x44 DUP3 ADD MSTORE PUSH1 0x64 ADD PUSH1 0x40 MLOAD DUP1 SWAP2 SUB SWAP1 REVERT JUMPDEST DUP1 PUSH1 0x4 PUSH0 DUP3 DUP3 SLOAD PUSH2 0x237 SWAP2 SWAP1 PUSH2 0x5CB JUMP JUMPDEST SWAP1 SWAP2 SSTORE POP POP PUSH1 0x1 PUSH1 0x1 PUSH1 0xA0 SHL SUB DUP3 AND PUSH0 SWAP1 DUP2 MSTORE PUSH1 0x7 PUSH1 0x20 MSTORE PUSH1 0x40 DUP2 KECCAK256 DUP1 SLOAD DUP4 SWAP3 SWAP1 PUSH2 0x263 SWAP1 DUP5 SWAP1 PUSH2 0x5CB JUMP JUMPDEST SWAP1 SWAP2 SSTORE POP POP PUSH1 0x40 MLOAD DUP2 DUP2 MSTORE PUSH1 0x1 PUSH1 0x1 PUSH1 0xA0 SHL SUB DUP4 AND SWAP1 PUSH0 SWAP1 PUSH32 0xDDF252AD1BE2C89B69C2B068FC378DAA952BA7F163C4A11628F55A4DF523B3EF SWAP1 PUSH1 0x20 ADD PUSH1 0x40 MLOAD DUP1 SWAP2 SUB SWAP1 LOG3 POP POP JUMP JUMPDEST PUSH4 0x4E487B71 PUSH1 0xE0 SHL PUSH0 MSTORE PUSH1 0x41 PUSH1 0x4 MSTORE PUSH1 0x24 PUSH0 REVERT JUMPDEST PUSH1 0x1 DUP2 DUP2 SHR SWAP1 DUP3 AND DUP1 PUSH2 0x2D4 JUMPI PUSH1 0x7F DUP3 AND SWAP2 POP JUMPDEST PUSH1 0x20 DUP3 LT DUP2 SUB PUSH2 0x2F2 JUMPI PUSH4 0x4E487B71 PUSH1 0xE0 SHL PUSH0 MSTORE PUSH1 0x22 PUSH1 0x4 MSTORE PUSH1 0x24 PUSH0 REVERT JUMPDEST POP SWAP2 SWAP1 POP JUMP JUMPDEST PUSH1 0x1F DUP3 GT ISZERO PUSH2 0x33F JUMPI DUP1 PUSH0 MSTORE PUSH1 0x20 PUSH0 KECCAK256 PUSH1 0x1F DUP5 ADD PUSH1 0x5 SHR DUP2 ADD PUSH1 0x20 DUP6 LT ISZERO PUSH2 0x31D JUMPI POP DUP1 JUMPDEST PUSH1 0x1F DUP5 ADD PUSH1 0x5 SHR DUP3 ADD SWAP2 POP JUMPDEST DUP2 DUP2 LT ISZERO PUSH2 0x33C JUMPI PUSH0 DUP2 SSTORE PUSH1 0x1 ADD PUSH2 0x329 JUMP JUMPDEST POP POP JUMPDEST POP POP POP JUMP JUMPDEST DUP2 MLOAD PUSH1 0x1 PUSH1 0x1 PUSH1 0x40 SHL SUB DUP2 GT ISZERO PUSH2 0x35D JUMPI PUSH2 0x35D PUSH2 0x2AC JUMP JUMPDEST PUSH2 0x371 DUP2 PUSH2 0x36B DUP5 SLOAD PUSH2 0x2C0 JUMP JUMPDEST DUP5 PUSH2 0x2F8 JUMP JUMPDEST PUSH1 0x20 PUSH1 0x1F DUP3 GT PUSH1 0x1 DUP2 EQ PUSH2 0x3A3 JUMPI PUSH0 DUP4 ISZERO PUSH2 0x38C JUMPI POP DUP5 DUP3 ADD MLOAD JUMPDEST PUSH0 NOT PUSH1 0x3 DUP6 SWAP1 SHL SHR NOT AND PUSH1 0x1 DUP5 SWAP1 SHL OR DUP5 SSTORE PUSH2 0x33C JUMP JUMPDEST PUSH0 DUP5 DUP2 MSTORE PUSH1 0x20 DUP2 KECCAK256 PUSH1 0x1F NOT DUP6 AND SWAP2 JUMPDEST DUP3 DUP2 LT ISZERO PUSH2 0x3D2 JUMPI DUP8 DUP6 ADD MLOAD DUP3 SSTORE PUSH1 0x20 SWAP5 DUP6 ADD SWAP5 PUSH1 0x1 SWAP1 SWAP3 ADD SWAP2 ADD PUSH2 0x3B2 JUMP JUMPDEST POP DUP5 DUP3 LT ISZERO PUSH2 0x3EF JUMPI DUP7 DUP5 ADD MLOAD PUSH0 NOT PUSH1 0x3 DUP8 SWAP1 SHL PUSH1 0xF8 AND SHR NOT AND DUP2 SSTORE JUMPDEST POP POP POP POP PUSH1 0x1 SWAP1 DUP2 SHL ADD SWAP1 SSTORE POP JUMP JUMPDEST PUSH0 PUSH0 PUSH1 0x40 DUP4 DUP6 SUB SLT ISZERO PUSH2 0x40F JUMPI PUSH0 PUSH0 REVERT JUMPDEST DUP3 MLOAD PUSH1 0x20 DUP5 ADD MLOAD SWAP1 SWAP3 POP PUSH1 0x1 PUSH1 0x1 PUSH1 0xA0 SHL SUB DUP2 AND DUP2 EQ PUSH2 0x42D JUMPI PUSH0 PUSH0 REVERT JUMPDEST DUP1 SWAP2 POP POP SWAP3 POP SWAP3 SWAP1 POP JUMP JUMPDEST PUSH0 PUSH0 DUP4 SLOAD PUSH2 0x445 DUP2 PUSH2 0x2C0 JUMP JUMPDEST PUSH1 0x1 DUP3 AND DUP1 ISZERO PUSH2 0x45C JUMPI PUSH1 0x1 DUP2 EQ PUSH2 0x471 JUMPI PUSH2 0x49E JUMP JUMPDEST PUSH1 0xFF NOT DUP4 AND DUP7 MSTORE DUP2 ISZERO ISZERO DUP3 MUL DUP7 ADD SWAP4 POP PUSH2 0x49E JUMP JUMPDEST DUP7 PUSH0 MSTORE PUSH1 0x20 PUSH0 KECCAK256 PUSH0 JUMPDEST DUP4 DUP2 LT ISZERO PUSH2 0x496 JUMPI DUP2 SLOAD DUP9 DUP3 ADD MSTORE PUSH1 0x1 SWAP1 SWAP2 ADD SWAP1 PUSH1 0x20 ADD PUSH2 0x47A JUMP JUMPDEST POP POP DUP2 DUP7 ADD SWAP4 POP JUMPDEST POP SWAP2 SWAP6 SWAP5 POP POP POP POP POP JUMP JUMPDEST PUSH4 0x4E487B71 PUSH1 0xE0 SHL PUSH0 MSTORE PUSH1 0x11 PUSH1 0x4 MSTORE PUSH1 0x24 PUSH0 REVERT JUMPDEST PUSH1 0x1 DUP2 JUMPDEST PUSH1 0x1 DUP5 GT ISZERO PUSH2 0x4F8 JUMPI DUP1 DUP6 DIV DUP2 GT ISZERO PUSH2 0x4DC JUMPI PUSH2 0x4DC PUSH2 0x4A9 JUMP JUMPDEST PUSH1 0x1 DUP5 AND ISZERO PUSH2 0x4EA JUMPI SWAP1 DUP2 MUL SWAP1 JUMPDEST PUSH1 0x1 SWAP4 SWAP1 SWAP4 SHR SWAP3 DUP1 MUL PUSH2 0x4C1 JUMP JUMPDEST SWAP4 POP SWAP4 SWAP2 POP POP JUMP JUMPDEST PUSH0 DUP3 PUSH2 0x50E JUMPI POP PUSH1 0x1 PUSH2 0x59C JUMP JUMPDEST DUP2 PUSH2 0x51A JUMPI POP PUSH0 PUSH2 0x59C JUMP JUMPDEST DUP2 PUSH1 0x1 DUP2 EQ PUSH2 0x530 JUMPI PUSH1 0x2 DUP2 EQ PUSH2 0x53A JUMPI PUSH2 0x556 JUMP JUMPDEST PUSH1 0x1 SWAP2 POP POP PUSH2 0x59C JUMP JUMPDEST PUSH1 0xFF DUP5 GT ISZERO PUSH2 0x54B JUMPI PUSH2 0x54B PUSH2 0x4A9 JUMP JUMPDEST POP POP PUSH1 0x1 DUP3 SHL PUSH2 0x59C JUMP JUMPDEST POP PUSH1 0x20 DUP4 LT PUSH2 0x133 DUP4 LT AND PUSH1 0x4E DUP5 LT PUSH1 0xB DUP5 LT AND OR ISZERO PUSH2 0x579 JUMPI POP DUP2 DUP2 EXP PUSH2 0x59C JUMP JUMPDEST PUSH2 0x585 PUSH0 NOT DUP5 DUP5 PUSH2 0x4BD JUMP JUMPDEST DUP1 PUSH0 NOT DIV DUP3 GT ISZERO PUSH2 0x598 JUMPI PUSH2 0x598 PUSH2 0x4A9 JUMP JUMPDEST MUL SWAP1 POP JUMPDEST SWAP3 SWAP2 POP POP JUMP JUMPDEST PUSH0 PUSH2 0x5AD DUP4 DUP4 PUSH2 0x500 JUMP JUMPDEST SWAP4 SWAP3 POP POP POP JUMP JUMPDEST DUP1 DUP3 MUL DUP2 ISZERO DUP3 DUP3 DIV DUP5 EQ OR PUSH2 0x59C JUMPI PUSH2 0x59C PUSH2 0x4A9 JUMP JUMPDEST DUP1 DUP3 ADD DUP1 DUP3 GT ISZERO PUSH2 0x59C JUMPI PUSH2 0x59C PUSH2 0x4A9 JUMP JUMPDEST PUSH2 0x13FD DUP1 PUSH2 0x5EB PUSH0 CODECOPY PUSH0 RETURN INVALID PUSH1 0x80 PUSH1 0x40 MSTORE CALLVALUE DUP1 ISZERO PUSH2 0xF JUMPI PUSH0 PUSH0 REVERT JUMPDEST POP PUSH1 0x4 CALLDATASIZE LT PUSH2 0x153 JUMPI PUSH0 CALLDATALOAD PUSH1 0xE0 SHR DUP1 PUSH4 0x8DA5CB5B GT PUSH2 0xBF JUMPI DUP1 PUSH4 0xD03A4045 GT PUSH2 0x79 JUMPI DUP1 PUSH4 0xD03A4045 EQ PUSH2 0x2E6 JUMPI DUP1 PUSH4 0xD41EDB7B EQ PUSH2 0x2F9 JUMPI DUP1 PUSH4 0xD505ACCF EQ PUSH2 0x302 JUMPI DUP1 PUSH4 0xDD62ED3E EQ PUSH2 0x315 JUMPI DUP1 PUSH4 0xEE7D72B4 EQ PUSH2 0x34D JUMPI DUP1 PUSH4 0xF2FDE38B EQ PUSH2 0x360 JUMPI PUSH0 PUSH0 REVERT JUMPDEST DUP1 PUSH4 0x8DA5CB5B EQ PUSH2 0x283 JUMPI DUP1 PUSH4 0x8E15F473 EQ PUSH2 0x29D JUMPI DUP1 PUSH4 0x95D89B41 EQ PUSH2 0x2A5 JUMPI DUP1 PUSH4 0xA0712D68 EQ PUSH2 0x2AD JUMPI DUP1 PUSH4 0xA457C2D7 EQ PUSH2 0x2C0 JUMPI DUP1 PUSH4 0xA9059CBB EQ PUSH2 0x2D3 JUMPI PUSH0 PUSH0 REVERT JUMPDEST DUP1 PUSH4 0x3644E515 GT PUSH2 0x110 JUMPI DUP1 PUSH4 0x3644E515 EQ PUSH2 0x203 JUMPI DUP1 PUSH4 0x39509351 EQ PUSH2 0x20C JUMPI DUP1 PUSH4 0x42966C68 EQ PUSH2 0x21F JUMPI DUP1 PUSH4 0x70A08231 EQ PUSH2 0x234 JUMPI DUP1 PUSH4 0x785946F4 EQ PUSH2 0x25C JUMPI DUP1 PUSH4 0x7ECEBE00 EQ PUSH2 0x264 JUMPI PUSH0 PUSH0 REVERT JUMPDEST DUP1 PUSH4 0x6FDDE03 EQ PUSH2 0x157 JUMPI DUP1 PUSH4 0x95EA7B3 EQ PUSH2 0x175 JUMPI DUP1 PUSH4 0x18160DDD EQ PUSH2 0x198 JUMPI DUP1 PUSH4 0x23B872DD EQ PUSH2 0x1AA JUMPI DUP1 PUSH4 0x30ADF81F EQ PUSH2 0x1BD JUMPI DUP1 PUSH4 0x313CE567 EQ PUSH2 0x1E4 JUMPI JUMPDEST PUSH0 PUSH0 REVERT JUMPDEST PUSH2 0x15F PUSH2 0x373 JUMP JUMPDEST PUSH1 0x40 MLOAD PUSH2 0x16C SWAP2 SWAP1 PUSH2 0xFFF JUMP JUMPDEST PUSH1 0x40 MLOAD DUP1 SWAP2 SUB SWAP1 RETURN JUMPDEST PUSH2 0x188 PUSH2 0x183 CALLDATASIZE PUSH1 0x4 PUSH2 0x104F JUMP JUMPDEST PUSH2 0x3FF JUMP JUMPDEST PUSH1 0x40 MLOAD SWAP1 ISZERO ISZERO DUP2 MSTORE PUSH1 0x20 ADD PUSH2 0x16C JUMP JUMPDEST PUSH1 0x4 SLOAD JUMPDEST PUSH1 0x40 MLOAD SWAP1 DUP2 MSTORE PUSH1 0x20 ADD PUSH2 0x16C JUMP JUMPDEST PUSH2 0x188 PUSH2 0x1B8 CALLDATASIZE PUSH1 0x4 PUSH2 0x1077 JUMP JUMPDEST PUSH2 0x415 JUMP JUMPDEST PUSH2 0x19C PUSH32 0x6E71EDAE12B1B97F4D1F60370FEF10105FA2FAAE0126114A169C64845D6126C9 DUP2 JUMP JUMPDEST PUSH1 0x3 SLOAD PUSH2 0x1F1 SWAP1 PUSH1 0xFF AND DUP2 JUMP JUMPDEST PUSH1 0x40 MLOAD PUSH1 0xFF SWAP1 SWAP2 AND DUP2 MSTORE PUSH1 0x20 ADD PUSH2 0x16C JUMP JUMPDEST PUSH2 0x19C PUSH1 0xA SLOAD DUP2 JUMP JUMPDEST PUSH2 0x188 PUSH2 0x21A CALLDATASIZE PUSH1 0x4 PUSH2 0x104F JUMP JUMPDEST PUSH2 0x465 JUMP JUMPDEST PUSH2 0x232 PUSH2 0x22D CALLDATASIZE PUSH1 0x4 PUSH2 0x10B1 JUMP JUMPDEST PUSH2 0x49B JUMP JUMPDEST STOP JUMPDEST PUSH2 0x19C PUSH2 0x242 CALLDATASIZE PUSH1 0x4 PUSH2 0x10C8 JUMP JUMPDEST PUSH1 0x1 PUSH1 0x1 PUSH1 0xA0 SHL SUB AND PUSH0 SWAP1 DUP2 MSTORE PUSH1 0x7 PUSH1 0x20 MSTORE PUSH1 0x40 SWAP1 KECCAK256 SLOAD SWAP1 JUMP JUMPDEST PUSH2 0x232 PUSH2 0x4A8 JUMP JUMPDEST PUSH2 0x19C PUSH2 0x272 CALLDATASIZE PUSH1 0x4 PUSH2 0x10C8 JUMP JUMPDEST PUSH1 0x9 PUSH1 0x20 MSTORE PUSH0 SWAP1 DUP2 MSTORE PUSH1 0x40 SWAP1 KECCAK256 SLOAD DUP2 JUMP JUMPDEST PUSH0 SLOAD PUSH1 0x40 MLOAD PUSH1 0x1 PUSH1 0x1 PUSH1 0xA0 SHL SUB SWAP1 SWAP2 AND DUP2 MSTORE PUSH1 0x20 ADD PUSH2 0x16C JUMP JUMPDEST PUSH2 0x19C PUSH2 0x505 JUMP JUMPDEST PUSH2 0x15F PUSH2 0x586 JUMP JUMPDEST PUSH2 0x232 PUSH2 0x2BB CALLDATASIZE PUSH1 0x4 PUSH2 0x10B1 JUMP JUMPDEST PUSH2 0x593 JUMP JUMPDEST PUSH2 0x188 PUSH2 0x2CE CALLDATASIZE PUSH1 0x4 PUSH2 0x104F JUMP JUMPDEST PUSH2 0x5C6 JUMP JUMPDEST PUSH2 0x188 PUSH2 0x2E1 CALLDATASIZE PUSH1 0x4 PUSH2 0x104F JUMP JUMPDEST PUSH2 0x648 JUMP JUMPDEST PUSH2 0x232 PUSH2 0x2F4 CALLDATASIZE PUSH1 0x4 PUSH2 0x10B1 JUMP JUMPDEST PUSH2 0x654 JUMP JUMPDEST PUSH2 0x19C PUSH1 0x5 SLOAD DUP2 JUMP JUMPDEST PUSH2 0x232 PUSH2 0x310 CALLDATASIZE PUSH1 0x4 PUSH2 0x10E8 JUMP JUMPDEST PUSH2 0x682 JUMP JUMPDEST PUSH2 0x19C PUSH2 0x323 CALLDATASIZE PUSH1 0x4 PUSH2 0x1155 JUMP JUMPDEST PUSH1 0x1 PUSH1 0x1 PUSH1 0xA0 SHL SUB SWAP2 DUP3 AND PUSH0 SWAP1 DUP2 MSTORE PUSH1 0x8 PUSH1 0x20 SWAP1 DUP2 MSTORE PUSH1 0x40 DUP1 DUP4 KECCAK256 SWAP4 SWAP1 SWAP5 AND DUP3 MSTORE SWAP2 SWAP1 SWAP2 MSTORE KECCAK256 SLOAD SWAP1 JUMP JUMPDEST PUSH2 0x232 PUSH2 0x35B CALLDATASIZE PUSH1 0x4 PUSH2 0x10B1 JUMP JUMPDEST PUSH2 0x826 JUMP JUMPDEST PUSH2 0x232 PUSH2 0x36E CALLDATASIZE PUSH1 0x4 PUSH2 0x10C8 JUMP JUMPDEST PUSH2 0x8AA JUMP JUMPDEST PUSH1 0x1 DUP1 SLOAD PUSH2 0x380 SWAP1 PUSH2 0x1186 JUMP JUMPDEST DUP1 PUSH1 0x1F ADD PUSH1 0x20 DUP1 SWAP2 DIV MUL PUSH1 0x20 ADD PUSH1 0x40 MLOAD SWAP1 DUP2 ADD PUSH1 0x40 MSTORE DUP1 SWAP3 SWAP2 SWAP1 DUP2 DUP2 MSTORE PUSH1 0x20 ADD DUP3 DUP1 SLOAD PUSH2 0x3AC SWAP1 PUSH2 0x1186 JUMP JUMPDEST DUP1 ISZERO PUSH2 0x3F7 JUMPI DUP1 PUSH1 0x1F LT PUSH2 0x3CE JUMPI PUSH2 0x100 DUP1 DUP4 SLOAD DIV MUL DUP4 MSTORE SWAP2 PUSH1 0x20 ADD SWAP2 PUSH2 0x3F7 JUMP JUMPDEST DUP3 ADD SWAP2 SWAP1 PUSH0 MSTORE PUSH1 0x20 PUSH0 KECCAK256 SWAP1 JUMPDEST DUP2 SLOAD DUP2 MSTORE SWAP1 PUSH1 0x1 ADD SWAP1 PUSH1 0x20 ADD DUP1 DUP4 GT PUSH2 0x3DA JUMPI DUP3 SWAP1 SUB PUSH1 0x1F AND DUP3 ADD SWAP2 JUMPDEST POP POP POP POP POP DUP2 JUMP JUMPDEST PUSH0 PUSH2 0x40B CALLER DUP5 DUP5 PUSH2 0x982 JUMP JUMPDEST POP PUSH1 0x1 JUMPDEST SWAP3 SWAP2 POP POP JUMP JUMPDEST PUSH0 PUSH2 0x421 DUP5 DUP5 DUP5 PUSH2 0xA8F JUMP JUMPDEST PUSH1 0x1 PUSH1 0x1 PUSH1 0xA0 SHL SUB DUP5 AND PUSH0 SWAP1 DUP2 MSTORE PUSH1 0x8 PUSH1 0x20 SWAP1 DUP2 MSTORE PUSH1 0x40 DUP1 DUP4 KECCAK256 CALLER DUP1 DUP6 MSTORE SWAP3 MSTORE SWAP1 SWAP2 KECCAK256 SLOAD PUSH2 0x45B SWAP2 DUP7 SWAP2 PUSH2 0x456 SWAP1 DUP7 SWAP1 PUSH2 0x11D2 JUMP JUMPDEST PUSH2 0x982 JUMP JUMPDEST POP PUSH1 0x1 SWAP4 SWAP3 POP POP POP JUMP JUMPDEST CALLER PUSH0 DUP2 DUP2 MSTORE PUSH1 0x8 PUSH1 0x20 SWAP1 DUP2 MSTORE PUSH1 0x40 DUP1 DUP4 KECCAK256 PUSH1 0x1 PUSH1 0x1 PUSH1 0xA0 SHL SUB DUP8 AND DUP5 MSTORE SWAP1 SWAP2 MSTORE DUP2 KECCAK256 SLOAD SWAP1 SWAP2 PUSH2 0x40B SWAP2 DUP6 SWAP1 PUSH2 0x456 SWAP1 DUP7 SWAP1 PUSH2 0x11E5 JUMP JUMPDEST PUSH2 0x4A5 CALLER DUP3 PUSH2 0xC3C JUMP JUMPDEST POP JUMP JUMPDEST PUSH0 SLOAD PUSH1 0x1 PUSH1 0x1 PUSH1 0xA0 SHL SUB AND CALLER EQ PUSH2 0x4DA JUMPI PUSH1 0x40 MLOAD PUSH3 0x461BCD PUSH1 0xE5 SHL DUP2 MSTORE PUSH1 0x4 ADD PUSH2 0x4D1 SWAP1 PUSH2 0x11F8 JUMP JUMPDEST PUSH1 0x40 MLOAD DUP1 SWAP2 SUB SWAP1 REVERT JUMPDEST PUSH1 0x3 SLOAD PUSH0 SWAP1 PUSH2 0x4ED SWAP1 PUSH1 0xFF AND PUSH1 0xA PUSH2 0x1312 JUMP JUMPDEST PUSH2 0x4F9 SWAP1 PUSH2 0xBB8 PUSH2 0x131D JUMP JUMPDEST SWAP1 POP PUSH2 0x4A5 CALLER DUP3 PUSH2 0xD73 JUMP JUMPDEST PUSH0 PUSH0 PUSH1 0x6 PUSH0 SWAP1 SLOAD SWAP1 PUSH2 0x100 EXP SWAP1 DIV PUSH1 0x1 PUSH1 0x1 PUSH1 0xA0 SHL SUB AND PUSH1 0x1 PUSH1 0x1 PUSH1 0xA0 SHL SUB AND PUSH4 0xFEAF968C PUSH1 0x40 MLOAD DUP2 PUSH4 0xFFFFFFFF AND PUSH1 0xE0 SHL DUP2 MSTORE PUSH1 0x4 ADD PUSH1 0xA0 PUSH1 0x40 MLOAD DUP1 DUP4 SUB DUP2 DUP7 GAS STATICCALL ISZERO DUP1 ISZERO PUSH2 0x557 JUMPI RETURNDATASIZE PUSH0 PUSH0 RETURNDATACOPY RETURNDATASIZE PUSH0 REVERT JUMPDEST POP POP POP POP PUSH1 0x40 MLOAD RETURNDATASIZE PUSH1 0x1F NOT PUSH1 0x1F DUP3 ADD AND DUP3 ADD DUP1 PUSH1 0x40 MSTORE POP DUP2 ADD SWAP1 PUSH2 0x57B SWAP2 SWAP1 PUSH2 0x134D JUMP JUMPDEST POP SWAP2 SWAP6 SWAP5 POP POP POP POP POP JUMP JUMPDEST PUSH1 0x2 DUP1 SLOAD PUSH2 0x380 SWAP1 PUSH2 0x1186 JUMP JUMPDEST PUSH0 SLOAD PUSH1 0x1 PUSH1 0x1 PUSH1 0xA0 SHL SUB AND CALLER EQ PUSH2 0x5BC JUMPI PUSH1 0x40 MLOAD PUSH3 0x461BCD PUSH1 0xE5 SHL DUP2 MSTORE PUSH1 0x4 ADD PUSH2 0x4D1 SWAP1 PUSH2 0x11F8 JUMP JUMPDEST PUSH2 0x4A5 CALLER DUP3 PUSH2 0xD73 JUMP JUMPDEST CALLER PUSH0 SWAP1 DUP2 MSTORE PUSH1 0x8 PUSH1 0x20 SWAP1 DUP2 MSTORE PUSH1 0x40 DUP1 DUP4 KECCAK256 PUSH1 0x1 PUSH1 0x1 PUSH1 0xA0 SHL SUB DUP7 AND DUP5 MSTORE SWAP1 SWAP2 MSTORE DUP2 KECCAK256 SLOAD DUP3 DUP2 LT ISZERO PUSH2 0x639 JUMPI PUSH1 0x40 MLOAD PUSH3 0x461BCD PUSH1 0xE5 SHL DUP2 MSTORE PUSH1 0x20 PUSH1 0x4 DUP3 ADD MSTORE PUSH1 0x1E PUSH1 0x24 DUP3 ADD MSTORE PUSH32 0x44656372656173656420616C6C6F77616E63652062656C6F77207A65726F0000 PUSH1 0x44 DUP3 ADD MSTORE PUSH1 0x64 ADD PUSH2 0x4D1 JUMP JUMPDEST PUSH2 0x45B CALLER DUP6 PUSH2 0x456 DUP7 DUP6 PUSH2 0x11D2 JUMP JUMPDEST PUSH0 PUSH2 0x40B CALLER DUP5 DUP5 PUSH2 0xA8F JUMP JUMPDEST PUSH0 SLOAD PUSH1 0x1 PUSH1 0x1 PUSH1 0xA0 SHL SUB AND CALLER EQ PUSH2 0x67D JUMPI PUSH1 0x40 MLOAD PUSH3 0x461BCD PUSH1 0xE5 SHL DUP2 MSTORE PUSH1 0x4 ADD PUSH2 0x4D1 SWAP1 PUSH2 0x11F8 JUMP JUMPDEST PUSH1 0x5 SSTORE JUMP JUMPDEST TIMESTAMP DUP5 LT ISZERO PUSH2 0x6C5 JUMPI PUSH1 0x40 MLOAD PUSH3 0x461BCD PUSH1 0xE5 SHL DUP2 MSTORE PUSH1 0x20 PUSH1 0x4 DUP3 ADD MSTORE PUSH1 0x10 PUSH1 0x24 DUP3 ADD MSTORE PUSH16 0x4578706972656420646561646C696E65 PUSH1 0x80 SHL PUSH1 0x44 DUP3 ADD MSTORE PUSH1 0x64 ADD PUSH2 0x4D1 JUMP JUMPDEST PUSH1 0x1 PUSH1 0x1 PUSH1 0xA0 SHL SUB DUP8 AND PUSH0 SWAP1 DUP2 MSTORE PUSH1 0x9 PUSH1 0x20 MSTORE PUSH1 0x40 DUP2 KECCAK256 DUP1 SLOAD PUSH32 0x6E71EDAE12B1B97F4D1F60370FEF10105FA2FAAE0126114A169C64845D6126C9 SWAP2 DUP11 SWAP2 DUP11 SWAP2 DUP11 SWAP2 SWAP1 DUP7 PUSH2 0x711 DUP4 PUSH2 0x139B JUMP JUMPDEST SWAP1 SWAP2 SSTORE POP PUSH1 0x40 DUP1 MLOAD PUSH1 0x20 DUP2 ADD SWAP7 SWAP1 SWAP7 MSTORE PUSH1 0x1 PUSH1 0x1 PUSH1 0xA0 SHL SUB SWAP5 DUP6 AND SWAP1 DUP7 ADD MSTORE SWAP3 SWAP1 SWAP2 AND PUSH1 0x60 DUP5 ADD MSTORE PUSH1 0x80 DUP4 ADD MSTORE PUSH1 0xA0 DUP3 ADD MSTORE PUSH1 0xC0 DUP2 ADD DUP7 SWAP1 MSTORE PUSH1 0xE0 ADD PUSH1 0x40 MLOAD PUSH1 0x20 DUP2 DUP4 SUB SUB DUP2 MSTORE SWAP1 PUSH1 0x40 MSTORE DUP1 MLOAD SWAP1 PUSH1 0x20 ADD KECCAK256 SWAP1 POP PUSH0 PUSH1 0xA SLOAD DUP3 PUSH1 0x40 MLOAD PUSH1 0x20 ADD PUSH2 0x791 SWAP3 SWAP2 SWAP1 PUSH2 0x1901 PUSH1 0xF0 SHL DUP2 MSTORE PUSH1 0x2 DUP2 ADD SWAP3 SWAP1 SWAP3 MSTORE PUSH1 0x22 DUP3 ADD MSTORE PUSH1 0x42 ADD SWAP1 JUMP JUMPDEST PUSH1 0x40 DUP1 MLOAD PUSH1 0x1F NOT DUP2 DUP5 SUB ADD DUP2 MSTORE SWAP2 SWAP1 MSTORE DUP1 MLOAD PUSH1 0x20 SWAP1 SWAP2 ADD KECCAK256 SWAP1 POP PUSH0 PUSH2 0x7B8 DUP3 DUP8 DUP8 DUP8 PUSH2 0xE4F JUMP JUMPDEST SWAP1 POP DUP10 PUSH1 0x1 PUSH1 0x1 PUSH1 0xA0 SHL SUB AND DUP2 PUSH1 0x1 PUSH1 0x1 PUSH1 0xA0 SHL SUB AND EQ PUSH2 0x80F JUMPI PUSH1 0x40 MLOAD PUSH3 0x461BCD PUSH1 0xE5 SHL DUP2 MSTORE PUSH1 0x20 PUSH1 0x4 DUP3 ADD MSTORE PUSH1 0x11 PUSH1 0x24 DUP3 ADD MSTORE PUSH17 0x496E76616C6964207369676E6174757265 PUSH1 0x78 SHL PUSH1 0x44 DUP3 ADD MSTORE PUSH1 0x64 ADD PUSH2 0x4D1 JUMP JUMPDEST PUSH2 0x81A DUP11 DUP11 DUP11 PUSH2 0x982 JUMP JUMPDEST POP POP POP POP POP POP POP POP POP POP JUMP JUMPDEST PUSH0 SLOAD PUSH1 0x1 PUSH1 0x1 PUSH1 0xA0 SHL SUB AND CALLER EQ PUSH2 0x84F JUMPI PUSH1 0x40 MLOAD PUSH3 0x461BCD PUSH1 0xE5 SHL DUP2 MSTORE PUSH1 0x4 ADD PUSH2 0x4D1 SWAP1 PUSH2 0x11F8 JUMP JUMPDEST PUSH0 DUP2 GT PUSH2 0x4A5 JUMPI PUSH1 0x40 MLOAD PUSH3 0x461BCD PUSH1 0xE5 SHL DUP2 MSTORE PUSH1 0x20 PUSH1 0x4 DUP3 ADD MSTORE PUSH1 0x23 PUSH1 0x24 DUP3 ADD MSTORE PUSH32 0x476173206C696D6974206D7573742062652067726561746572207468616E207A PUSH1 0x44 DUP3 ADD MSTORE PUSH3 0x65726F PUSH1 0xE8 SHL PUSH1 0x64 DUP3 ADD MSTORE PUSH1 0x84 ADD PUSH2 0x4D1 JUMP JUMPDEST PUSH0 SLOAD PUSH1 0x1 PUSH1 0x1 PUSH1 0xA0 SHL SUB AND CALLER EQ PUSH2 0x8D3 JUMPI PUSH1 0x40 MLOAD PUSH3 0x461BCD PUSH1 0xE5 SHL DUP2 MSTORE PUSH1 0x4 ADD PUSH2 0x4D1 SWAP1 PUSH2 0x11F8 JUMP JUMPDEST PUSH1 0x1 PUSH1 0x1 PUSH1 0xA0 SHL SUB DUP2 AND PUSH2 0x929 JUMPI PUSH1 0x40 MLOAD PUSH3 0x461BCD PUSH1 0xE5 SHL DUP2 MSTORE PUSH1 0x20 PUSH1 0x4 DUP3 ADD MSTORE PUSH1 0x1D PUSH1 0x24 DUP3 ADD MSTORE PUSH32 0x4E6577206F776E657220697320746865207A65726F2061646472657373000000 PUSH1 0x44 DUP3 ADD MSTORE PUSH1 0x64 ADD PUSH2 0x4D1 JUMP JUMPDEST PUSH0 DUP1 SLOAD PUSH1 0x40 MLOAD PUSH1 0x1 PUSH1 0x1 PUSH1 0xA0 SHL SUB DUP1 DUP6 AND SWAP4 SWAP3 AND SWAP2 PUSH32 0x8BE0079C531659141344CD1FD0A4F28419497F9722A3DAAFE3B4186F6B6457E0 SWAP2 LOG3 PUSH0 DUP1 SLOAD PUSH1 0x1 PUSH1 0x1 PUSH1 0xA0 SHL SUB NOT AND PUSH1 0x1 PUSH1 0x1 PUSH1 0xA0 SHL SUB SWAP3 SWAP1 SWAP3 AND SWAP2 SWAP1 SWAP2 OR SWAP1 SSTORE JUMP JUMPDEST PUSH1 0x1 PUSH1 0x1 PUSH1 0xA0 SHL SUB DUP4 AND PUSH2 0x9D8 JUMPI PUSH1 0x40 MLOAD PUSH3 0x461BCD PUSH1 0xE5 SHL DUP2 MSTORE PUSH1 0x20 PUSH1 0x4 DUP3 ADD MSTORE PUSH1 0x1D PUSH1 0x24 DUP3 ADD MSTORE PUSH32 0x417070726F76652066726F6D20746865207A65726F2061646472657373000000 PUSH1 0x44 DUP3 ADD MSTORE PUSH1 0x64 ADD PUSH2 0x4D1 JUMP JUMPDEST PUSH1 0x1 PUSH1 0x1 PUSH1 0xA0 SHL SUB DUP3 AND PUSH2 0xA2E JUMPI PUSH1 0x40 MLOAD PUSH3 0x461BCD PUSH1 0xE5 SHL DUP2 MSTORE PUSH1 0x20 PUSH1 0x4 DUP3 ADD MSTORE PUSH1 0x1B PUSH1 0x24 DUP3 ADD MSTORE PUSH32 0x417070726F766520746F20746865207A65726F20616464726573730000000000 PUSH1 0x44 DUP3 ADD MSTORE PUSH1 0x64 ADD PUSH2 0x4D1 JUMP JUMPDEST PUSH1 0x1 PUSH1 0x1 PUSH1 0xA0 SHL SUB DUP4 DUP2 AND PUSH0 DUP2 DUP2 MSTORE PUSH1 0x8 PUSH1 0x20 SWAP1 DUP2 MSTORE PUSH1 0x40 DUP1 DUP4 KECCAK256 SWAP5 DUP8 AND DUP1 DUP5 MSTORE SWAP5 DUP3 MSTORE SWAP2 DUP3 SWAP1 KECCAK256 DUP6 SWAP1 SSTORE SWAP1 MLOAD DUP5 DUP2 MSTORE PUSH32 0x8C5BE1E5EBEC7D5BD14F71427D1E84F3DD0314C0F7B2291E5B200AC8C7C3B925 SWAP2 ADD JUMPDEST PUSH1 0x40 MLOAD DUP1 SWAP2 SUB SWAP1 LOG3 POP POP POP JUMP JUMPDEST PUSH1 0x1 PUSH1 0x1 PUSH1 0xA0 SHL SUB DUP4 AND PUSH2 0xAE5 JUMPI PUSH1 0x40 MLOAD PUSH3 0x461BCD PUSH1 0xE5 SHL DUP2 MSTORE PUSH1 0x20 PUSH1 0x4 DUP3 ADD MSTORE PUSH1 0x1E PUSH1 0x24 DUP3 ADD MSTORE PUSH32 0x5472616E736665722066726F6D20746865207A65726F20616464726573730000 PUSH1 0x44 DUP3 ADD MSTORE PUSH1 0x64 ADD PUSH2 0x4D1 JUMP JUMPDEST PUSH1 0x1 PUSH1 0x1 PUSH1 0xA0 SHL SUB DUP3 AND PUSH2 0xB3B JUMPI PUSH1 0x40 MLOAD PUSH3 0x461BCD PUSH1 0xE5 SHL DUP2 MSTORE PUSH1 0x20 PUSH1 0x4 DUP3 ADD MSTORE PUSH1 0x1C PUSH1 0x24 DUP3 ADD MSTORE PUSH32 0x5472616E7366657220746F20746865207A65726F206164647265737300000000 PUSH1 0x44 DUP3 ADD MSTORE PUSH1 0x64 ADD PUSH2 0x4D1 JUMP JUMPDEST PUSH1 0x1 PUSH1 0x1 PUSH1 0xA0 SHL SUB DUP4 AND PUSH0 SWAP1 DUP2 MSTORE PUSH1 0x7 PUSH1 0x20 MSTORE PUSH1 0x40 SWAP1 KECCAK256 SLOAD DUP2 DUP2 LT ISZERO PUSH2 0xBA3 JUMPI PUSH1 0x40 MLOAD PUSH3 0x461BCD PUSH1 0xE5 SHL DUP2 MSTORE PUSH1 0x20 PUSH1 0x4 DUP3 ADD MSTORE PUSH1 0x1F PUSH1 0x24 DUP3 ADD MSTORE PUSH32 0x5472616E7366657220616D6F756E7420657863656564732062616C616E636500 PUSH1 0x44 DUP3 ADD MSTORE PUSH1 0x64 ADD PUSH2 0x4D1 JUMP JUMPDEST PUSH2 0xBAD DUP3 DUP3 PUSH2 0x11D2 JUMP JUMPDEST PUSH1 0x1 PUSH1 0x1 PUSH1 0xA0 SHL SUB DUP1 DUP7 AND PUSH0 SWAP1 DUP2 MSTORE PUSH1 0x7 PUSH1 0x20 MSTORE PUSH1 0x40 DUP1 DUP3 KECCAK256 SWAP4 SWAP1 SWAP4 SSTORE SWAP1 DUP6 AND DUP2 MSTORE SWAP1 DUP2 KECCAK256 DUP1 SLOAD DUP5 SWAP3 SWAP1 PUSH2 0xBE2 SWAP1 DUP5 SWAP1 PUSH2 0x11E5 JUMP JUMPDEST SWAP3 POP POP DUP2 SWAP1 SSTORE POP DUP3 PUSH1 0x1 PUSH1 0x1 PUSH1 0xA0 SHL SUB AND DUP5 PUSH1 0x1 PUSH1 0x1 PUSH1 0xA0 SHL SUB AND PUSH32 0xDDF252AD1BE2C89B69C2B068FC378DAA952BA7F163C4A11628F55A4DF523B3EF DUP5 PUSH1 0x40 MLOAD PUSH2 0xC2E SWAP2 DUP2 MSTORE PUSH1 0x20 ADD SWAP1 JUMP JUMPDEST PUSH1 0x40 MLOAD DUP1 SWAP2 SUB SWAP1 LOG3 POP POP POP POP JUMP JUMPDEST PUSH1 0x1 PUSH1 0x1 PUSH1 0xA0 SHL SUB DUP3 AND PUSH2 0xC92 JUMPI PUSH1 0x40 MLOAD PUSH3 0x461BCD PUSH1 0xE5 SHL DUP2 MSTORE PUSH1 0x20 PUSH1 0x4 DUP3 ADD MSTORE PUSH1 0x1A PUSH1 0x24 DUP3 ADD MSTORE PUSH32 0x4275726E2066726F6D20746865207A65726F2061646472657373000000000000 PUSH1 0x44 DUP3 ADD MSTORE PUSH1 0x64 ADD PUSH2 0x4D1 JUMP JUMPDEST PUSH1 0x1 PUSH1 0x1 PUSH1 0xA0 SHL SUB DUP3 AND PUSH0 SWAP1 DUP2 MSTORE PUSH1 0x7 PUSH1 0x20 MSTORE PUSH1 0x40 SWAP1 KECCAK256 SLOAD DUP2 DUP2 LT ISZERO PUSH2 0xCFA JUMPI PUSH1 0x40 MLOAD PUSH3 0x461BCD PUSH1 0xE5 SHL DUP2 MSTORE PUSH1 0x20 PUSH1 0x4 DUP3 ADD MSTORE PUSH1 0x1B PUSH1 0x24 DUP3 ADD MSTORE PUSH32 0x4275726E20616D6F756E7420657863656564732062616C616E63650000000000 PUSH1 0x44 DUP3 ADD MSTORE PUSH1 0x64 ADD PUSH2 0x4D1 JUMP JUMPDEST PUSH2 0xD04 DUP3 DUP3 PUSH2 0x11D2 JUMP JUMPDEST PUSH1 0x1 PUSH1 0x1 PUSH1 0xA0 SHL SUB DUP5 AND PUSH0 SWAP1 DUP2 MSTORE PUSH1 0x7 PUSH1 0x20 MSTORE PUSH1 0x40 DUP2 KECCAK256 SWAP2 SWAP1 SWAP2 SSTORE PUSH1 0x4 DUP1 SLOAD DUP5 SWAP3 SWAP1 PUSH2 0xD31 SWAP1 DUP5 SWAP1 PUSH2 0x11D2 JUMP JUMPDEST SWAP1 SWAP2 SSTORE POP POP PUSH1 0x40 MLOAD DUP3 DUP2 MSTORE PUSH0 SWAP1 PUSH1 0x1 PUSH1 0x1 PUSH1 0xA0 SHL SUB DUP6 AND SWAP1 PUSH32 0xDDF252AD1BE2C89B69C2B068FC378DAA952BA7F163C4A11628F55A4DF523B3EF SWAP1 PUSH1 0x20 ADD PUSH2 0xA82 JUMP JUMPDEST PUSH1 0x1 PUSH1 0x1 PUSH1 0xA0 SHL SUB DUP3 AND PUSH2 0xDC9 JUMPI PUSH1 0x40 MLOAD PUSH3 0x461BCD PUSH1 0xE5 SHL DUP2 MSTORE PUSH1 0x20 PUSH1 0x4 DUP3 ADD MSTORE PUSH1 0x18 PUSH1 0x24 DUP3 ADD MSTORE PUSH32 0x4D696E7420746F20746865207A65726F20616464726573730000000000000000 PUSH1 0x44 DUP3 ADD MSTORE PUSH1 0x64 ADD PUSH2 0x4D1 JUMP JUMPDEST DUP1 PUSH1 0x4 PUSH0 DUP3 DUP3 SLOAD PUSH2 0xDDA SWAP2 SWAP1 PUSH2 0x11E5 JUMP JUMPDEST SWAP1 SWAP2 SSTORE POP POP PUSH1 0x1 PUSH1 0x1 PUSH1 0xA0 SHL SUB DUP3 AND PUSH0 SWAP1 DUP2 MSTORE PUSH1 0x7 PUSH1 0x20 MSTORE PUSH1 0x40 DUP2 KECCAK256 DUP1 SLOAD DUP4 SWAP3 SWAP1 PUSH2 0xE06 SWAP1 DUP5 SWAP1 PUSH2 0x11E5 JUMP JUMPDEST SWAP1 SWAP2 SSTORE POP POP PUSH1 0x40 MLOAD DUP2 DUP2 MSTORE PUSH1 0x1 PUSH1 0x1 PUSH1 0xA0 SHL SUB DUP4 AND SWAP1 PUSH0 SWAP1 PUSH32 0xDDF252AD1BE2C89B69C2B068FC378DAA952BA7F163C4A11628F55A4DF523B3EF SWAP1 PUSH1 0x20 ADD PUSH1 0x40 MLOAD DUP1 SWAP2 SUB SWAP1 LOG3 POP POP JUMP JUMPDEST PUSH0 PUSH0 PUSH0 PUSH0 PUSH2 0xE5F DUP9 DUP9 DUP9 DUP9 PUSH2 0xE7B JUMP JUMPDEST SWAP3 POP SWAP3 POP SWAP3 POP PUSH2 0xE6F DUP3 DUP3 PUSH2 0xF43 JUMP JUMPDEST POP SWAP1 SWAP7 SWAP6 POP POP POP POP POP POP JUMP JUMPDEST PUSH0 DUP1 DUP1 PUSH32 0x7FFFFFFFFFFFFFFFFFFFFFFFFFFFFFFF5D576E7357A4501DDFE92F46681B20A0 DUP5 GT ISZERO PUSH2 0xEB4 JUMPI POP PUSH0 SWAP2 POP PUSH1 0x3 SWAP1 POP DUP3 PUSH2 0xF39 JUMP JUMPDEST PUSH1 0x40 DUP1 MLOAD PUSH0 DUP1 DUP3 MSTORE PUSH1 0x20 DUP3 ADD DUP1 DUP5 MSTORE DUP11 SWAP1 MSTORE PUSH1 0xFF DUP10 AND SWAP3 DUP3 ADD SWAP3 SWAP1 SWAP3 MSTORE PUSH1 0x60 DUP2 ADD DUP8 SWAP1 MSTORE PUSH1 0x80 DUP2 ADD DUP7 SWAP1 MSTORE PUSH1 0x1 SWAP1 PUSH1 0xA0 ADD PUSH1 0x20 PUSH1 0x40 MLOAD PUSH1 0x20 DUP2 SUB SWAP1 DUP1 DUP5 SUB SWAP1 DUP6 GAS STATICCALL ISZERO DUP1 ISZERO PUSH2 0xF05 JUMPI RETURNDATASIZE PUSH0 PUSH0 RETURNDATACOPY RETURNDATASIZE PUSH0 REVERT JUMPDEST POP POP PUSH1 0x40 MLOAD PUSH1 0x1F NOT ADD MLOAD SWAP2 POP POP PUSH1 0x1 PUSH1 0x1 PUSH1 0xA0 SHL SUB DUP2 AND PUSH2 0xF30 JUMPI POP PUSH0 SWAP3 POP PUSH1 0x1 SWAP2 POP DUP3 SWAP1 POP PUSH2 0xF39 JUMP JUMPDEST SWAP3 POP PUSH0 SWAP2 POP DUP2 SWAP1 POP JUMPDEST SWAP5 POP SWAP5 POP SWAP5 SWAP2 POP POP JUMP JUMPDEST PUSH0 DUP3 PUSH1 0x3 DUP2 GT ISZERO PUSH2 0xF56 JUMPI PUSH2 0xF56 PUSH2 0x13B3 JUMP JUMPDEST SUB PUSH2 0xF5F JUMPI POP POP JUMP JUMPDEST PUSH1 0x1 DUP3 PUSH1 0x3 DUP2 GT ISZERO PUSH2 0xF73 JUMPI PUSH2 0xF73 PUSH2 0x13B3 JUMP JUMPDEST SUB PUSH2 0xF91 JUMPI PUSH1 0x40 MLOAD PUSH4 0xF645EEDF PUSH1 0xE0 SHL DUP2 MSTORE PUSH1 0x4 ADD PUSH1 0x40 MLOAD DUP1 SWAP2 SUB SWAP1 REVERT JUMPDEST PUSH1 0x2 DUP3 PUSH1 0x3 DUP2 GT ISZERO PUSH2 0xFA5 JUMPI PUSH2 0xFA5 PUSH2 0x13B3 JUMP JUMPDEST SUB PUSH2 0xFC6 JUMPI PUSH1 0x40 MLOAD PUSH4 0xFCE698F7 PUSH1 0xE0 SHL DUP2 MSTORE PUSH1 0x4 DUP2 ADD DUP3 SWAP1 MSTORE PUSH1 0x24 ADD PUSH2 0x4D1 JUMP JUMPDEST PUSH1 0x3 DUP3 PUSH1 0x3 DUP2 GT ISZERO PUSH2 0xFDA JUMPI PUSH2 0xFDA PUSH2 0x13B3 JUMP JUMPDEST SUB PUSH2 0xFFB JUMPI PUSH1 0x40 MLOAD PUSH4 0x35E2F383 PUSH1 0xE2 SHL DUP2 MSTORE PUSH1 0x4 DUP2 ADD DUP3 SWAP1 MSTORE PUSH1 0x24 ADD PUSH2 0x4D1 JUMP JUMPDEST POP POP JUMP JUMPDEST PUSH1 0x20 DUP2 MSTORE PUSH0 DUP3 MLOAD DUP1 PUSH1 0x20 DUP5 ADD MSTORE DUP1 PUSH1 0x20 DUP6 ADD PUSH1 0x40 DUP6 ADD MCOPY PUSH0 PUSH1 0x40 DUP3 DUP6 ADD ADD MSTORE PUSH1 0x40 PUSH1 0x1F NOT PUSH1 0x1F DUP4 ADD AND DUP5 ADD ADD SWAP2 POP POP SWAP3 SWAP2 POP POP JUMP JUMPDEST DUP1 CALLDATALOAD PUSH1 0x1 PUSH1 0x1 PUSH1 0xA0 SHL SUB DUP2 AND DUP2 EQ PUSH2 0x104A JUMPI PUSH0 PUSH0 REVERT JUMPDEST SWAP2 SWAP1 POP JUMP JUMPDEST PUSH0 PUSH0 PUSH1 0x40 DUP4 DUP6 SUB SLT ISZERO PUSH2 0x1060 JUMPI PUSH0 PUSH0 REVERT JUMPDEST PUSH2 0x1069 DUP4 PUSH2 0x1034 JUMP JUMPDEST SWAP5 PUSH1 0x20 SWAP4 SWAP1 SWAP4 ADD CALLDATALOAD SWAP4 POP POP POP JUMP JUMPDEST PUSH0 PUSH0 PUSH0 PUSH1 0x60 DUP5 DUP7 SUB SLT ISZERO PUSH2 0x1089 JUMPI PUSH0 PUSH0 REVERT JUMPDEST PUSH2 0x1092 DUP5 PUSH2 0x1034 JUMP JUMPDEST SWAP3 POP PUSH2 0x10A0 PUSH1 0x20 DUP6 ADD PUSH2 0x1034 JUMP JUMPDEST SWAP3 SWAP6 SWAP3 SWAP5 POP POP POP PUSH1 0x40 SWAP2 SWAP1 SWAP2 ADD CALLDATALOAD SWAP1 JUMP JUMPDEST PUSH0 PUSH1 0x20 DUP3 DUP5 SUB SLT ISZERO PUSH2 0x10C1 JUMPI PUSH0 PUSH0 REVERT JUMPDEST POP CALLDATALOAD SWAP2 SWAP1 POP JUMP JUMPDEST PUSH0 PUSH1 0x20 DUP3 DUP5 SUB SLT ISZERO PUSH2 0x10D8 JUMPI PUSH0 PUSH0 REVERT JUMPDEST PUSH2 0x10E1 DUP3 PUSH2 0x1034 JUMP JUMPDEST SWAP4 SWAP3 POP POP POP JUMP JUMPDEST PUSH0 PUSH0 PUSH0 PUSH0 PUSH0 PUSH0 PUSH0 PUSH1 0xE0 DUP9 DUP11 SUB SLT ISZERO PUSH2 0x10FE JUMPI PUSH0 PUSH0 REVERT JUMPDEST PUSH2 0x1107 DUP9 PUSH2 0x1034 JUMP JUMPDEST SWAP7 POP PUSH2 0x1115 PUSH1 0x20 DUP10 ADD PUSH2 0x1034 JUMP JUMPDEST SWAP6 POP PUSH1 0x40 DUP9 ADD CALLDATALOAD SWAP5 POP PUSH1 0x60 DUP9 ADD CALLDATALOAD SWAP4 POP PUSH1 0x80 DUP9 ADD CALLDATALOAD PUSH1 0xFF DUP2 AND DUP2 EQ PUSH2 0x1138 JUMPI PUSH0 PUSH0 REVERT JUMPDEST SWAP7 SWAP10 SWAP6 SWAP9 POP SWAP4 SWAP7 SWAP3 SWAP6 SWAP5 PUSH1 0xA0 DUP5 ADD CALLDATALOAD SWAP5 POP PUSH1 0xC0 SWAP1 SWAP4 ADD CALLDATALOAD SWAP3 SWAP2 POP POP JUMP JUMPDEST PUSH0 PUSH0 PUSH1 0x40 DUP4 DUP6 SUB SLT ISZERO PUSH2 0x1166 JUMPI PUSH0 PUSH0 REVERT JUMPDEST PUSH2 0x116F DUP4 PUSH2 0x1034 JUMP JUMPDEST SWAP2 POP PUSH2 0x117D PUSH1 0x20 DUP5 ADD PUSH2 0x1034 JUMP JUMPDEST SWAP1 POP SWAP3 POP SWAP3 SWAP1 POP JUMP JUMPDEST PUSH1 0x1 DUP2 DUP2 SHR SWAP1 DUP3 AND DUP1 PUSH2 0x119A JUMPI PUSH1 0x7F DUP3 AND SWAP2 POP JUMPDEST PUSH1 0x20 DUP3 LT DUP2 SUB PUSH2 0x11B8 JUMPI PUSH4 0x4E487B71 PUSH1 0xE0 SHL PUSH0 MSTORE PUSH1 0x22 PUSH1 0x4 MSTORE PUSH1 0x24 PUSH0 REVERT JUMPDEST POP SWAP2 SWAP1 POP JUMP JUMPDEST PUSH4 0x4E487B71 PUSH1 0xE0 SHL PUSH0 MSTORE PUSH1 0x11 PUSH1 0x4 MSTORE PUSH1 0x24 PUSH0 REVERT JUMPDEST DUP2 DUP2 SUB DUP2 DUP2 GT ISZERO PUSH2 0x40F JUMPI PUSH2 0x40F PUSH2 0x11BE JUMP JUMPDEST DUP1 DUP3 ADD DUP1 DUP3 GT ISZERO PUSH2 0x40F JUMPI PUSH2 0x40F PUSH2 0x11BE JUMP JUMPDEST PUSH1 0x20 DUP1 DUP3 MSTORE PUSH1 0x17 SWAP1 DUP3 ADD MSTORE PUSH32 0x43616C6C6572206973206E6F7420746865206F776E6572000000000000000000 PUSH1 0x40 DUP3 ADD MSTORE PUSH1 0x60 ADD SWAP1 JUMP JUMPDEST PUSH1 0x1 DUP2 JUMPDEST PUSH1 0x1 DUP5 GT ISZERO PUSH2 0x126A JUMPI DUP1 DUP6 DIV DUP2 GT ISZERO PUSH2 0x124E JUMPI PUSH2 0x124E PUSH2 0x11BE JUMP JUMPDEST PUSH1 0x1 DUP5 AND ISZERO PUSH2 0x125C JUMPI SWAP1 DUP2 MUL SWAP1 JUMPDEST PUSH1 0x1 SWAP4 SWAP1 SWAP4 SHR SWAP3 DUP1 MUL PUSH2 0x1233 JUMP JUMPDEST SWAP4 POP SWAP4 SWAP2 POP POP JUMP JUMPDEST PUSH0 DUP3 PUSH2 0x1280 JUMPI POP PUSH1 0x1 PUSH2 0x40F JUMP JUMPDEST DUP2 PUSH2 0x128C JUMPI POP PUSH0 PUSH2 0x40F JUMP JUMPDEST DUP2 PUSH1 0x1 DUP2 EQ PUSH2 0x12A2 JUMPI PUSH1 0x2 DUP2 EQ PUSH2 0x12AC JUMPI PUSH2 0x12C8 JUMP JUMPDEST PUSH1 0x1 SWAP2 POP POP PUSH2 0x40F JUMP JUMPDEST PUSH1 0xFF DUP5 GT ISZERO PUSH2 0x12BD JUMPI PUSH2 0x12BD PUSH2 0x11BE JUMP JUMPDEST POP POP PUSH1 0x1 DUP3 SHL PUSH2 0x40F JUMP JUMPDEST POP PUSH1 0x20 DUP4 LT PUSH2 0x133 DUP4 LT AND PUSH1 0x4E DUP5 LT PUSH1 0xB DUP5 LT AND OR ISZERO PUSH2 0x12EB JUMPI POP DUP2 DUP2 EXP PUSH2 0x40F JUMP JUMPDEST PUSH2 0x12F7 PUSH0 NOT DUP5 DUP5 PUSH2 0x122F JUMP JUMPDEST DUP1 PUSH0 NOT DIV DUP3 GT ISZERO PUSH2 0x130A JUMPI PUSH2 0x130A PUSH2 0x11BE JUMP JUMPDEST MUL SWAP4 SWAP3 POP POP POP JUMP JUMPDEST PUSH0 PUSH2 0x10E1 DUP4 DUP4 PUSH2 0x1272 JUMP JUMPDEST DUP1 DUP3 MUL DUP2 ISZERO DUP3 DUP3 DIV DUP5 EQ OR PUSH2 0x40F JUMPI PUSH2 0x40F PUSH2 0x11BE JUMP JUMPDEST DUP1 MLOAD PUSH10 0xFFFFFFFFFFFFFFFFFFFF DUP2 AND DUP2 EQ PUSH2 0x104A JUMPI PUSH0 PUSH0 REVERT JUMPDEST PUSH0 PUSH0 PUSH0 PUSH0 PUSH0 PUSH1 0xA0 DUP7 DUP9 SUB SLT ISZERO PUSH2 0x1361 JUMPI PUSH0 PUSH0 REVERT JUMPDEST PUSH2 0x136A DUP7 PUSH2 0x1334 JUMP JUMPDEST PUSH1 0x20 DUP8 ADD MLOAD PUSH1 0x40 DUP9 ADD MLOAD PUSH1 0x60 DUP10 ADD MLOAD SWAP3 SWAP8 POP SWAP1 SWAP6 POP SWAP4 POP SWAP2 POP PUSH2 0x138F PUSH1 0x80 DUP8 ADD PUSH2 0x1334 JUMP JUMPDEST SWAP1 POP SWAP3 SWAP6 POP SWAP3 SWAP6 SWAP1 SWAP4 POP JUMP JUMPDEST PUSH0 PUSH1 0x1 DUP3 ADD PUSH2 0x13AC JUMPI PUSH2 0x13AC PUSH2 0x11BE JUMP JUMPDEST POP PUSH1 0x1 ADD SWAP1 JUMP JUMPDEST PUSH4 0x4E487B71 PUSH1 0xE0 SHL PUSH0 MSTORE PUSH1 0x21 PUSH1 0x4 MSTORE PUSH1 0x24 PUSH0 REVERT INVALID LOG2 PUSH5 0x6970667358 0x22 SLT KECCAK256 SHL CODESIZE ADD PUSH19 0x889BF6646475826167A456827A65EBC22BE86D 0x4E 0xBA 0xA9 0xE7 0x4C 0xD6 LOG3 BALANCE 0xF6 PUSH5 0x736F6C6343 STOP ADDMOD SHL STOP CALLER "
				},
				"gasEstimates": {
					"creation": {
						"codeDepositCost": "1023400",
						"executionCost": "infinite",
						"totalCost": "infinite"
					},
					"external": {
						"DOMAIN_SEPARATOR()": "2317",
						"PERMIT_TYPEHASH()": "306",
						"allowance(address,address)": "infinite",
						"approve(address,uint256)": "24639",
						"balanceOf(address)": "2623",
						"burn(uint256)": "infinite",
						"decimals()": "2446",
						"decreaseAllowance(address,uint256)": "27061",
						"getLatestPrice()": "infinite",
						"increaseAllowance(address,uint256)": "infinite",
						"mint(uint256)": "infinite",
						"mintDaily()": "infinite",
						"name()": "infinite",
						"nonces(address)": "2649",
						"owner()": "2322",
						"permit(address,address,uint256,uint256,uint8,bytes32,bytes32)": "infinite",
						"priceInUSD()": "2338",
						"setGasLimit(uint256)": "2621",
						"setPriceInUSD(uint256)": "24483",
						"symbol()": "infinite",
						"totalSupply()": "2348",
						"transfer(address,uint256)": "infinite",
						"transferFrom(address,address,uint256)": "infinite",
						"transferOwnership(address)": "30527"
					},
					"internal": {
						"_approve(address,address,uint256)": "infinite",
						"_burn(address,uint256)": "infinite",
						"_mint(address,uint256)": "infinite",
						"_transfer(address,address,uint256)": "infinite"
					}
				},
				"methodIdentifiers": {
					"DOMAIN_SEPARATOR()": "3644e515",
					"PERMIT_TYPEHASH()": "30adf81f",
					"allowance(address,address)": "dd62ed3e",
					"approve(address,uint256)": "095ea7b3",
					"balanceOf(address)": "70a08231",
					"burn(uint256)": "42966c68",
					"decimals()": "313ce567",
					"decreaseAllowance(address,uint256)": "a457c2d7",
					"getLatestPrice()": "8e15f473",
					"increaseAllowance(address,uint256)": "39509351",
					"mint(uint256)": "a0712d68",
					"mintDaily()": "785946f4",
					"name()": "06fdde03",
					"nonces(address)": "7ecebe00",
					"owner()": "8da5cb5b",
					"permit(address,address,uint256,uint256,uint8,bytes32,bytes32)": "d505accf",
					"priceInUSD()": "d41edb7b",
					"setGasLimit(uint256)": "ee7d72b4",
					"setPriceInUSD(uint256)": "d03a4045",
					"symbol()": "95d89b41",
					"totalSupply()": "18160ddd",
					"transfer(address,uint256)": "a9059cbb",
					"transferFrom(address,address,uint256)": "23b872dd",
					"transferOwnership(address)": "f2fde38b"
				}
			},
			"storageLayout": {
				"storage": [
					{
						"astId": 401,
						"contract": "contracts/BOG.sol:Token",
						"label": "_owner",
						"offset": 0,
						"slot": "0",
						"type": "t_address"
					},
					{
						"astId": 566,
						"contract": "contracts/BOG.sol:Token",
						"label": "name",
						"offset": 0,
						"slot": "1",
						"type": "t_string_storage"
					},
					{
						"astId": 569,
						"contract": "contracts/BOG.sol:Token",
						"label": "symbol",
						"offset": 0,
						"slot": "2",
						"type": "t_string_storage"
					},
					{
						"astId": 572,
						"contract": "contracts/BOG.sol:Token",
						"label": "decimals",
						"offset": 0,
						"slot": "3",
						"type": "t_uint8"
					},
					{
						"astId": 574,
						"contract": "contracts/BOG.sol:Token",
						"label": "_totalSupply",
						"offset": 0,
						"slot": "4",
						"type": "t_uint256"
					},
					{
						"astId": 581,
						"contract": "contracts/BOG.sol:Token",
						"label": "priceInUSD",
						"offset": 0,
						"slot": "5",
						"type": "t_uint256"
					},
					{
						"astId": 584,
						"contract": "contracts/BOG.sol:Token",
						"label": "priceFeed",
						"offset": 0,
						"slot": "6",
						"type": "t_contract(AggregatorV3Interface)45"
					},
					{
						"astId": 588,
						"contract": "contracts/BOG.sol:Token",
						"label": "_balances",
						"offset": 0,
						"slot": "7",
						"type": "t_mapping(t_address,t_uint256)"
					},
					{
						"astId": 594,
						"contract": "contracts/BOG.sol:Token",
						"label": "_allowances",
						"offset": 0,
						"slot": "8",
						"type": "t_mapping(t_address,t_mapping(t_address,t_uint256))"
					},
					{
						"astId": 598,
						"contract": "contracts/BOG.sol:Token",
						"label": "nonces",
						"offset": 0,
						"slot": "9",
						"type": "t_mapping(t_address,t_uint256)"
					},
					{
						"astId": 605,
						"contract": "contracts/BOG.sol:Token",
						"label": "DOMAIN_SEPARATOR",
						"offset": 0,
						"slot": "10",
						"type": "t_bytes32"
					}
				],
				"types": {
					"t_address": {
						"encoding": "inplace",
						"label": "address",
						"numberOfBytes": "20"
					},
					"t_bytes32": {
						"encoding": "inplace",
						"label": "bytes32",
						"numberOfBytes": "32"
					},
					"t_contract(AggregatorV3Interface)45": {
						"encoding": "inplace",
						"label": "contract AggregatorV3Interface",
						"numberOfBytes": "20"
					},
					"t_mapping(t_address,t_mapping(t_address,t_uint256))": {
						"encoding": "mapping",
						"key": "t_address",
						"label": "mapping(address => mapping(address => uint256))",
						"numberOfBytes": "32",
						"value": "t_mapping(t_address,t_uint256)"
					},
					"t_mapping(t_address,t_uint256)": {
						"encoding": "mapping",
						"key": "t_address",
						"label": "mapping(address => uint256)",
						"numberOfBytes": "32",
						"value": "t_uint256"
					},
					"t_string_storage": {
						"encoding": "bytes",
						"label": "string",
						"numberOfBytes": "32"
					},
					"t_uint256": {
						"encoding": "inplace",
						"label": "uint256",
						"numberOfBytes": "32"
					},
					"t_uint8": {
						"encoding": "inplace",
						"label": "uint8",
						"numberOfBytes": "1"
					}
				}
			},
			"userdoc": {
				"kind": "user",
				"methods": {},
				"version": 1
			}
		}
	}
}